:020000022000DC
:1060000000000120756302005D6302005F6302000F
:106010006163020063630200656302000000000028
:1060200000000000000000000000000067630200A4
:1060300069630200000000006B6302006D630200F0
:10604000F99902006F630200319E02006F63020043
:106050006F6302006F630200B99C02006F6302006D
:106060006F6302006F6302006F6302006F630200E0
:106070006F6302006F6302006F6302006F630200D0
:106080006F630200317502006F6302006F630200EC
:10609000CD7502006F63020081F902006F63020098
:1060A0006F6302006F6302006F6302006F630200A0
:1060B0006F6302006F630200000000000000000038
:1060C0006F6302006F6302006F6302006F63020080
:1060D0006F6302006F6302006F6302000000000044
:1060E00000000000000000000000000000000000B0
:1060F00000000000000000000000000000000000A0
:10610000000000000000000000000000000000008F
:10611000000000000000000000000000000000007F
:10612000000000000000000000000000000000006F
:10613000000000000000000000000000000000005F
:10614000000000000000000000000000000000004F
:10615000000000000000000000000000000000003F
:10616000000000000000000000000000000000002F
:10617000000000000000000000000000000000001F
:10618000000000000000000000000000000000000F
:1061900000000000000000000000000000000000FF
:1061A00000000000000000000000000000000000EF
:1061B00000000000000000000000000000000000DF
:1061C00000000000000000000000000000000000CF
:1061D00000000000000000000000000000000000BF
:1061E00000000000000000000000000000000000AF
:1061F000000000000000000000000000000000009F
:10620000354936480A1A02D0072291438D4634494F
:1062100034480A1A06D00722914381F309880222E2
:1062200082F3148830483149314A00F044F831484B
:106230003149324A00F03FF831483249324A00F0E1
:106240003AF832483249334A00F035F83248334997
:10625000334A00F030F833483349344A00F02BF821
:1062600033483449344A00F026F83448344900228F
:1062700000F02CF833483449002200F027F8334866
:106280003349091A082902DB002202604160314AC1
:1062900090471F481F49884205D00268043003B464
:1062A000904703BCF7E700208646EC46002000211B
:1062B000294A9047FEE7884207D0521A05D0037852
:1062C00001300B700131013AF9D17047884202D098
:1062D00002700130FAE770470000012000E0002062
:1062E0000000012000000120A02603003C22002025
:1062F00090220020D4630200D463020014FF020045
:10630000A02603003C2200203C220020980003002D
:106310009800030098000300980003009800030011
:106320009800030098000300980003009E260300D5
:10633000F4260300902200209022002090220020CA
:10634000F8330020F8330020F8330020F833002021
:10635000F85300209D63020041AF0200FEE7FEE714
:10636000FEE7FEE7FEE7FEE7FEE7FEE7FEE7FEE705
:10637000704700BF1048804710484FF0070188431E
:1063800085460F4880470F48016841F4700101605D
:10639000BFF34F8FBFF36F8FFFF732BF0A480B4930
:1063A0000B4A884207D0521A05D0037801300B708F
:1063B0000131013AF9D170477163020000000120F8
:1063C000416F020088ED00E08400030028220020D5
:0463D0003C2200204B
:1063D400F0B595B01D46164608460C4603F0B2F8D3
:1063E4001A9B0D93CDE9086500252B46082205A9C3
:1063F40020460A958DF82C500C9503F0BFF8079BA6
:106404000293069B03939DF814308DF8115003F00A
:106414000302012A1DD1BDF81420059DC3F3C20354
:10642400C2F383168DF81030B20008230EA920465B
:1064340003F0A4F8C5F3952508AB0093324602ABEC
:106444000EA9284600F0F0FB204603F07FF815B0B3
:10645400F0BD022AF8D1BDF81650C3F3C203C5F348
:1064640089158DF810300827082D2E4628BF0826D8
:106474003B4632460EA9204603F080F8AD1B08AB1C
:1064840002AA31460EA8374400F032FC002DEBD1AD
:10649400DAE70000014B01221A707047D122002074
:1064A4007047000070B50E4D06460FCD88B06C469F
:1064B4000FC495E80F00002E84E80F00094A0A482B
:1064C4004FF0060308BF00226946009303F020FA48
:1064D40008B100F07FFF054B1E7008B070BD00BF0F
:1064E40098000300996402003C22002090220020BE
:1064F40007B5044B0093044A4023FFF769FF03B038
:106504005DF804FB116502009122002038B50D48A6
:106514000D4C0E4D002323700378EB5CD2B263B1B3
:10652400043004F0D1F808B100F054FF084B1A7895
:1065340012B12378002BFBD038BD0C3003F0B4FE2D
:10654400F1E700BF3C220020D1220020F42B0020E0
:106554009022002008B50848084A0378D35C3BB170
:10656400043004F043F8BDE808400020FFF79ABF68
:106574000C3003F02BFEF6E73C220020F42B002025
:106584000120FFF78FBF000008B5FFF7F9FF0448AB
:10659400042100F0B3FA034B01225A7108BD00BF75
:1065A4006000030050220020037813F0040216D088
:1065B40003F00303012B03D0022B09D00120704701
:1065C4000A6800880232C0F3831002440A60F5E7C7
:1065D4000B684288023303EB92130B60EEE710461C
:1065E400704700002DE9F04FDFF830A187B00F4667
:1065F40000230446861C0DF1070015468DF807306C
:1066040001F0D8F9DAF800103960DAE901321344FC
:1066140001335B1A0AF21C470AF583690AF214482B
:10662400B3421CD30020002D73D004F00F039B0150
:1066340043F0050363F30F00DAF80020DAF80830BA
:106644001340033332444AF823009DF80700CAF884
:10665400002001F0D3F9012007B0BDE8F08F01213B
:10666400384602F0E2F9484602F0FAF9404602F0F0
:10667400F7F9DAF80400DAF808B0029000EA0B003F
:1066840003300AEB800002A9FFF78EFF029B50BB88
:106694000BEA03020AEB820203F1020CD2680392B2
:1066A400013303EA0B0B0AEB8B0B02F00302012A02
:1066B400DBF80C10CDF808C023D0022A16D083468C
:1066C400404602F0D0F910B1029BCAF80430594692
:1066D400384602F0AAF9DAE901231344DAF8002073
:1066E40001339B1A9CE70BEA0300C9E7BDF80E309F
:1066F400C3F3891303334FEA114B0CEB9303029357
:10670400DEE7BDF80C30C3F383134FEA114B634447
:10671400F5E7A40544F006008EE700BFA42300209B
:106724000B4B0C48FF2210B59A600022C3F81824C2
:10673400C3E90022C3F8142483F8202402F0BBFE2A
:10674400044610B9044802F0D9FF204610BD00BF2A
:10675400A423002070000300EC00030030B50A4CB1
:1067640071B10A4A0A49121BD20800239A4201D184
:10677400002030BD31F82350854202D00133F5E7C3
:10678400034654F83300F4E780FF020030000300AE
:1067940028220020094B013903EBC000032909D842
:1067A400DFE801F00A02040604207047007970470C
:1067B40040797047002070470220704780FF020034
:1067C400034BD3E90030C31A58425841704700BF05
:1067D400A42300202DE9F04387B0FFF7F1FF06461C
:1067E400002840F0FE80804CC4F81804BFF34F8F9B
:1067F4006368A56802932B40033304EB830002A96A
:10680400FFF7D2FE029B18B1D4F81824002A62D0F4
:1068140005EA0302991C013304EB82022B4004EBCA
:106824008303D268DB68049302F00303022B039210
:10683400029163D1BDF80E306C48C3F38917502F11
:10684400B84628BF4FF0500808F1080168F38F13C9
:10685400C1F30901ADF80E3002F045FE06460028EA
:1068640000F0AA8002F06EFE0023082203A930463D
:1068740002F07AFE029925EA01020132B8EB820F96
:106884004FEA820333D95FFA88F863B32940DDB253
:10689400A8EB050803315FFA88F9A846544D04EBC8
:1068A400810108234246304602F05EFE3DB108F104
:1068B4000803DBB24A462946304602F055FE029BE5
:1068C400033703EB97070297D4F81834002B4BD106
:1068D400D4F810545BE0226893428CD36260304653
:1068E40007B0BDE8F08342491D469946D9E72940DF
:1068F40003310823424604EB8101DDE7012B5BD120
:10690400BDF80C303948C3F38311062928BF06218A
:1069140061F38913023101F00F018900ADF80C30E5
:1069240002F0E1FD0646002846D002F00BFE0023EB
:10693400082203A9304602F017FE0027BDF80C20F8
:10694400C2F38312BB00974203F10803BCD202993D
:106954004A1C29400331029204EB8101042230468F
:1069640002F002FE0137E9E7304602F0EFFDFFF7DF
:1069740027FF80F00100C6B2B1E7EB685B7923B171
:106984002B6831461B6828469847EB681D68002D24
:10699400F3D1304602F0DAFD0DF107008DF807500F
:1069A40001F008F8D4F818340BB9029B63609DF821
:1069B400070001F023F8DAE7D4F8104454B90D4B7A
:1069C4000D480E49C01AC008000440F0020000F04F
:1069D40063F8CCE7236820469B689847E3681C6803
:1069E400ECE700267BE700BFA4230020700003002F
:1069F400B023002080FF0200A8FF0200D50003009E
:106A04002DE9F74F224E04460F46924601A9012272
:106A14001846D6F808909B46FFF7E4FD20B3019D85
:106A24004FF00008AA1CD84508EB020126D11948EA
:106A3400002101F0B3FF80F31000000440EA144089
:106A4400E4006B1C04F0380403EA090305EA0905B1
:106A540044F0010406EB8303033544EA881444EA52
:106A64008724D86046F8254096F820341BB1FFF7F8
:106A7400B1FE0028FBD103B0BDE8F08F09EA0101A3
:106A840006EB81015AF82830CB6008F10108CAE707
:106A9400A4230020C027002000231A46FFF7B0BF1C
:106AA40007B50123019201AAFFF7AAFF03B05DF81D
:106AB40004FB07B5CDE9002302236A46FFF7A0FFD4
:106AC40003B05DF804FB1FB5CDE90123069B0393D6
:106AD40001AA0323FFF794FF05B05DF804FB1FB57B
:106AE400CDE90023069B0293079B03936A46042384
:106AF400FFF786FF05B05DF804FB000030B50F4CCE
:106B0400D4F8102403460020114631B9D96808711D
:106B14004AB9C4F810340A6030BDC9680D79854299
:106B240006D00968F1E7D26814680C601360F3E7D3
:106B340001300A28E8D14FF0FF30EDE7A42300200C
:106B440038B5084B0125D3F8104483F8205404B910
:106B540038BDE3685D71236820465B689847E36845
:106B64001C68F4E7A423002030B5C38885B004462C
:106B74000D4633B1144A00921449154A284601F0CF
:106B8400D5FF217A05291DD0637A4BB1A088FFF780
:106B940001FE104B104953F82020284601F0C6FF8F
:106BA400227A0E4BA08853F8222003920021FFF78B
:106BB400D5FD039A0A490346284605B0BDE830408E
:106BC40001F0B4BF05B030BD18010300000103009B
:106BD400F80003008401030087190300A8010300DF
:106BE4001D01030007B503460846197A052911D08B
:106BF4005B7A2BB1094A0A49019001F097FF019889
:106C04000849019001F092FF019803B05DF804EB8C
:106C140001F081BF002AF8D0F2E700BF1801030099
:106C240087190300150103002DE9F04385B01F46C1
:106C34000C9D002395F80C902B7306460C46904649
:106C440029463846FFF790FFB8F1060F09D8DFE868
:106C540008F00412181F283340003146284601F07A
:106C640065FF002229463846FFF7BCFF85F80C90E3
:106C740005B0BDE8F08322683146284601F056FF8E
:106C8400EFE7D4E900233146284601F04FFFE8E757
:106C9400A36800933146D4E90023284601F046FF57
:106CA400DFE7E3680193A36800933146D4E9002346
:106CB400284601F03BFFD4E723690293E36801937C
:106CC400A36800933146D4E90023284601F02EFF3F
:106CD400C7E76369039323690293E3680193A36895
:106CE40000933146D4E90023284601F01FFFB8E79A
:106CF40008292DE9F74F80460E4617461C4639D819
:106D0400002593F80C901D7319461046FFF72CFFCD
:106D1400DFF880A0DFF880B0AE422ED918F8052045
:106D24005946204601F002FF0135082DF4D11849D7
:106D3400DFF868A0DFF868B0204601F0F7FE002510
:106D4400AE421FD918F805200192104609F012F836
:106D54000028019A594608BF2E22204601F0E6FE7B
:106D64000135082DECD1012221463846FFF73AFFC0
:106D740084F80C9003B0BDE8F08F5146204601F032
:106D8400D5FED1E75146204601F0D0FEE8E700BF2A
:106D9400310103002D010300270103002F0103002B
:106DA40033010300054A4FF0A043105CD3F80435C7
:106DB40023FA00F0C04300F001007047C001030053
:106DC400044B1A5C012393404FF0A042C2F80C35E7
:106DD400704700BFC0010300044B1A5C01239340B9
:106DE4004FF0A042C2F80835704700BFC00103004D
:106DF40008B50020FFF7F0FF0120FFF7EDFF0220A8
:106E0400FFF7EAFFBDE808400320FFF7E5BF08B538
:106E14000020FFF7D5FF0120FFF7D2FF0220FFF784
:106E2400CFFFBDE808400320FFF7CABF074A4FF071
:106E3400A041105CD1F804350122824022EA03000B
:106E44001340C1F80805C1F80C357047C0010300B0
:106E5400054A4FF0A043105CD3F8103523FA00F034
:106E6400C04300F001007047BC0103000D2809D0A5
:106E74000E2809D00F2809D010280CBF03204FF08A
:106E8400FF30704700207047012070470220704790
:106E9400014B185C704700BFBC010300C20708B572
:106EA40001460CD54FF0A0430322C3F84427C3F88E
:106EB4004827C3F84C27C3F85027FFF799FF8B07DF
:106EC4000AD54FF0A0430C22C3F83427C3F838275F
:106ED400C3F83C27C3F8402708BD4FF0704393F82C
:106EE400E02F062A10D1D3F8E42F12070CD1D3F8DF
:106EF400E80F00F0F003302B08D000F0E000A0F120
:106F040040035842584170470020704701207047A1
:106F14004FF0704393F8E02F062A0CD1D3F8E42FF6
:106F2400120708D1D3F8E80F00F0F000A0F1300305
:106F340058425841704700207047000008B5FFF7D9
:106F4400CCFF40B14FF08053884AD3F82433C3F3C5
:106F54000423C2F84035FFF7DBFF10B1844B854AA8
:106F64005A67FFF7BAFF48B14FF080534FF08042A1
:106F7400D3F84432C3F34233C2F83C35FFF7C8FFB9
:106F840030B17D4AD2F8FC3023F08073C2F8FC3073
:106F9400FFF7A3FF40B14FF080430022C3F80C2158
:106FA400C3F81021C3F83825FFF7B2FF20B14FF022
:106FB40080430322C3F8A025FFF7AAFF60B16F4BFB
:106FC4000522C3F810260122C3F888260022C3F83C
:106FD40018263F22C3F814264FF0704393F8E02F8D
:106FE400062A50D1D3F8E42F11074CD1D3F8E83F47
:106FF40003F0F003502B46D14FF08052604BD2F88F
:107004000414C3F82015D2F80814C3F82415D2F8D0
:107014000C14C3F82815D2F81014C3F82C15D2F8A0
:107024001414C3F83015D2F81814C3F83415D2F870
:107034001C14C3F84015D2F82014C3F84415D2F830
:107044002414C3F84815D2F82814C3F84C15D2F800
:107054002C14C3F85015D2F83014C3F85415D2F8D0
:107064003414C3F86015D2F83814C3F86415D2F890
:107074003C14C3F86815D2F84014C3F86C15D2F860
:107084004424C3F87025FFF728FF48B14FF080531C
:107094004FF08042D3F8583203F04F03C2F8E43E75
:1070A400FFF71BFF48B14FF08043D3F80024D20709
:1070B40044BF6FF00102C3F800244FF08053D3F8AB
:1070C4003021062A0AD1D3F83431062B01BF2D4AC8
:1070D400D2F83C3743F48063C2F83C37264AD2F8EE
:1070E400883043F47003C2F88830BFF34F8FBFF386
:1070F4006F8F4FF01023D3F80022002A03DBD3F85C
:107104000432002B2EDA204B0122C3F80425D3F8D5
:107114000024002AFBD04FF010221521C2F80012DF
:10712400D3F80024002AFBD04FF010231522C3F813
:107134000422154BD3F80024002AFBD00022C3F804
:107144000425D3F80024002AFBD0BFF34F8F0A494B
:107154000E4BCA6802F4E0621343CB60BFF34F8F57
:1071640000BFFDE70A4B0B4A1A6008BD003001401E
:1071740000C007400DF0ADBA00ED00E00050004043
:1071840000C000400010004000E001400400FA0587
:10719400582200200090D0032DE9F84F2F4F304E95
:1071A4004FF000082F4B1B785FFA88F5AB4201D8EB
:1071B400BDE8F88FD7F8009019F835000124A0F144
:1071C4002002C0F1200304FA02F224FA03F3134369
:1071D400D6E9001204FA00FC01EA0C0B02EA030EE1
:1071E4005BEA0E0E09EBC50A35D021EA0C0122EA4E
:1071F4000303C6E9001302F053FD024619F83500F3
:10720400194DA0F12003C0F1200124FA01F104FA80
:1072140003F30B43D5E900C1C0F120050B40A0F1F5
:10722400200122FA05F5844002FA01F1294304EA17
:107234000C0402FA00F58B4208BFAC420BD1DAF819
:10724400043043B19AF801104C1E614261418D1A19
:1072540069426941984708F10108A3E7982800208A
:10726400902800206028002088280020F8B50746D0
:107274001E4800F08FFBB8BB01251D4EA7F120046A
:10728400C7F1200325FA03F305FA04F41C43D6E9F5
:107294000023BD4002EA050003EA040101431DD1B5
:1072A400384602F0FDFC134BD3E9001288B12943A0
:1072B4002243C3E90012D6E900232A432343C6E943
:1072C40000230D4B094819680022BDE8F84000F07E
:1072D40019BB21EA050122EA0402EAE722EA0502CF
:1072E40023EA0403C6E90023F8BD00BF6828002090
:1072F400902800208828002064280020042A2DE9F2
:10730400F34105460C4616463BD902F001FCE8B1B0
:107314001D4B1E491D601E4BDFF888801C701D4BE1
:1073240000221E600023C1E900231B49C1E9002398
:10733400013CE4B200260327FF2C0ED1174A18485B
:10734400002102B0BDE8F04100F0CABA02F0AEFB81
:107354000028DDD002B0BDE8F08105EBC40315F8C8
:1073640034009B788DF80660424601A98DF80470BC
:107374008DF8053002F0D6FB013CE4B20028DBD0E6
:10738400E8E70720E6E700BF9828002088280020C7
:107394006028002064280020902800209D710200AD
:1073A400C40103007172020070B5084D084E002438
:1073B4002B789C4201D3002070BD3368012113F85F
:1073C400340002F027FC0134F2E700BF60280020FB
:1073D400982800201FB50021039001AA44F201005F
:1073E400CDE9011100F004F805B05DF804FB0000DC
:1073F40038B572B6FFF7A4FBFFF7ECF90028FBD110
:10740400104B114C114D1249E41AE408240444F0C1
:107414000100FFF741FBD5F8F030DB0700D500BED3
:107424000C4944F00200FFF737FBBFF34F8FEA68C3
:10743400094B02F4E0621343EB60BFF34F8F00BFCC
:10744400FDE700BF80FF0200A8FF020000ED00E09E
:10745400C8010300D40103000400FA05094B5A785B
:1074640099780132D2B2914208BF00221978914230
:107474001FBF02705878182202FB003014BF04307A
:10748400002070479C28002073B5054600240DF1A8
:1074940007000E468DF8074000F08CFA0DF1060047
:1074A400FFF7DCFF90B10670094B9DF8062045609C
:1074B4005A709DF8070000F0A1FA24B9054B4FF467
:1074C4008012C3F80021204602B070BD0424F0E706
:1074D4009C28002000E100E0024B4FF43C6043F0A4
:1074E40001031847F001030038B50C4B0C4C4FF462
:1074F4000032C3F8802001254FF48033C4F84833A8
:10750400C4F808336560FFF7E7FF064BA560002465
:107514001C60FFF7E1FF044B1C7038BD00E100E084
:1075240000100140B8290020A9290020F8B51F4BFC
:107534001F491B680025C1F84051C1F84451C1F8E6
:107544004851C1F84C51C1F80051C1F804514BB332
:10755400D1F8044517490968641A24F07F442F467A
:107564001A68A24209D8A41A15441A7CDE691AB111
:10757400D3E905201F749047AEB90F4A0F4B117819
:107584001B788B4205D10133DBB2022B08BF0023E9
:10759400137012780A4B43F822500A4B4FF48012AE
:1075A400C3F80021F8BD3346DAE700BFBC29002048
:1075B40000100140B8290020B5290020B42900207A
:1075C400AC29002000E100E02DE9F04FA14AA249D6
:1075D40013780978A14D994285B03CD00133DBB2D0
:1075E400022B08BF002313709D4912789D4B0F682E
:1075F40053F822003B1823F07F4300220B602B68D2
:1076040016461446944613B942B12B6006E0196835
:1076140081420ED902B12B60091A196001272B6827
:10762400DFF848A201934FF00008BEB9DFF844B276
:1076340060E0401A0C44D968D3F81CE0C3F800C0D9
:1076440031B13A1922F07F42C3E90121DE611E46BD
:1076540073460122D7E700263746E0E73446F66949
:107664007F4B60681B68DFF810C2A168C21A22F061
:107674007F42624500F2A6800A44226001222274FD
:107684002A680023C4E90133E361002A40F0A3809F
:107694002C60CAE79BF802105A1CD2B291428BF8B4
:1076A400002004BF00228BF80020182202FB03B341
:1076B4002A6819799C68022975D003297FD0012989
:1076C40018D1207CB0B9D3E90312A2605A69E260F0
:1076D4009A69654BA2611A78002A18BF0146616055
:1076E400BEE78C4200F094808946C9690029F8D12C
:1076F400002323749BF800309BF801209A42C9D1DF
:107704002B68B8F1000F04D1019A9A4201D1002FDD
:1077140043D0002B79D0D3F800A0544D504BD5F86A
:1077240004751C68DFF854813E1B98F8003026F07D
:107734007F4603369BB94FF48033C5F84433C5F80C
:1077440004334B4B4FF400324FF00109C3F880214E
:107754001A60C5F80090FFF7BFFE88F80090B245A4
:107764002CBF5444A41924F07F44C5F84045D5F8EF
:107774000435DB1B23F07F43E41B033324F07F44F5
:10778400A3420AD9D5F80435C5F84035FFF7A4FE5D
:10779400374B4FF40032C3F80021334B00221A70E8
:1077A40005B0BDE8F08F114691469FE71174D26988
:1077B4000123002AFAD1002B9CD02A609AE70023E7
:1077C4001946F6E71B1A23F07F438B4234BFCB1ACA
:1077D4000023236052E721681368994213D85B1A87
:1077E4001360E26154E7091AD8691A4638B10346AE
:1077F40018688842F7D3401A186018461346216067
:10780400E061DC6111E71346F2E7FFF76DFEC4E7C0
:107814004C4511D1D3692B6073B9DFF844E00120E2
:10782400CDE90212CAF80800CEF800300E4B1870E9
:10783400FFF752FEDDE902120B68C969C9F81C1092
:1078440011B1086803440B602B68934218BF4FF0D2
:1078540001084DE7B4290020B5290020BC290020E7
:10786400B8290020AC290020A829002000100140DC
:1078740000E100E09C280020FEFF7F00A9290020F1
:1078840008B5FFF731FE104B00200B2218809A70C8
:107894000E4B18600E4B18700E4B18700E4B4FF4B5
:1078A4008012C021C3F8802183F814131A6002F1F6
:1078B4008042A2F56F22C2F8080583F81113074B22
:1078C400D2F804251A6008BD9C280020BC29002099
:1078D400B4290020B529002000E100E0B8290020E7
:1078E400074B9B784BB132B128B10368187C20B99F
:1078F40059745A617047072070470820704700BFC9
:107904009C2800202DE9F743DFF8848098F80230A2
:1079140005460E461746ABB3A0B3042930D94369D4
:1079240083B3437C0024012B0DF107000CBF89466F
:10793400A1468DF8074000F03DF80DF10600FFF771
:107944008DFDD8B1012303700F4B4560D3F8043586
:10795400C0E90497C0E902369DF8063088F8013082
:107964009DF8070000F04AF824B9084B4FF4801240
:10797400C3F80021204603B0BDE8F0830424EFE7F8
:107984000724F7E70824F5E70010014000E100E0D0
:107994009C280020064A92783AB130B1426922B15B
:1079A400002202740221FFF76FBD0820704700BF58
:1079B4009C28002070B5EFF3108672B60C4A9468C8
:1079C40001239CB993600B4B0B4DD3F880102940D5
:1079D4001160C3F88050D3F8841051604FF0FF3227
:1079E400C3F88420047006B962B670BD0370FAE768
:1079F400C029002000E100E0FC06FFBD084B9A68A6
:107A040010B55AB150B9EFF3108172B6054A1C682B
:107A140014605C685460986001B962B610BD00BF20
:107A2400C029002000E100E070B5064D06460024A0
:107A340055F8043B0BB1304698470134042CF7D178
:107A440070BD00BFD82900204388033300EB8303B3
:107A5400994209D382884FF6FF739A4206D0008870
:107A6400B0FA80F040097047022070470120704747
:107A7400033080B240F2FD33984230B51FD8124B28
:107A84001A783AB91C895D892C440444A4B2B4F52B
:107A9400806F0AD31A7DA2B99A8BDC8B22440244EC
:107AA40092B2B2F5806F0CD201220A8014461422DD
:107AB40002FB04335A8910445881002030BD092048
:107AC400FCE70720FAE700BF0C2A00200B4A0C4908
:107AD4005388142000FB0311CB6833B90420496890
:107AE40010700122074801F0AFBA0749052313704B
:107AF40002238B80012209680023F3E7F029002088
:107B04000C2A002028220020D42A002007B50023B4
:107B140005490093054A09680548082301F0FAF964
:107B240003B05DF804FB00BFD42A00200402030064
:107B34002822002007B5002301460093034A044885
:107B4400082301F0E7F903B05DF804FBFC0103002E
:107B54002822002013B500230C4600930146084A4E
:107B64000848042301F0D6F938B9074B142101FB66
:107B7400043101230B7402B010BD0E20FBE700BFDB
:107B8400F8010300282200200C2A002037B50A48F7
:107B94000A4B42689C88196853880325033305708F
:107BA4009BB2002000909B0001EB8401044801F08B
:107BB400B1F903B030BD00BFF0290020D42A002061
:107BC4002822002010B50146044800F01BFE1C22A8
:107BD4000446002108F039F9204610BDC02A0020CF
:107BE40068B10268084B9A4209D14068074B984231
:107BF40007D00133984214BF0320012070470320AB
:107C040070470020704700BFDEC0ADDEFE011EF1EC
:107C14002DE9F0410D460223154F2B80164600F541
:107C2400805100F108044FF001088C420ED2236801
:107C340001330BD02046FFF707FF48B10EB186F899
:107C44000080022809D14FF480632B80BDE8F081C5
:107C5400A3683A68934200D93B602B886288033357
:107C640013442B806388033304EB8304DDE700BFF4
:107C7400042A002038B5144B14220D4602FB0030B0
:107C84002B68446804F58051A3B15C88033403EB8A
:107C940084048C4215D22368013312D02046FFF7A6
:107CA400D3FE012808D002280BD00028F1D12C6083
:107CB400012038BD0834ECE76388033304EB830404
:107CC400E7E70020F5E700BF0C2A0020426873B5FF
:107CD40004460D4662B3234BD9688A4228D31B69F4
:107CE4009A4225D812F0030322D11F490089098939
:107CF40088421DD120689168884219D11B48416887
:107D04008A4203D901F580518A420DD381698A429E
:107D14000CD901F580518A4208D201222A80B3FA93
:107D240083F0400902B070BD1A46F7E70A23F6E76C
:107D340000262E800196288801A9FFF79BFF30B901
:107D44002B8801339BB2012B2B80F3D9EAE7019BEB
:107D5400226899689142EED16360034B1B892381A9
:107D6400E0E700BF28220020F02900200C2A002090
:107D74002DE9F8431C461C4B1B7806460F46154656
:107D84006BB372B36CB3DFF868804FF01409A38847
:107D9400012B01D90A2020E009FB03F318F8033072
:107DA4002BB9A0882146FFF765FF20B92060A3887E
:107DB4000133A380EBE723681EB19988328891428E
:107DC400EFD11FB119883A889142EAD19A68C5E97E
:107DD4000023064B1B892B810020BDE8F883022079
:107DE400FBE70520F9E700BFE8290020F02900207F
:107DF4000C2A002008B5074B5888191DFFF73AFFD5
:107E040018B1BDE80840FFF7C1BEBDE80840FFF760
:107E14005DBE00BFF02900202DE9F0479F4FDFF839
:107E2400A08288B006463B6823B99D48414600F0CD
:107E340023FD38603D6829784B1E052B07D8DFE801
:107E440013F01F0077007700070107015B010F247F
:107E54001422002103A807F0F8FF41F61D539C42A9
:107E640008BF00243B6804941A78023A042A00F2FA
:107E7400F981DFE812F0DA01E601080210021702C4
:107E840026B1884B00225A600124E1E72B79032BA9
:107E94001CD8DFE803F014022934834A1378022B38
:107EA40019D0137D022B4FF0010316D114214B433B
:107EB400D1180020D0544868FFF73CFE03E00123AA
:107EC4002B71FFF723FE002800F0BD80754B0022C4
:107ED4005A600E24BCE70023E8E7724A13700023BB
:107EE400536041F61D54B3E77049714800230222E0
:107EF4002B718A800968012201F0A6F8E3E76B4C34
:107F040000262E712068FFF715FE6A4BDFF898C132
:107F14005B882568142253430CEB03020CF80360BE
:107F240051685560A588158102222160A280CAE7A4
:107F3400B5F814A0AA7DDFF87091AEB1022AEB88DF
:107F440006D9142101FB0A91DA1C088902440A812A
:107F5400142202FB0A99C3F57F43B9F80A20FD33C2
:107F64001344A9F80A308FE7142303FB0A931889F2
:107F74005C6804EB8004062A68D8DFE802F0274D29
:107F840035431D59040041F61D54AA7DEB88022A8D
:107F940006D9142101FB0A91DA1C088902440A81DA
:107FA400142202FB0A99C3F57F43B9F80A20FD3372
:107FB4001344A9F80A304BE73F4840490023436083
:107FC400AB690360FFF782FE002859D00223AB752A
:107FD400002300930423EA182146354800F09AFF51
:107FE400002830D00E24D0E72B69002B14BF0323C4
:107FF4000123AB750023009305F10C02042304F163
:108004000801EAE70123AB750022EB8800922A6994
:108014009B0004F10C01E0E703290CBF05230623B0
:10802400AB7500230093042305F10802E118D4E79B
:108034000623AB75214B19881F4B5868FFF78AFD3F
:1080440004460028A1D108B0BDE8F0870F249CE7BE
:10805400002E7FF419AF2B79012B33D0022B3FF480
:1080640040AF002B7FF4F3AE02232B710DF10A0114
:10807400EB68039303A8CDE90466FFF727FE08B96C
:108084000A24E5E60498BDF80A108388EB80038887
:108094002B81FFF75FFD044627E000BF082A00207C
:1080A400C02A0020E82900200C2A0020D42A00201D
:1080B40028220020F0290020CC290020E02A0020DA
:1080C400002A0020DFF8F89103AA4B463146A81D88
:1080D400FFF74EFE044660B9B9F804100498FFF7A0
:1080E40039FD04460A2C3FF4FCAE002C7FF4B0AEFC
:1080F400A9E7C9E90066F5E7002E7FF4C5AE6B4B2E
:108104001A7BBAB11E731A78013A062A3FF69FAE5B
:1081140001A151F822F000BFC3810200E9810200ED
:10812400078202000D820200537E020013820200C5
:10813400258202001A78072AE5D801A151F822F015
:10814400658102000B8102000B8102008B81020019
:108154009F810200BF810200BF810200878102006B
:108164001A89534901321A8100225A801A730A78F3
:10817400B2FA82F252099A720A7DB2FA82F2520972
:10818400DA72012207E04B4958688A884088033232
:1081940002448A8002221A70B5E75C88444A454941
:1081A400142505FB042208685468506088881081EF
:1081B40002228A800C600622EDE70722EBE79A7A16
:1081C40032B9DA7A8AB900221A705A805A6088E67B
:1081D400374900229A72CA68002AF2D1097C002920
:1081E400EFD05A80FFF706FE55E70022DA72304AD4
:1081F400116A0029E7D192F82420002AE3D0012251
:10820400EFE7FFF7C3FC46E7FFF760FC43E75A8854
:10821400274B142101FB02335868FFF78BFC3AE724
:1082240000225A60FFF772FC35E701228DF80C201A
:108234001A89ADF818209A88DB68ADF81A200593DE
:1082440010E002228DF80C201A89ADF818209A88C3
:10825400ADF81A20DA689B7D05929A1F5342534168
:108264008DF81C3003A8FFF7DFFB002641461248B7
:108274003E6000F02CFB1148012100F0E2FB0028D5
:108284007FF4D1ADDFE603228DF80C20DA88ADF857
:1082940018201A89D0E704228DF80C20DB88ADF869
:1082A4001830DFE705238DF80C30DBE7F0290020D8
:1082B4000C2A0020D42A0020C02A0020D02A002022
:1082C400E42A00204068FFF7A7BD000008B5054870
:1082D400012100F09EFB18B9BDE80840FFF79CBDE2
:1082E40008BD00BFD02A00202DE9F3419846354B44
:1082F4001B7806460D46002B5BD000295BD009880D
:108304004FF6FF73994258D06B88002B55D06B6899
:108314009B0754D14AB92F890DF102013846FFF762
:10832400A7FB30B102B0BDE8F08113885788ADF8DF
:10833400023001A8FFF746FC044658B9BDF80220F4
:10834400214B142101FB023358890338C01B588187
:108354000820E7E780F8008000238375BDF8023029
:1083640083826B6803610121184800F05EFB2B884F
:108374002381B8F1030F6B88A38004BF0423A37582
:108384004FF0000508BF3368E06008BFA3611048E0
:10839400E780658101A900F05FFA36B1E3683360D4
:1083A4000C4B75601B89B5723381FFF78FFF00207A
:1083B400B8E70220B6E70520B4E70420B2E70320BB
:1083C400B0E700BFE82900200C2A0020042A00207E
:1083D400C02A0020F029002008B503460748026897
:1083E400042A08D00168064A42F82130012100F02D
:1083F4001CFB002008BD0C20FCE700BFDC2A002089
:10840400D82900202DE9F04F89B01422002103A8B7
:1084140007F01BFD724B1B7803F0FF0201923BB186
:1084240003A8FFF701FB0026304609B0BDE8F08F32
:108434006B4B181D00F011FB0028F4D14FF01023F2
:108444004FF080525B6911695269DFF8ACB1581C76
:1084540008BF02FB01F3CBF810306249A3F5405387
:1084640000225846CBF80C3000F022FD06460028C6
:10847400DAD11C235C495D48DFF880A1DFF88081F4
:108484008C2200F08AF90323B14635460093344622
:10849400DBF80C704F443846FFF7A2FB012839463D
:1084A4004AD0032815D0002835D11421614308EBA4
:1084B400010208F80100576001F11002083142443A
:1084C40041443846FFF7A4FB45F002050134A4B249
:1084D40021E007F580520868013074D104319142DB
:1084E400F9D1DAF800203AB902220123CAF800705F
:1084F400AAF8042001930CE014226243022008EB42
:10850400020108F802003A4A4F605480013408819D
:10851400A4B245F0010509F58059B9F5405FB7D11A
:10852400009B012B98BF0025EDB2022D02D0062D31
:1085340020D045BB0B2677E7019B63B1142262432D
:1085440008EB0201022008F802000134DAF80020E6
:108554004A600881A4B200222649CAF8007038464D
:10856400FFF756FBBAF80420022A0CBF04220822A3
:108574001543D0E71A4A0123137003A8002353605C
:10858400FFF752FA50E702A8FFF71CFBC8B101231A
:10859400013D03700A2D09D8DFE805F00608060836
:1085A400070807080F110F000023037102A90F48E1
:1085B40000F052F9FFF78AFE36E70323F5E70223BA
:1085C400F3E7082630E7009B5A1E93B21422624355
:1085D40008EB020100934F60032108F8021075E7CD
:1085E400E8290020F8030300342A0020C02A0020D0
:1085F400F0290020D82A002028220020D42A002094
:108604000C2A002073B50D460446C8B1C1B10DF162
:108614000601FFF75BFBA8B1BDF806300A4866689F
:10862400142202FB030001210C3000F0FEF9636800
:108634002E600C336B600123A372002002B070BD66
:108644000520FBE70A20F9E70C2A002013B50446AD
:10865400A8B10DF10601FFF739FB90B1BDF8062072
:108664000A4B142101FB0233DA6862B1A27A52B1D7
:10867400DA680020013ADA60A07202B010BD052069
:10868400FBE70A20F9E70620F7E700BF0C2A0020E1
:1086940002230022FFF728BE18B103230022FFF7AC
:1086A40023BE052070470000104B1B7813B5044609
:1086B400ABB14FF6FF73984213D001A8FFF782FACB
:1086C40088B10523037001230371C48001A90848FC
:1086D40000F0C2F8FFF7FAFD002002B010BD02203E
:1086E400FBE70420F9E70820F7E700BFE8290020AA
:1086F400C02A00200E4B1B7807B5A3B101A8FFF7D1
:1087040061FA90B10623037001A90A4800F0A4F8A5
:10871400094B1A780AB101221A73FFF7D7FD00201A
:1087240003B05DF804FB0220FAE70820F8E700BF75
:10873400E8290020C02A0020F029002007B5ADF860
:108744000600ADF804100DF1060001A9FFF710FBB7
:1087540003B05DF804FB07B51346ADF806000A46FE
:1087640000200DF10601FFF703FB03B05DF804FBE5
:1087740007B51346ADF806000A460DF106000021C0
:10878400FFF7F6FA03B05DF804FB20B119B10368F2
:108794000B60002070470520704710B561B1B2FB33
:1087A400F3F403FB1424A4B244B9C0E900148460B4
:1087B4008281C381204610BD0E20FCE70920FAE720
:1087C40082B050E8022FC188B2EB324F4FF0000361
:1087D40017BF92B241EA014142EA014104E0426812
:1087E400B2EB324F08BF012340E80212002AE8D15D
:1087F4008DF807309DF80730002B0CBF11200020A6
:1088040002B0704737B550E8013F9DB2C489254492
:108814008489A54228BF2D1B0489A54202BFBFF34A
:108824002F8F002207E0C5EA030540E80154002C1D
:10883400E9D14FF001028DF803200193019A0A60F7
:108844009DF8031001F0FF0321B1006810FA82F0D3
:1088540003B030BD1846FBE70A884B889A4209D119
:1088640050E8012FC2EA024240E80123002BF7D16D
:10887400012070470020704737B550E8023F1FFAC7
:10888400A3F5C488A54202BFBFF32F8F00220DE0D9
:10889400C48925448489A54228BF2D1BC3EA054504
:1088A40040E80254002CE8D14FF001028DF8032077
:1088B4000193019A0A609DF8031001F0FF0321B1AE
:1088C400006800EB124003B030BD1846FBE70A888D
:1088D4004B889A4209D150E8022FC2EA224240E86A
:1088E4000223002BF7D1012070470020704701F0CC
:1088F4001F024B090121914000EB830000F065B891
:108904004B0910B501F01F040121A14000EB8300C5
:1089140000F04FF8E04000F0010010BD01F01F032B
:1089240001229A404B0900EB8300D14300F065B863
:108934004B0901F01F0150F82300C84000F001006A
:1089440070472DE9F0474F1E7F0980460E460137D8
:10895400002558F8254008EB8509E44394FAA4F46B
:10896400B4FA84F44FEA451A202C06D10135AF42FB
:10897400EFD834462046BDE8F0875444A642F5D9E2
:1089840021464046FFF7BCFF0028F3D0D9F8004049
:10899400E44394FAA4F4B4FA84F4E5E710B5034686
:1089A40053E8000F0A4643E8002494F0000FF7D17F
:1089B40010BD10B5034653E8000F40EA010243E836
:1089C400002494F0000FF6D110BD10B5034653E80F
:1089D400002F42EA010043E8000494F0000FF6D1AE
:1089E40010BD10B5034653E8000F00EA010243E846
:1089F400002494F0000FF6D110BD10B5034653E8DF
:108A0400002F02EA010043E8000494F0000FF6D1BD
:108A140010BD10B5034653E8000F00EB010243E814
:108A2400002494F0000FF6D110BD10B5034653E8AE
:108A3400002F02EB010043E8000494F0000FF6D18C
:108A440010BD10B5034653E8002FA2EB010043E824
:108A5400000494F0000FF6D110BD0121FFF7A9BF67
:108A64000121FFF7B2BF0021FFF7BBBF10B590B1E2
:108A7400D0E9012301689B1ADBB20A60013BDBB237
:108A8400FF2B026802D10020107110BD11684C1C2C
:108A940014600B70F2E70E20F7E737B505460024A3
:108AA4000DF107008DF80740FEF784FF2A686B6814
:108AB400116899420ED9481E106011F8013CEC6807
:108AC400298A01FB0344AB6811791B1ADBB2994272
:108AD40038BF13719DF80700FEF790FF204603B0DE
:108AE40030BD37B5054600230DF107000C468DF85F
:108AF4000730FEF75FFF2A681368591C1160E968A4
:108B0400641A298AB4FBF1F41C709DF80700FEF77F
:108B140075FF03B030BD826810B504462AB14369BD
:108B24000168006998470023A36010BD0EB403B523
:108B3400039921B104AB01AA019300F06FF802B0CC
:108B44005DF804EB03B07047826830B40468551CC8
:108B54008560A154D0E901329A4202D330BCFFF7B8
:108B6400DABF30BC704700002DE9F84F9846DDE9C4
:108B74000A43154682460F460A464FF00109AA42A7
:108B84000FD2C14538BFC14613F0010B01D16CB9F6
:108B940000240126B8F1010F1BD908F1FF386E43F8
:108BA400F8E709F10109B2FBF5F2E8E79B070ED5F6
:108BB400B8F1000F0CBF30262026A145E9D2013CB4
:108BC40031465046FFF7C0FF002CF6D1E0E72026DF
:108BD400F3E7B7FBF6F39D42E1D9DFF83C80B7FB3E
:108BE400F6F3504618F8031006FB1377FFF7ACFFB3
:108BF4003346AB42B6FBF5F6F1D2BBF1000F02D01F
:108C04000CB1A14501D3BDE8F88F20215046013CA9
:108C1400FFF79AFFF4E700BF0C0203002DE9F74FBA
:108C2400054617468846002900F03E8118F8011BC6
:108C340049B92B7B002B00F03781284603B0BDE8EF
:108C4400F04FFFF768BF252940F0B780002698F859
:108C540000302D2B424608F1010823D0302B24D0BC
:108C64002B2B25D000242A2B02F1010123D13B68B0
:108C74001A1D1B683A601C440A4613782E2B26D111
:108C840001324FF0000A104610F8011BA1F1300C1C
:108C9400BCF1090F1DD80A2303FB0A13A3F1300A00
:108CA4000246F0E746F00106D1E746F00206CEE7B9
:108CB40046F00406CBE711F8013CA3F13000092883
:108CC400DBD80A2202FB0434303C0A46CBE74FF0DF
:108CD400000A12F8011B01F0FB0068289046F8D046
:108CE400782909D86F290CD8632962D022D825297C
:108CF40063D0582900F0888098F80030002B95D173
:108D040097E770390829F7D801A353F821F000BF79
:108D1400878E0200FD8C0200FD8C02001D8E020075
:108D2400FD8C0200FB8D0200FD8C0200FD8C020014
:108D34000D8E0200642901D06929DDD13A68D2F888
:108D44000090111D89EAE9723960A2EBE9724FF0D3
:108D5400010B092A35DCD34538BFD3462CB1B9F110
:108D6400000F01DB720700D5013CB30702D5BAF14D
:108D7400000F03D0F00701D44CBB0024B9F1000F5D
:108D84002DDAC9F100092D212846FFF7DDFE06F092
:108D94000302022A04D1BAF1000F01D11CBB002442
:108DA400CDE9004653460A2249462846FFF7DCFE31
:108DB400A2E73B681A1D19783A602846FFF7C4FEFB
:108DC4009AE70A230BF1010BB2FBF3F2C1E7A345C7
:108DD400D4D220212846013CFFF7B6FECCE7710728
:108DE400D5D52B21D0E7A345DAD230212846013C42
:108DF400FFF7AAFED2E73968CDE900460A1D3A60BA
:108E040053460A220968D0E739680A1D3A60CDE959
:108E1400004653461022F5E73B681A1D3A6016F0E7
:108E24000106D3F8009024D1B9F1000F03D04846CD
:108E340007F03EF80646B4421DD809F1FF3919F887
:108E4400011F00293FF458AF2846FFF77DFEF6E7DF
:108E540028460136FFF778FE19F806100029F7D1E5
:108E6400A642BFF449AF20212846013CFFF76CFE1F
:108E7400F6E70026F0E720212846013CFFF764FED0
:108E8400D9E73B681A1D3A60302128461C68FFF771
:108E94005BFE78212846FFF757FE00220823CDE920
:108EA40000322146102280E703B0BDE8F08F00BFF6
:108EB40013B50B46114680B9104B1148114AC01A1C
:108EC4000E23C0080093104B0004104940F0010029
:108ED400FDF7F9FD0E2002B010BD4BB9074B084851
:108EE4000B4AC01AC0080E2300930004064BECE79B
:108EF40003601B6802B0BDE81040184780FF020001
:108F0400C0FF02001C020300D80303002102030077
:108F1400500203002DE9F743DDF8288088B93E4B61
:108F24003E483F4AC01AC0080E243E4B0094000439
:108F34003D4940F00100FDF7C6FD204603B0BDE801
:108F4400F0834AB9344B3548384AC01AC0080E2455
:108F5400344B00940004EBE7D0F800E0BEF1000FBE
:108F640009D12D4B2D48324AC01AC00808242D4B74
:108F740000940004DCE74BB9274B28482D4AC01A5B
:108F8400C0080924274B00940004D1E74568D5F8AC
:108F94000490B3FBF9F509FB15354DB11E4B1F4881
:108FA400254AC01AC00809241E4B00940004BFE7D8
:108FB4008D0709D0184B1948204AC01AC00810243C
:108FC400184B00940004B3E712F0030F09D0124BBE
:108FD40012481B4AC01AC0081024124B0094000403
:108FE400A6E7C568A9420DD34D1EEC180569AC422D
:108FF40008D8CDF82880DEF80C40A44603B0BDE8BC
:10900400F0436047044B05480E4AC01AC0081024B8
:10901400044B009400048BE780FF0200C0FF0200B1
:109024001C020300C5030300210203009E02030087
:109034004A0203005D020300A4020300CE020300FF
:10904400E602030009030300F7B580B92A4B2B4855
:109054002B4AC01AC0080E242A4B009400042A4943
:1090640040F00100FDF72FFD204603B0F0BDD0F81D
:1090740000C0BCF1000F09D11F4B2048234AC01A7D
:10908400C00808241F4B00940004E8E74AB91A4BAF
:109094001A481F4AC01AC00809241A4B0094000435
:1090A400DDE74568D5F800E00EF1FF350D4209D043
:1090B400114B1248174AC01AC0081024114B0094CF
:1090C4000004CCE7C568A9420CD34D1E0EFB025424
:1090D4000569AC4206D8DCF81040A44603B0BDE8EC
:1090E400F0406047044B05480B4AC01AC0081024DE
:1090F400044B00940004B2E780FF0200C0FF0200AA
:109104001C020300B2030300210203004A0203000D
:109114005D020300300303005603030029DF704798
:1091240028DF704770B503689E6886B004460D4614
:109134006EB114220021684606F087FEA3680593E9
:10914400237901952BB1012B0DD06846B04706B0A9
:1091540070BD01238DF8003023690293E368039303
:1091640063690493F1E702238DF80030E3681B037D
:109174000293F5E70846704700207047024B187ABF
:10918400003818BF01207047882B0020034B187A41
:109194000122B0FA80F05A7440097047882B0020ED
:1091A40008B510461A4606F027FE002008BD000048
:1091B40008B514220021044806F047FE0348FFF7CF
:1091C400FFFA002008BD00BF882B0020782B002068
:1091D40010B5094C094B43602046FFF73EFC40B9EB
:1091E40006F0B2FB064920741C2306488C22FFF7C4
:1091F400D4FA002010BD00BF882B0020EC0303002C
:10920400EC2A0020782B002038B5234D234C2B7AF0
:109214003BB923492348FFF72FFB206008B9686056
:1092240038BD022324682B72237973B1012B24D017
:1092340020460321FFF776FF00232B726B60184949
:109244001848BDE83840FFF742BBD4E90523D21AD9
:10925400B2F5805FD4E9031028BF4FF4805292081E
:10926400012A38BF012219441844FFF757FF50B1AF
:109274001128DDD101232B72D2E7D4E9030318446A
:10928400FFF74EFFF3E72B7C002BC9D1BDE8384034
:10929400022000F009B800BF882B0020A02B00207A
:1092A4009C2B0020782B002038B5234C237A002BEC
:1092B40041D0022B09D1032830D0204B00221B6857
:1092C400E2601A793AB1012A22D0637C7BBBBDE803
:1092D4003840FFF799BFD3E905128D1AB5F5805FC1
:1092E40094BF521902F580529A619142EDD102283D
:1092F4004FF0000308BF19462372104B18BF0D210D
:109304001868FFF70FFF0E490E48FFF7E0FADCE795
:109314001A6901321A615B699A42E7E7E36801332B
:10932400082B01D8E360D0E70023E360DFE7BDE862
:10933400384006F0F9BA38BD882B0020A02B002055
:109344009C2B0020782B0020831E012B01D8FFF7D3
:10935400ABBF704700F0FD03012B08D1044B002282
:109364005A74421E504250411874FFF74DBF704763
:10937400882B002010B5064C201DFFF76EFB28B982
:10938400637C1BB9BDE81040FFF73EBF10BD00BFB2
:10939400882B00202DE9F34180460D46104801A991
:1093A40016461F46FFF72EFA0446B0B118220021D4
:1093B400043006F04AFD2D0B0123237101A908484E
:1093C400C4F80080A760E5606661FFF745FAFFF71F
:1093D400D1FF002002B0BDE8F0810420FAE700BF0D
:1093E400782B00202DE9F34180460F460F4801A950
:1093F40016461D46FFF706FA0446A8B118220021B6
:10940400043006F022FD089BA36001A9C4E90367A8
:109414000648C4F800806561FFF71EFAFFF7AAFF4B
:10942400002002B0BDE8F0810420FAE7782B002088
:109434002DE9F84FB0F806A04579D2F800B09DF8B0
:1094440028900AFB05F5043D88460BEB0301A9426D
:1094540003F1040488BFA5EB030BB4FBFAF607463B
:109464000AFB1644C2F800B04EB9AAEB04055D45E8
:1094740028BF5D46BBF1000F04D1BDE8F88F3F68FB
:10948400013EF1E7043408EB06003C442A46B9F1F6
:10949400000F0DD02146ABEB050B06F0ADFCDA4511
:1094A4002E443F6855464FF0000428BF5D46E1E76F
:1094B40001462046EFE7FFF7D9BAF8B546790146E9
:1094C400721E0546002393422D6803D30024A6424E
:1094D40002D8F8BD0133F6E70F682846FFF701FB11
:1094E40001343946F3E72DE9F843068ACD1C0746D3
:1094F400FFF7D3FA043E35440446B5FBF6F5F0B164
:109504004FF48073EDB28380C680013D07608146CD
:109514004FF00008A84512D23846FFF7BEFA0646B7
:1095240048B163790133637108F10108C9F8000097
:1095340007608146EEE72046FFF7BFFF344620462A
:10954400BDE8F88301210430FFF76FBA10B501219B
:1095540004460430FFF775FAC0B220B92046BDE8CE
:109564001040FFF7AABF10BD1FB50392002200925E
:1095740003AAFFF75DFF05B05DF804FB1FB5039276
:109584000122009203AAFFF753FF05B05DF804FB24
:1095940033DF704741DF70470D4A08B5002313706D
:1095A4000C4A1360BFF35F8F0B490C4800F0AFF80F
:1095B4000B4A0C480121FEF793F9024630B9BDE885
:1095C400084009484FF40041FEF79CB908BD00BFAC
:1095D400D02B0020D42B002028040300A42B00202F
:1095E400ED96020024040300B02B002007B50023ED
:1095F4000DF107008DF80730FEF7DCF9F1EE103AB3
:1096040023F09F03E1EE103ABFF35F8F0A4B402231
:10961400C3F884219DF80700FEF7F0F906F094F9E9
:1096240020B103B05DF804EBFFF7B4BF20BF40BF27
:1096340020BF03B05DF804FB00E100E070B5244DE9
:10964400044601212846FFF7A9F9BFF35F8F38B913
:10965400042C0AD01F4B1A781AB1BFF35F8F28600D
:1096640070BD1D4A147001221A701C4C1A4E636896
:10967400BBB9FDF765FAFDF7ADF80028FBD1164B31
:109684001B78023B012B15D8BFF34F8F1449154BA0
:10969400CA6802F4E0621343CB60BFF34F8F00BF8C
:1096A400FDE71B68307898470028D6D0204600F0A4
:1096B40038F8DCE706F048F908B1FFF769FF4FF026
:1096C40080430122C3F80025BFF34F8F20BFFDE77D
:1096D400D42B0020D02B0020AC2B0020A42B002066
:1096E40000ED00E00400FA05034B1B7813B10420DD
:1096F400FFF7A4BF704700BFD02B0020836800226F
:109704005A60C3E904229A60DA601A6070470B68F1
:109714004A684360934208BF0023016008BF436066
:109724007047436843B10268916852680B4493429E
:10973400436004BF002343607047000010B50D4927
:10974400A1F59472914201D800200FE08C1AE30F26
:1097540003EBE4035B1002EBC30452F8333083429F
:1097640005D802D204F10802ECE7606810BD214676
:10977400E8E700BF2C09030008B5FFF7DFFF024B41
:10978400002808BF184608BDEE07030038B5074C8B
:10979400051E04F1080318BF1C4623682BB11A6880
:1097A40022605B6828469847F7E738BDE02B002025
:1097B40020B9054B01225A70FFF7E8BF012802D1F6
:1097C400014A9070F8E77047D82B002020B9034B6A
:1097D40001225A70FFF7DABF704700BFD82B002070
:1097E40038B50B4C237883B90A486360A3602361BE
:1097F400E36000F0D5F8054606F0A6F808B900F0D5
:10980400DBF801232370284638BD8525FBE700BF1C
:10981400D82B0020B597020037B50B4C00230DF16F
:1098240007008DF80730FEF7C5F8E368013BE360F5
:10983400E56815B900F0D4F8A5709DF80700FEF7A7
:10984400DDF803B030BD00BFD82B0020012813B5CC
:1098540008D003281CD018B9114B0122C3F880206A
:1098640002B010BD0F4C00230DF107008DF8073036
:10987400FEF7A0F823780BB9FFF7B2FFE3689DF871
:1098840007000133E3600123A370FEF7B7F8E7E7AD
:1098940000F092F802B0BDE81040FFF7BDBF00BF72
:1098A40000E100E0D82B00201FB503788DF80030CC
:1098B40043680193037A8DF80830C368054A03931B
:1098C400054B684653F8213052F82110984705B0EB
:1098D4005DF804FBEC2B0020F02B00201FB503786F
:1098E4008DF800304368019383688DF80830C368AD
:1098F400054A0393054B684653F8213052F821106A
:10990400984705B05DF804FBEC2B0020F02B0020F9
:10991400F0B5194B90F800C091F81DE043F82C20E5
:10992400164B16460A6943F82C20154B03F80CE035
:109934000C4607460FCC89B06D460FC594E80F005E
:1099440085E80F00CDF810C0BEF1000F09D0002E3D
:109954000C4A694608BF3246381D00F081FD09B043
:10996400F0BD002E084A694608BF324607F10C00D4
:1099740000F06EFBF3E700BFF02B0020EC2B00207F
:10998400F42B0020AD980200E198020000F1804021
:10999400002382B0036003680193019B02B0704707
:1099A400044A137923B90121106091801846704745
:1099B40085207047F82B0020084B1A68D20706D47C
:1099C400C02283F800230122C3F880211A604FF0DB
:1099D40080430122C3F81825704700BF00E100E06E
:1099E4004FF080430122DA60D3F81824D203FBD469
:1099F400704700004FF0804110B5D1F8003163B1D9
:109A04004FF48070FFF7C2FF0D4B58790122C1F863
:109A1400082310B95A711B6898474FF08042D2F856
:109A2400043163B14FF48270FFF7B0FF0223C2F830
:109A34000833034BBDE810401B680120184710BDD4
:109A4400F82B002000F1804000F5C040002382B0D4
:109A5400036003680193019B02B07047800000F12A
:109A6400A040D0F8002722F44032C0F80027D0F8F4
:109A7400003743EA0141C0F800177047C2080123C8
:109A840000F0070003FA00F08B5C18438854704719
:109A9400054B4FF0FF32072843F8202084BFC0183D
:109AA40080F84820704700BF002C002038B5154DC1
:109AB40095F858401CBB2022FF2105F1300006F028
:109AC400C4F9E0B20134FFF7E3FF0C2CF9D10E4BDB
:109AD4000022C0216A6583F806134021C3F880116F
:109AE4004FF4BE701960FFF7ADFF084B4FF0004113
:109AF400C3F80413012385F85830104638BD0820F4
:109B0400FCE700BF002C002000E100E00060004002
:109B1400034B93F85800003818BF0120704700BF6A
:109B2400002C00202DE9F041DFF8E48008EB00036D
:109B3400054693F93030002B0F4664DA8B78C3F373
:109B44004003002B0BBF082400240C2108218C4265
:109B540002D10420BDE8F08158F8240001303DD141
:109B640008EB050166B248F8242081F830601BB97F
:109B740008EB040383F84850BB785A070ED4D9077E
:109B84002ED5AB0003F1A043D3F8002722F0020244
:109B9400C3F800271D492846FFF770FFBB783A78C1
:109BA40013F0020325D0A40004F1804404F5C0445A
:109BB4002D02D4F8103523F4473323F44073C4F84A
:109BC40010351204D4F8103505F4F85502F4403277
:109BD40015431D43C4F810550020BBE70134B6E714
:109BE4007A7805F5E0734FF0A041920041F8232004
:109BF400D0E7083E48FA86F696F8505045EA8212B5
:109C040086F85020E8E70820A4E700BF542C002081
:109C1400002C002038B5204C251895F93020072A4F
:109C240018DD083A44FA82F494F850309B09032B67
:109C34000BD14FF0A043D3F81015C14001F001013E
:109C44000231BDE83840FFF709BF012B0CBF0221E8
:109C54000321F6E7D3B2072B1DD8930003F1804309
:109C640003F5C043D3F8100540F00100C3F8100514
:109C740002F1400040B2800080B2FFF7E3FE51B130
:109C840095F9303054F823302BB1012303FA02F252
:109C9400024BC3F8042338BD002C002000600040B0
:109CA4004FF0A043D3F8103523FA00F000F0010080
:109CB400704700002DE9F04F87B00024584D0394FD
:109CC4004FF48072012102F1804303F5C04390B246
:109CD4001B68012B06D1D5F804330B4202D0FFF7E1
:109CE400B1FE0C430432B2F5907F4FEA4101EAD150
:109CF4004B4BD3F87C31012B0AD14FF4BE70FFF7E4
:109D0400A1FE4FF0A04344F00044D3F81035039370
:109D1400E3B2D3B1434F00250126344210D0AB0047
:109D240003F1804303F5C043D3F81005D3F81015AD
:109D340057F8253023B1C1F30141C0F304209847FB
:109D44000135082D4FEA4606E7D1002C61DA0022DE
:109D54004FF0FF33CDE90423DFF8C880DFF8C89063
:109D640000273E464FF0A04B19F9014B631C45D028
:109D7400C4F3C20318336B440122E5B204F03F007C
:109D840004F0070402FA04F413F8042C224235D038
:109D940008EB0002AD0992F9302058F822A0BAF17C
:109DA400000F09D1032D29D104A901930090FFF7D5
:109DB40065FEDDE9000301E0032DF5D000F5E07157
:109DC40013F80C3C5BF821102342C1F3014105D088
:109DD400022913D1032D0CD1294604E003290DD106
:109DE400032D06D1022100900136FFF737FE0098BB
:109DF400F6B2BAF1000F01D02946D0470137042F3B
:109E0400B2D136B14FF0A043039AD3F81035934240
:109E140002D107B0BDE8F08F0393049B05939DE73F
:109E240000600040002C0020502C0020014B1B68D7
:109E3400184700BF5C2C00200E4B984237B50C46E7
:109E440002D0002003B030BD00230DF107008DF8CF
:109E54000730FDF7AFFD084B1D7915B901221C60D1
:109E64001A719DF80700FDF7C9FD002DE9D01120F6
:109E7400E8E700BF002000405C2C0020034B984220
:109E840001BF034B00221A601A7170470020004082
:109E94005C2C00200023435082B043580193019B63
:109EA40002B070470A4610B54FF48E71FFF7F2FF07
:109EB400136A9168C95C136A01331362C0F81C15F4
:109EC40010BD8B690A4610B54FF4847123B9FFF7AE
:109ED400E1FFD0F8183510BDFFF7DCFF536AD168F5
:109EE400D0F81805C854536A01335362F3E70000ED
:109EF4001FB501238DF80030044BCDE90110D3E9DF
:109F040000126846904705B05DF804FB642C0020FD
:109F140030B54D4DD5F804339A0585B051D5D5F8F3
:109F24002431002B4DD04FF492712846FFF7B2FF35
:109F34004FF40173C5F80833444B93F829200AB948
:109F440001226A60404902228DF80020D1F8802461
:109F5400C1F8802403929A690292DA68019200227D
:109F6400C3E906226846D3E9001290473648D0F880
:109F74001C315BB1354A116A536999424DD292F84A
:109F84002830002B49D11146FFF78CFF2E48D0F81A
:109F94004431002B55D04FF4A271FFF77BFF2B4BBC
:109FA40093F829200AB1012202609A69002A48D054
:109FB400586AD96800229A6105B0BDE83040FFF7BD
:109FC40097BFD5F804335B07D0D5D5F80831002BFB
:109FD400CCD01E4C1C482146FFF773FF636AA2696C
:109FE4009A42C3D1E369E1684BB1A3612369E36099
:109FF4000023606AE3616362FFF77AFFB6E794F8CF
:10A0040029300BB901236B600F4B4FF40172C3F875
:10A0140008230023606AA361EEE74FF48E710A48B7
:10A02400FFF738FF51690029B0D0002302919168ED
:10A034008DF80030019153616846D2E900139847C6
:10A04400A4E705B030BD00BF00200040642C002010
:10A054002DE9F843594D90F804802C2303FB085351
:10A06400064693F82A300C469146002B40F0A28015
:10A0740053490068FFF7E0FE0746002840F09C8043
:10A0840022683068511C0BD04FF0A041012393404B
:10A09400C1F8083502F5E0734FF0030C41F823C012
:10A0A40061684B1C1FBF01F5E0734FF0A04C4FF0EB
:10A0B400000E4CF823E0A369C0F8243594F814C0CA
:10A0C400637DBCF1010F4CEA0303C0F86C35C0F8A2
:10A0D4001415C0F80C251DD1A268531C1FBF02F52E
:10A0E400E0734FF0A0414FF0000C41F823C0E36847
:10A0F400591C0BD04FF0A04C01219940CCF8081505
:10A1040003F5E0714FF0030E4CF821E0C0F8083578
:10A11400C0F810252C2202FB08F2AB18C3F80490F7
:10A124002369AB50B9F1000F31D04FF48E71227F07
:10A13400FFF7B0FE30684FF4A271FFF7ABFE33684F
:10A144002049C3F80413190B43F30733002BA8BFAA
:10A1540003F160404FEA5313BCBF01F00F041A48E7
:10A164004FEA4212A8BF00F561404FEA8303D2B21E
:10A1740003F16043B4BF025580F8002303F5614343
:10A1840001F01F0101228A40C3F880211A6033685C
:10A194000422C3F800252C2303FB08530022C3E93F
:10A1A400062283F829205A61012283F82A2038469E
:10A1B400BDE8F8830827FAE71127F8E7642C0020A4
:10A1C400159F02008000020014ED00E0F8B5057947
:10A1D40000682C4C0023C0F800352C2303FB0543F6
:10A1E4005B686BB1284BC0F8083340F30733C0F306
:10A1F40004315B0901228A402033244941F8232099
:10A20400D0F80C65D0F81415D0F80835D0F810251E
:10A214004FF0FF37BE42C0F8147518BF06F5E0765C
:10A22400C0F80C75C0F80875C0F810751EBF4FF063
:10A23400A0474FF0020C47F826C04E1C1FBF4FF03A
:10A24400A04601F5E071022746F82170511C1FBF9A
:10A254004FF0A04102F5E072022641F822605A1C38
:10A264001FBF03F5E0734FF0A042022142F8231010
:10A27400FFF704FE2C2303FB0544002384F82A3053
:10A284006360F8BD642C00208402020000E100E059
:10A294000279044B2C2101FB02335869003818BFA2
:10A2A40001207047642C00202DE9F84F06468946AA
:10A2B4009246FFF7EDFF044600283DD196F804804E
:10A2C4001F4F2C2508FB057B4FF48E71CBF8200023
:10A2D400CBF814A08BF82800CBF808903068FFF76F
:10A2E400D9FD3068012383605946FFF7DBFDDBF8B5
:10A2F40004305D4613BB30682A6A6B699A4211D3F5
:10A304003368D3F81C21002AFBD00122DA60002034
:10A314002C2303FB087700237B61BDE8F88F95F8B5
:10A3240028303BB9D0F81C31002BF8D05946FFF740
:10A33400B9FDE1E70F20EBE71120EEE72046ECE75B
:10A34400642C00200023435082B043580193019BA6
:10A3540002B070471FB501238DF80030054B8DF80E
:10A36400080001916846D3E90012904705B05DF8F2
:10A3740004FB00BF902C00207FB5374AD2F824613B
:10A38400002E47D010464FF49271FFF7DBFF0223F3
:10A394008DF80030D2F88034C2F880340393D2F8B8
:10A3A4003C358DF808302D4BDA6801920022C3E960
:10A3B40006226846D3E9001290472748D0F8443172
:10A3C4006BB14FF4A271FFF7BDFF244B9A6932B110
:10A3D40000229A61D0F83C05D968FFF7BBFF1E48FC
:10A3E400D0F82031A3B14FF49071FFF7ABFF1B4BB2
:10A3F4005A696AB1D0F84C158DF808100022996892
:10A404008DF8002001915A616846D3E90012904703
:10A4140004B070BDD2F81031002BCED04FF4887147
:10A424001046FFF78FFF0D4BD2F83C05996988421F
:10A43400C3D1DC69D96864B1D2F8005225F0200593
:10A44400C2F800521A699C61DA60DE61FFF782FF8C
:10A45400B3E79C61FAE700BF00200040902C002085
:10A464002DE9F8435D4E90F80480242303FB086330
:10A47400054693F820300C469146002B40F0AA8004
:10A4840057490068FFF7D8FC0746002840F0A4802D
:10A4940022682868511C0BD04FF0A041012393403F
:10A4A400C1F8083502F5E0734FF0030C41F823C0FE
:10A4B40061684B1C1FBF01F5E0734FF0A04C4FF0D7
:10A4C400000E4CF823E0A369C0F8243594F814C0B6
:10A4D400637DBCF1010F4CEA0303C0F86C35C0F88E
:10A4E4000C25C0F814151DD1A268531C1FBF02F51A
:10A4F400E0734FF0A0414FF0000C41F823C0E36833
:10A50400591C0BD04FF0A04C01219940CCF80815F0
:10A5140003F5E0714FF0030E4CF821E0C0F8083564
:10A52400C0F81025242202FB08F2B318C3F80490E3
:10A534002369B350B9F1000F3BD04FF48871227FE7
:10A54400FFF700FF28684FF49071FFF7FBFE2868BF
:10A554004FF49271FFF7F6FE28684FF4A271FFF7EB
:10A56400F1FE2B681F49C3F80413190B43F3073397
:10A57400002BA8BF03F160404FEA5313BCBF01F0A6
:10A584000F0419484FEA4212A8BF00F561404FEA90
:10A594008303D2B203F16043B4BF025580F80023B1
:10A5A40003F5614301F01F0101228A40C3F88021B1
:10A5B4001A602B680822C3F80025242303FB0866CD
:10A5C4000023C6E906337361012386F82030384638
:10A5D400BDE8F8830827FAE71127F8E7902C002054
:10A5E4007DA302001003020014ED00E0F8B5057924
:10A5F40000682C4C0023C0F80035242303FB0543DA
:10A604005B686BB1284BC0F8083340F30733C0F3E1
:10A6140004315B0901228A402033244941F8232074
:10A62400D0F80C65D0F81415D0F80835D0F81025FA
:10A634004FF0FF37BE42C0F80C7518BF06F5E07640
:10A64400C0F81475C0F80875C0F810751EBF4FF037
:10A65400A0474FF0020C47F826C04E1C1FBF4FF016
:10A66400A04601F5E071022746F82170511C1FBF76
:10A674004FF0A04102F5E072022641F822605A1C14
:10A684001FBF03F5E0734FF0A042022142F82310EC
:10A69400FFF7F4FB242303FB0544002384F8203054
:10A6A4006360F8BD902C00201003020000E100E07C
:10A6B4000279044B242101FB02335869003818BF86
:10A6C40001207047902C00202DE9F84301F06043ED
:10A6D400B3F1005F06468846914634D1FFF7E8FFA0
:10A6E400044690BB32791B4F3068242505FB027564
:10A6F4004FF49071C5F81490C5F80880FFF722FE56
:10A7040030684FF4AC71FFF71DFE33686969A868BF
:10A71400C3F84405C3F84815012199606968B1B9C3
:10A72400D3F82011D3F8580149B90028F8D00F20E4
:10A73400242303FB027700237B61BDE8F883002810
:10A7440018BF0F20F4E71020F7E71120F5E72046A3
:10A75400F3E700BF902C00200220FCF767BB000049
:10A764002DE9F04780460D46FCF780FB032804469C
:10A7740010D8012D10D0022D30D05DB91A48FDF744
:10A7840009F91A4B04EB440213449D78184B1B5DE2
:10A79400AB4219D0BDE8F087144E00EB4003F21829
:10A7A400F55C5378470053B1DFF84C900E484A46A5
:10A7B4004FF40041FDF7A6F808B989F80080274452
:10A7C4003E440B4BB2781A55002DE3D0094B1B685D
:10A7D400002BDFD02846BDE8F047184700EB4004C3
:10A7E400024804446578EFE7D82C0020182D002097
:10A7F400312D00202C2D0020B42C002000780221C3
:10A80400FFF7AEBF08B5094B1B7853B10020FCF726
:10A81400E3FA0120FCF7E0FABDE808400320FCF766
:10A82400DBBABDE80840FCF7E3BA00BFB52C002052
:10A83400F8B57A4C237805461BB100232370FFF743
:10A84400E1FF172D00F28780DFE805F00C171742AF
:10A854005364757F878C878C949999999999C3C807
:10A86400D0D8E3E3FFF7CEFF6D48FDF793F86D4BC7
:10A87400002204461A702046F8BD0020FCF792FA24
:10A88400F0B10020FCF7A8FA022D0CBF4FF4E164EC
:10A894004FF47A64634B1D7000254FF400464FF467
:10A8A400FA7029464FF47A720023E4FB060105F09E
:10A8B400ABF92A460146BDE8F8405948FDF722B8ED
:10A8C400FCF77EFA022D0CBFC8244FF4C874E1E7EC
:10A8D4000020FCF767FA40B10020FCF77DFA4FF442
:10A8E4004874504B03221A70D6E7FCF769FAC8245F
:10A8F400F7E70020FCF756FA38B10020FCF76CFAB1
:10A904004FF47A64474B0422EDE7FCF759FA4FF40D
:10A91400C874F7E70020FCF745FA48B10020FCF7BB
:10A924005BFA404B05221A7041F69A110022C2E7E5
:10A93400FCF746FAF5E70020FCF778FA394B0622D3
:10A944001A70002240F6CD41B5E70020FCF738FA32
:10A95400344B07221A7000248DE701202070FCF785
:10A9640065FAEEE701202070FCF760FA00224FF44C
:10A974008041A0E7FCF74BFA2A4B0C22EAE72A486D
:10A984002A4EFDF707F8D5F1110504461CD0D8B9B5
:10A99400012D13D0C820454321464FF400474FF4FE
:10A9A400FA704FF47A720023C5FB070105F02CF905
:10A9B400224601461C48FCF7A5FF04460220FCF78A
:10A9C400FFF90123337056E70220FCF705FA002350
:10A9D400F8E7FFF717FF134B1222BBE7FFF712FF4D
:10A9E4000020FCF7EDF90F4B1322B3E7FFF70AFF42
:10A9F4000120FCF7E5F90B4B1422ABE7FFF702FF4C
:10AA04000020FCF7DDF90120FCF7DAF9054B1522EB
:10AA1400A0E7FCF7FCF9034B1D709CE7282D0020F0
:10AA2400F82C0020302D0020B82C0020B52C00205C
:10AA3400044B1B68DB0703D5034B1878FFF7F8BEFC
:10AA4400704700BF242D0020302D002010B50029B0
:10AA540014BF03240024FCF71BFA800000F1A0407B
:10AA6400D0F8002722F44032C0F80027D0F800378D
:10AA740043EA0443C0F80037002010BD032801D87E
:10AA8400FCF7E6B900207047044B1B6813F0010380
:10AA940001D0FFF7CDBE1846704700BF242D00201B
:10AAA40038B51C4B18601C4B10F0020405461960A5
:10AAB4001AD01A4B1A480E221A700F22DA7010227A
:10AAC4009A7111225A72042140F26662FCF716FC54
:10AAD400044648B9FCF768FC044628B90146114A03
:10AAE4001148FCF7FDFE0446EB0711D50120FCF7E5
:10AAF400D5F96CB921460D4A0D48FCF7F1FE044620
:10AB040030B9BDE838400B4A0B480121FCF7E8BED8
:10AB1400204638BD242D00202C2D0020182D002087
:10AB24005009030001A802007409030035AA0200B9
:10AB3400780903005DA7020070090300032811D8F7
:10AB4400012A0AD101290FD100F10E02D2B20D4B14
:10AB540000EB40001A54002070470129F7D0022965
:10AB640004D049B1072070470022F8E7054B00EBF9
:10AB7400400018444270EEE7024B00EB40001844DA
:10AB84008270E8E7182D0020032802D80121FFF77E
:10AB94005DBF0620704708B5012202210020FFF79F
:10ABA400CDFF08B1072810D1072202210120FFF7A9
:10ABB400C5FF08B1072808D100210A220846FFF77B
:10ABC400BDFF10B1072808BF002008BD0388102B63
:10ABD40010B502D0112B1ED010BD1A4C2168B1B98A
:10ABE40001220846FFF7AAFF08B1072824D107224B
:10ABF40002210120FFF7A2FF08B107281CD104227B
:10AC040002210020FFF79AFF08B1072814D1236816
:10AC140001332360E0E70B4A1368013B1360002B08
:10AC2400DAD1FFF7B8FF0028D6D0074B1B68002BFA
:10AC3400D2D0BDE810401847034B1B68002BE6D068
:10AC44009847E4E73C2D0020382D002008B500206B
:10AC5400FFF79AFF08B1062806D10120FFF794FFF9
:10AC640010B1062808BF002008BD00000D4B10B528
:10AC740018600C4629B10120FFF700FF40B1022300
:10AC84002370094B1B6853B9BDE81040FFF783BF1D
:10AC9400FFF7F4FE08B10B23F2E72070F1E7002080
:10ACA40010BD00BF382D00203C2D002076DF7047FA
:10ACB4007ADF70477CDF70478FDF7047FCF78ABB11
:10ACC40008B50020FFF7E0FE08B1FCF783FBFFF7AF
:10ACD400BDFF08B1FCF77EFB04F0F6FD18B1BDE83A
:10ACE4000840FCF777BB08BD03883B2B13B504462B
:10ACF40008D005D8102B0AD0212B1BD002B010BDD0
:10AD0400562BFBD1A0881321FFF7D0FF0BE00720BF
:10AD1400FFF7BAFE08B1FCF75DFB0D4BA1880D48A7
:10AD2400198002F0C7F90028E8D002B0BDE810404D
:10AD3400FCF750BB002380888DF8043001A98DF8FE
:10AD44000530FFF7B9FF0028D8D0FCF743FBD5E75F
:10AD540060220020AC2F002010B5044603F0B6FC9E
:10AD64002046BDE8104003F0CDBA000010B5204BDA
:10AD7400204A9B1ADB088CB01B04032836D8DFE872
:10AD840000F002272F3343F0030420461A49FBF74F
:10AD940083FE2C22002101A805F057F844F25062EA
:10ADA4004FF496710123CDE9051214488DF808304B
:10ADB40001A98DF8043000F09BFE0021104801F039
:10ADC40011F9104902462046FBF76AFE0CB010BD8B
:10ADD4000D4943F003000CB0BDE81040FBF75CBE26
:10ADE4000A4943F00100F6E70949FAE70949F8E797
:10ADF400A8FF020080FF02007C090300402D002010
:10AE04001DAE0200AA090300C1090300E4090300FE
:10AE14001D0A03004A0A030013B513210190FFF72A
:10AE240045FF019A034660B10748084C0849241AB3
:10AE3400E408240444F0020002B0BDE81040FBF72B
:10AE440038BE02B010BD00BF80FF0200A8FF0200A0
:10AE5400710A0300022807B50ED1094B09480A49B3
:10AE6400C01AC008000440F003000190FBF714FE70
:10AE740006490198FBF710FE012003B05DF804FBBE
:10AE840080FF0200A8FF0200B20A0300DF0A0300E9
:10AE9400032807D14FF08043A922C3F820250020BE
:10AEA400FEF7CCBB7047000008B503784BB9054BDF
:10AEB4003B211888FFF7FAFE18B1BDE80840FCF7FB
:10AEC40089BA08BD60220020072808B513D00A28D3
:10AED4000DD0042819D10D4B13211888FFF7E6FE75
:10AEE40030F0080311D0BDE80840FCF773BABDE8A0
:10AEF4000840FFF7E5BE054B1A884FF6FF739A42E8
:10AF040003D1034800F0D6FDEAE708BD6022002023
:10AF1400402D002008B548B103280BD10220FFF7CB
:10AF2400B3FD38B1BDE80840FCF754BABDE80840A9
:10AF3400FFF7C6BE08BDFCF74DBA000030B54FF4AC
:10AF44000041AFB00020FBF7EBFB08B1FCF742FA7D
:10AF5400FBF71AFB04F07CFB08B1FCF73BFAFCF7A7
:10AF64008FFC08B1FCF736FAFEF716FB08B1FCF7C4
:10AF740031FA6F490320FFF793FD08B1FCF72AFA71
:10AF840003A90020FFF772FE08B1FCF723FA9DF82D
:10AF94000C5004F05BFC08B1FCF71CFA002303A975
:10AFA4000120039304F01EFD08B1FCF713FA03A873
:10AFB40004F0BCFD08B1FCF70DFA02F041FE08B143
:10AFC400FCF708FA31238DF80C3007238DF80D3087
:10AFD40010238DF80E3003A803238DF80F308DF85D
:10AFE400103002F0C7FE08B1FCF7F4F9514802F042
:10AFF400A9FE08B1FCF7EEF911224F498DF808209B
:10B0040002A8FFF757FE08B1FCF7E4F90023ADF8F6
:10B0140010305023ADF80C30A023ADF80E3003A847
:10B024004FF4C873ADF81230FFF742FE08B1FCF7D5
:10B03400D1F94248002101F02BFF08B1FCF7CAF90D
:10B04400AC22002103A804F000FF02238DF80C3089
:10B0540040F20163ADF80E300124394B089300210E
:10B064002C2221A8ADF81C4004F0EFFE4FF4967199
:10B0740044F25063CDE925133248334B8DF88840B0
:10B0840003A92C9300F057FB08B1FCF7A3F92D4852
:10B09400012100F04DFB002303932C482C4B029319
:10B0A40002A901F0F5FF08B1FCF794F9294B0393C9
:10B0B40003A804F051FA08B1FCF78CF9142200211A
:10B0C40003A804F0C2FE4FF470234FF42032CDE9FC
:10B0D400042303238DF818301F4B089303A81F4B38
:10B0E400099300F011FE08B1FCF774F91C4B1D48DC
:10B0F4001D49C01AC008000440F003000190FBF78A
:10B10400CBFC022D0FD119490198FBF7C5FC02F0C5
:10B1140089FE08B1FCF75EF9FBF75CFB0028FBD164
:10B12400FEF764FAF8E70321064800F081FBF0E734
:10B13400CDAE02005DAD02000E0B0300982F00207F
:10B144005C220020402D002019AF0200AC2F00200B
:10B15400C1AC020071AD0200ADAE02003BAF020013
:10B1640080FF0200A8FF0200200B0300440B030031
:10B1740013DF704738B54FF01025114C114A6B6935
:10B18400A41AE40801334FEA044411D06A690E4951
:10B1940044F00300FBF784FC6869FFF7E9FF054608
:10B1A40020B10A4944F00100FBF776FC284638BD7B
:10B1B400074944F00100FBF76FFC0425F6E700BFE4
:10B1C400A8FF020080FF0200510B03007C0B030068
:10B1D400AF0B030038B50B4B0B4C0C4A0C49E41A6B
:10B1E400E408240444F00300FBF75AFC0748FFF783
:10B1F400BFFF054620B1074944F00100FBF74CFCB2
:10B20400284638BD80FF0200A8FF0200006002004B
:10B21400C70B03007C0B03006DDF704779DF7047B9
:10B224007DDF704764DF70472DE9F04F85B000255E
:10B234000E9CBDF83CB0B4F800A0019107469046BE
:10B244001E46A9463A884A450DDC45B12388013B90
:10B25400A3EB0A039BB2FF2B3AD806F80A3000206E
:10B2640005B0BDE8F08F7A6852F8290003900022F7
:10B274000DF10B0103A8FFF7D5FF0028F0D19DF8CD
:10B284000B20424521D12288002D14BF002002202A
:10B2940002EB0801014459451ADC3DB9013292B26E
:10B2A400019B2280B35422880132228022880DF12E
:10B2B4000B01324403A8FFF7B5FF0028D0D1218841
:10B2C4009DF80B200A442280012509F10109B9E700
:10B2D4000C20C5E72DE9F341089FBDF824801546ED
:10B2E400CDE90078022204461E46FFF79DFF50B9BF
:10B2F4003346102229462046CDE9087802B0BDE83D
:10B30400F041FFF791BF02B0BDE8F0812DE9F04FA5
:10B3140000231788138090F82D3085B006460D461B
:10B3240014465BB3082F01D80C2028E102A8FFF7CC
:10B3340073FF002840F023812388DDF809100822D8
:10B34400EA54238801339BB21B222380EA542388C6
:10B3540001339BB2EA182380E950BDF80D30938085
:10B3640023889DF8082006339BB212F0FE0218BF12
:10B3740001222380EA54238801332380B378FBB16C
:10B3840023880433BB42CFD802A8FFF747FF002825
:10B3940040F0F58023880322EA54238801339BB2CA
:10B3A40019222380EA542388BDF8082001339BB274
:10B3B400E9182380EA54120A4A702388023323804E
:10B3C400F2789AB12388D91CB942ADD80221E95444
:10B3D400238801339BB201212380E95423880B4441
:10B3E4009BB22380EA5423880B4423807268AAB159
:10B3F4002388D91CB94297D8022192F90020E95434
:10B40400238801339BB20A212380E9542388013322
:10B414009BB22380EA542388013323803389002B91
:10B4240040F0A180338A5BB1CDE900472B46072267
:10B43400032106F11000FFF74DFF002840F09F8024
:10B44400338B5BB1CDE900472B461522142106F15D
:10B454001800FFF73FFF002840F09180326A002A6D
:10B4640040F09080D6F82480B8F1000F30D0B8F8BE
:10B4740004302188981C8A1C0244BA423FF654AF17
:10B48400FE283FF651AF03336B54238801339BB23C
:10B49400FF222380EA54238801339BB22380B8F827
:10B4A4000020EA54E918120A4A702088023080B257
:10B4B4002080B8F804205AB1D8F8081000296BD0BD
:10B4C400284404F099FC2388B8F80420134423800A
:10B4D40096F82C30002B40F09880307800284ED01D
:10B4E4003388012B58D0228802F1020CBC453FF668
:10B4F4001BAF012805D17378023313449F42FFF434
:10B5040013AF023FBF1ABFB202A905EB0C00ADF89E
:10B514000870FFF785FE90BB3178BDF8083002292A
:10B5240000F0B98072789A4202D39F4280F0B180D1
:10B53400012940F0B280974293B2C0F0AE80ADF8DA
:10B5440008300821BDF80830FE2B3FF6EDAE228806
:10B554000133AB542288013292B22280A95422884A
:10B56400134423800BE0CDE900472B460622022139
:10B5740006F10800FFF7AEFE00283FF453AF05B014
:10B58400BDE8F08FB4F800C00CF10603BB423FF6EF
:10B59400CBAE1188052901D80720F0E76FF4486E77
:10B5A40001EB0E039BB24FF27D3E7345F4D95388F1
:10B5B400052BF1D96FF44860181880B27045EBD9A7
:10B5C4004FF6FF70814201D09942E5D8052305F872
:10B5D4000C30238801339BB212212380E954238841
:10B5E40001339BB223801188E954E818090A417099
:10B5F400238802339BB223805288EA54E918120A42
:10B604004A702388023323802CE7B36A002BC3D00B
:10B614004FF000084FF00C0A4FF0160BB16A5FFAB6
:10B6240088F20AFB02F201EB0209B9F80430981C13
:10B63400FE283FF679AE208803332B542388013348
:10B644009BB2238005F803B0238801339BB2238087
:10B654008A5AEA54E918120A4A702088023080B2E1
:10B664002080B9F804205AB1D9F80810002993D0E1
:10B67400284404F0C1FB2388B9F804201344238030
:10B6840096F82C2008F101085FFA88F39A42C5D88D
:10B6940023E7092156E79F42FBD2ADF8087050E733
:10B6A40070B5C0B14AB116880024B44203D3051959
:10B6B4006D789D4208D0A14201D800200BE0055DC1
:10B6C40001352C44A4B2F0E7A142F6D9A31C13809F
:10B6D400005D013880B270BD13B513460022ADF889
:10B6E40006200DF106020446FFF7DAFF10B1BDF89B
:10B6F4000630E01802B010BD72DF704773DF704788
:10B7040074DF704738B5012204460D46B0F838128C
:10B71400D0F83402FFF7E0FF00B1057004F13C02F9
:10B7240004F50D7104F15400BDE83840FFF7E4BF9F
:10B7340080F830107047F8B504460F46002973D0DE
:10B74400002871D091F87A301BB191F89830002B11
:10B754006CD1D7F8A030042B68D0D7F89C30042BD8
:10B7640064D04FF0000C84F802C007F178060FCEC5
:10B77400251D0FC50FCE0FC596E8070085E8070005
:10B7840084F830C0D7F8A4306363D7F8A830A36333
:10B7940004F50D724FF6FF73C4F84AC2A4F8483298
:10B7A400C4F84422C4F84DC222780AB984F854304B
:10B7B40094F82430002B14BFEE231F2304F1550109
:10B7C400C4F83412A4F8383204F50E723846FFF780
:10B7D4009DFD40BB94F82430002B14BFEE231F239F
:10B7E40004F24311C4F83C12A4F8403204F5107278
:10B7F40007F13C00FFF78AFDA8B9A369A4F8483013
:10B804004FF480730125A4F8503063692064014625
:10B8140084F83C50636404F13C0204F15400FFF7E3
:10B824006BFF00B92570F8BD0E20FCE70720FAE78E
:10B83400F8B5067804460D46002E00F00381002377
:10B84400C0F84A32C0F84D32C388817000F24A27EA
:10B854000BB1012903D0E37943B1022D06D1636B07
:10B86400A3B1012284F851220820984704F24B2204
:10B8740004F2512112F8013B5BB99142FAD16A1EDC
:10B88400032A4FD8DFE802F0070D111484F851326F
:10B89400ECE73346F3E7A2791AB194F8242002B90D
:10B8A4005BB9E2790AB1002B3ED1237A002B3DD15A
:10B8B400637A002B0CBF00250425636BA570002B55
:10B8C40036D0033D012D33D862798AB394F85222DD
:10B8D40072BB84F85422012284F85322072098472B
:10B8E40004F13C0518220021284604F0AEFAE26A6D
:10B8F4000123511E994284F83C3098BFD3B284F896
:10B90400513094F8243088BF00261BB1A6B1A26A36
:10B9140084F85220A278042A1ED8DFE802F07A0FB5
:10B9240025385C000025C8E70225C6E70325C4E7DF
:10B93400002384F85332D3E70122E9E7012384F892
:10B9440031300023C4E91073C4F84432022384F86C
:10B954003C308023A4F84830A378002B5DD1636B7E
:10B96400002B6BD1002068E0002B14BF07230323B6
:10B9740084F83C302369A4F8483000230222C4F838
:10B984004432E36884F8312027646364E4E762693D
:10B994006264A269A4F8482013B1062384F83C30F9
:10B9A4006379B3B194F852329BB994F8543283B1A9
:10B9B400022384F8503004212046FFF7A3FE002818
:10B9C400CAD1052384F8313004F50D73C4F8443228
:10B9D400C2E70323F6E7E2696264226AA4F8482016
:10B9E40013B1062384F83C30637983B194F852325E
:10B9F4006BB994F8543253B1022384F850300421C3
:10BA04002046FFF77FFE0028A6D10623DAE70423A9
:10BA1400D8E7002384F831309EE7D4F844122A464C
:10BA240004F15400FFF768FE38B994F8301094F824
:10BA34005400FFF763FE002891D0F8BD94F831005C
:10BA440098478FE70820F8E70388112B10B50C46B8
:10BA54000AD0262B1FD0102B05D1C37B012B02D17A
:10BA64008388A1F8483210BD0022838881F85222CD
:10BA7400B1F848229A42F6D10B79002BF3D1012177
:10BA84002046FFF7D5FE0028EDD0A36B002BEAD0AB
:10BA9400BDE810401847037A013B012BE3D88978AD
:10BAA40005230131B1FBF3F303EB8303C91AC9B2D4
:10BAB400E6E7704738B5044690F85400FFF720FED7
:10BAC400012384F85232002384F8543284F850302D
