:020000022000DC
:1060000000000120756302005D6302005F6302000F
:106010006163020063630200656302000000000028
:1060200000000000000000000000000067630200A4
:1060300069630200000000006B6302006D630200F0
:10604000A18602006F630200D98A02006F6302001A
:106050006F6302006F630200618902006F630200D8
:106060006F6302006F6302006F6302006F630200E0
:106070006F6302006F6302006F6302006F630200D0
:106080006F630200ED7002006F6302006F63020035
:10609000897102006F63020045B702006F6302005E
:1060A0006F6302006F6302006F6302006F630200A0
:1060B0006F6302006F630200000000000000000038
:1060C0006F6302006F6302006F6302006F63020080
:1060D0006F6302006F6302006F6302000000000044
:1060E00000000000000000000000000000000000B0
:1060F00000000000000000000000000000000000A0
:10610000000000000000000000000000000000008F
:10611000000000000000000000000000000000007F
:10612000000000000000000000000000000000006F
:10613000000000000000000000000000000000005F
:10614000000000000000000000000000000000004F
:10615000000000000000000000000000000000003F
:10616000000000000000000000000000000000002F
:10617000000000000000000000000000000000001F
:10618000000000000000000000000000000000000F
:1061900000000000000000000000000000000000FF
:1061A00000000000000000000000000000000000EF
:1061B00000000000000000000000000000000000DF
:1061C00000000000000000000000000000000000CF
:1061D00000000000000000000000000000000000BF
:1061E00000000000000000000000000000000000AF
:1061F000000000000000000000000000000000009F
:10620000354936480A1A02D0072291438D4634494F
:1062100034480A1A06D00722914381F309880222E2
:1062200082F3148830483149314A00F044F831484B
:106230003149324A00F03FF831483249324A00F0E1
:106240003AF832483249334A00F035F83248334997
:10625000334A00F030F833483349344A00F02BF821
:1062600033483449344A00F026F83448344900228F
:1062700000F02CF833483449002200F027F8334866
:106280003349091A082902DB002202604160314AC1
:1062900090471F481F49884205D00268043003B464
:1062A000904703BCF7E700208646EC46002000211B
:1062B000294A9047FEE7884207D0521A05D0037852
:1062C00001300B700131013AF9D17047884202D098
:1062D00002700130FAE770470000012000E0002062
:1062E0000000012000000120A4D3020000300020A3
:1062F00060300020D4630200D4630200B0C1020009
:10630000A4D302000030002000300020B4C20200FC
:10631000B4C20200B4C20200B4C20200B4C202009D
:10632000B4C20200B4C20200B4C20200A2D302008E
:1063300004D4020060300020603000206030002073
:106340005842002058420020584200205842002065
:10635000586200209D630200BD9D0200FEE7FEE73B
:10636000FEE7FEE7FEE7FEE7FEE7FEE7FEE7FEE705
:10637000704700BF1048804710484FF0070188431E
:1063800085460F4880470F48016841F4700101605D
:10639000BFF34F8FBFF36F8FFFF732BF0A480B4930
:1063A0000B4A884207D0521A05D0037801300B708F
:1063B0000131013AF9D170477163020000000120F8
:1063C000A580020088ED00E0B4C202000030002089
:0463D0000030002079
:1063D4007047000007B5044B0093044A402300F0C3
:1063E40032F803B05DF804FBF5630200613000206D
:1063F4002DE9F84388461446B2B10F4B0F4E0325DE
:10640400002743F00109224608EB0701002003F0AE
:1064140061FE0744241A48B933782BB14FF47A400B
:10642400C847013D02D13570BDE8F88301233370BC
:10643400002CE8D1F8E700BFC0C2020060300020A1
:10644400704703F077BEF0B595B01D461646084672
:106454000C4601F0E7FC1A9B0D93CDE90865002575
:106464002B46082205A920460A958DF82C500C9538
:1064740001F0F4FC079B0293069B03939DF81430F0
:106484008DF8115003F00302012A1DD1BDF8142028
:10649400059DC3F3C203C2F383168DF81030B20016
:1064A40008230EA9204601F0D9FCC5F3952508ABB5
:1064B4000093324602AB0EA9284600F05BFB20464F
:1064C40001F0B4FC15B0F0BD022AF8D1BDF81650A5
:1064D400C3F3C203C5F389158DF810300827082DBE
:1064E4002E4628BF08263B4632460EA9204601F018
:1064F400B5FCAD1B08AB02AA31460EA8374400F028
:106504009DFB002DEBD1DAE708B5FFF79AFF0448AD
:10651400042100F099FA034B01225A7108BD00BF0F
:10652400A4C2020000300020037813F0040216D045
:1065340003F00303012B03D0022B09D00120704781
:106544000A6800880232C0F3831002440A60F5E747
:106554000B684288023303EB92130B60EEE710469C
:10656400704700002DE9F04FDFF830A187B00F46E7
:1065740000230446861C0DF1070015468DF80730EC
:1065840001F002F9DAF800103960DAE90132134453
:1065940001335B1A0AF21C470AF583690AF21448AC
:1065A400B3421CD30020002D73D004F00F039B01D1
:1065B40043F0050363F30F00DAF80020DAF808303B
:1065C4001340033332444AF823009DF80700CAF805
:1065D400002001F0FDF8012007B0BDE8F08F012193
:1065E400384601F056F9484601F06BF9404601F08F
:1065F40068F9DAF80400DAF808B0029000EA0B004F
:1066040003300AEB800002A9FFF78EFF029B50BB08
:106614000BEA03020AEB820203F1020CD268039232
:10662400013303EA0B0B0AEB8B0B02F00302012A82
:10663400DBF80C10CDF808C023D0022A16D083460C
:10664400404601F041F910B1029BCAF804305946A2
:10665400384601F01EF9DAE901231344DAF8002080
:1066640001339B1A9CE70BEA0300C9E7BDF80E301F
:10667400C3F3891303334FEA114B0CEB93030293D7
:10668400DEE7BDF80C30C3F383134FEA114B6344C8
:10669400F5E7A40544F006008EE700BF743100203E
:1066A4000B4B0C48FF2210B59A600022C3F8182443
:1066B400C3E90022C3F8142483F8202401F06BFBFF
:1066C400044610B9044801F06BFC204610BD00BF1D
:1066D4007431002028C20200FCC2020030B50A4C0A
:1066E40071B10A4A0A49121BD20800239A4201D105
:1066F400002030BD31F82350854202D00133F5E744
:10670400034654F83300F4E73CC20200A4C202007A
:1067140000300020094B013903EBC000032909D8DC
:10672400DFE801F00A02040604207047007970478C
:106734004079704700207047022070473CC2020035
:10674400034BD3E90030C31A58425841704700BF85
:10675400743100202DE9F04387B0FFF7F1FF0646BE
:10676400002840F0FE80804CC4F81804BFF34F8F1B
:106774006368A56802932B40033304EB830002A9EA
:10678400FFF7D2FE029B18B1D4F81824002A62D075
:1067940005EA0302991C013304EB82022B4004EB4B
:1067A4008303D268DB68049302F00303022B039291
:1067B400029163D1BDF80E306C48C3F38917502F92
:1067C400B84628BF4FF0500808F1080168F38F134A
:1067D400C1F30901ADF80E3001F0F5FA06460028C0
:1067E40000F0AA8001F01EFB0023082203A9304612
:1067F40001F02AFB029925EA01020132B8EB820F6B
:106804004FEA820333D95FFA88F863B32940DDB2D3
:10681400A8EB050803315FFA88F9A846544D04EB48
:10682400810108234246304601F00EFB3DB108F1D8
:106834000803DBB24A462946304601F005FB029BB9
:10684400033703EB97070297D4F81834002B4BD186
:10685400D4F810545BE0226893428CD362603046D3
:1068640007B0BDE8F08342491D469946D9E729405F
:1068740003310823424604EB8101DDE7012B5BD1A0
:10688400BDF80C303948C3F38311062928BF06210B
:1068940061F38913023101F00F018900ADF80C3066
:1068A40001F091FA0646002846D001F0BBFA002315
:1068B400082203A9304601F0C7FA0027BDF80C20CE
:1068C400C2F38312BB00974203F10803BCD20299BE
:1068D4004A1C29400331029204EB81010422304610
:1068E40001F0B2FA0137E9E7304601F09FFAFFF709
:1068F40027FF80F00100C6B2B1E7EB685B7923B1F2
:106904002B6831461B6828469847EB681D68002DA4
:10691400F3D1304601F08AFA0DF107008DF80750E3
:1069240000F032FFD4F818340BB9029B63609DF871
:10693400070000F04DFFDAE7D4F8104454B90D4BCA
:106944000D480E49C01AC008000440F0020000F0CF
:1069540063F8CCE7236820469B689847E3681C6883
:10696400ECE700267BE700BF7431002028C2020058
:10697400803100203CC2020064C20200E4C2020072
:106984002DE9F74F224E04460F46924601A90122F3
:106994001846D6F808909B46FFF7E4FD20B3019D06
:1069A4004FF00008AA1CD84508EB020126D119486B
:1069B400002100F03FFF80F31000000440EA14407F
:1069C400E4006B1C04F0380403EA090305EA090532
:1069D40044F0010406EB8303033544EA881444EAD3
:1069E4008724D86046F8254096F820341BB1FFF779
:1069F400B1FE0028FBD103B0BDE8F08F09EA010124
:106A040006EB81015AF82830CB6008F10108CAE787
:106A1400743100209035002000231A46FFF7B0BFE0
:106A240007B50123019201AAFFF7AAFF03B05DF89D
:106A340004FB07B5CDE9002302236A46FFF7A0FF54
:106A440003B05DF804FB000030B50F4CD4F81024FB
:106A540003460020114631B9D96808714AB9C4F80F
:106A640010340A6030BDC9680D79854206D00968C2
:106A7400F1E7D26814680C601360F3E701300A2868
:106A8400E8D14FF0FF30EDE77431002038B5084B02
:106A94000125D3F8104483F8205404B938BDE368C1
:106AA4005D71236820465B689847E3681C68F4E7D7
:106AB4007431002030B5C38885B004460D4633B127
:106AC400144A00921449154A284600F060FF217ABE
:106AD40005291DD0637A4BB1A088FFF71BFE104B2C
:106AE400104953F82020284600F051FF227A0E4B1B
:106AF400A08853F8222003920021FFF7EFFD039AA8
:106B04000A490346284605B0BDE8304000F03FBFBF
:106B140005B030BD28C3020010C3020008C3020040
:106B240094C302002DC30200B8C3020030C30200A4
:106B340007B503460846197A052911D05B7A2BB1AB
:106B4400094A0A49019000F022FF0198084901907E
:106B540000F01DFF019803B05DF804EB00F00CBFDA
:106B6400002AF8D0F2E700BF28C302002DC30200B8
:106B740025C302002DE9F04385B01F460C9D002378
:106B840095F80C902B7306460C46904629463846D9
:106B9400FFF790FFB8F1060F09D8DFE808F00412F8
:106BA400181F283340003146284600F0F0FE00222A
:106BB40029463846FFF7BCFF85F80C9005B0BDE8C0
:106BC400F08322683146284600F0E1FEEFE7D4E97D
:106BD40000233146284600F0DAFEE8E7A368009374
:106BE4003146D4E90023284600F0D1FEDFE7E3680C
:106BF4000193A36800933146D4E90023284600F0AA
:106C0400C6FED4E723690293E3680193A368009363
:106C14003146D4E90023284600F0B9FEC7E763698A
:106C2400039323690293E3680193A36800933146B5
:106C3400D4E90023284600F0AAFEB8E708292DE984
:106C4400F74F80460E4617461C4639D8002593F860
:106C54000C901D7319461046FFF72CFFDFF880A037
:106C6400DFF880B0AE422ED918F8052059462046E8
:106C740000F08DFE0135082DF4D11849DFF868A025
:106C8400DFF868B0204600F082FE0025AE421FD92E
:106C940018F805200192104605F0B4F90028019A6D
:106CA400594608BF2E22204600F071FE0135082DFA
:106CB400ECD1012221463846FFF73AFF84F80C90C4
:106CC40003B0BDE8F08F5146204600F060FED1E7E6
:106CD4005146204600F05BFEE8E700BF44C30200D3
:106CE40040C302003AC3020042C3020046C302008A
:106CF4002DE9F84F2F4F304E4FF000082F4B1B78E3
:106D04005FFA88F5AB4201D8BDE8F88FD7F8009058
:106D140019F835000124A0F12002C0F1200304FA7F
:106D240002F224FA03F31343D6E9001204FA00FC36
:106D340001EA0C0B02EA030E5BEA0E0E09EBC50A2C
:106D440035D021EA0C0122EA0303C6E9001301F05D
:106D5400FBFD024619F83500194DA0F12003C0F1DE
:106D6400200124FA01F104FA03F30B43D5E900C12D
:106D7400C0F120050B40A0F1200122FA05F5844062
:106D840002FA01F1294304EA0C0402FA00F58B42E9
:106D940008BFAC420BD1DAF8043043B19AF80110C1
:106DA4004C1E614261418D1A69426941984708F15C
:106DB4000108A3E768360020603600203036002042
:106DC40058360020F8B507461E4800F0C1FBB8BB92
:106DD40001251D4EA7F12004C7F1200325FA03F372
:106DE40005FA04F41C43D6E90023BD4002EA050079
:106DF40003EA040101431DD1384601F0A5FD134BFC
:106E0400D3E9001288B129432243C3E90012D6E929
:106E140000232A432343C6E900230D4B094819687C
:106E24000022BDE8F84000F04BBB21EA050122EA4C
:106E34000402EAE722EA050223EA0403C6E900237E
:106E4400F8BD00BF383600206036002058360020D8
:106E540034360020042A2DE9F34105460C46164633
:106E64003BD901F0A9FCE8B11D4B1E491D601E4B26
:106E7400DFF888801C701D4B00221E600023C1E9CE
:106E840000231B49C1E90023013CE4B20026032787
:106E9400FF2C0ED1174A1848002102B0BDE8F0417A
:106EA40000F0FCBA01F056FC0028DDD002B0BDE8C9
:106EB400F08105EBC40315F834009B788DF8066067
:106EC400424601A98DF804708DF8053001F07EFC6E
:106ED400013CE4B20028DBD0E8E70720E6E700BF86
:106EE4006836002058360020303600203436002022
:106EF40060360020F56C0200CCC30200C96D0200AC
:106F040070B5084D084E00242B789C4201D3002014
:106F140070BD3368012113F8340001F0CFFC013453
:106F2400F2E700BF30360020683600201FB500218C
:106F3400039001AA44F20100CDE9011100F004F824
:106F440005B05DF804FB000038B572B6FFF79EFD8E
:106F5400FFF700FC0028FBD1104B114C114D1249D6
:106F6400E41AE408240444F00100FFF755FDD5F8C1
:106F7400F030DB0700D500BE0C4944F00200FFF7F7
:106F84004BFDBFF34F8FEA68094B02F4E0621343F1
:106F9400EB60BFF34F8F00BFFDE700BF3CC20200B0
:106FA40064C2020000ED00E0D0C30200DCC30200B2
:106FB4000400FA0549B152B1531E1A4007D1826048
:106FC40001608380C260104670470E20704709201C
:106FD400704710B58468C2688388121B934208D333
:106FE400C26813400268D154C3680133C3600020EF
:106FF40010BD0420FCE78268C3689A420AD0826804
:10700400838813400268D35C0B7083680133836008
:107014000020704705207047094B5A78997801324F
:10702400D2B2914208BF0022197891421FBF027068
:107034005878182202FB003014BF04300020704737
:107044006C36002073B5054600240DF107000E468A
:107054008DF8074000F098FB0DF10600FFF7DCFF08
:1070640090B10670094B9DF8062045605A709DF852
:10707400070000F0ADFB24B9054B4FF48012C3F8B0
:107084000021204602B070BD0424F0E76C360020D5
:1070940000E100E0024B4FF43C6043F00103184769
:1070A400F0C3020038B50C4B0C4C4FF40032C3F85B
:1070B400802001254FF48033C4F84833C4F80833E2
:1070C4006560FFF7E7FF064BA56000241C60FFF72F
:1070D400E1FF044B1C7038BD00E100E000100140EA
:1070E4008837002079370020F8B51F4B1F491B68EB
:1070F4000025C1F84051C1F84451C1F84851C1F8C4
:107104004C51C1F80051C1F804514BB3D1F80445B6
:1071140017490968641A24F07F442F461A68A2426A
:1071240009D8A41A15441A7CDE691AB1D3E90520DA
:107134001F749047AEB90F4A0F4B11781B788B42DE
:1071440005D10133DBB2022B08BF00231370127880
:107154000A4B43F822500A4B4FF48012C3F8002123
:10716400F8BD3346DAE700BF8C3700200010014039
:107174008837002085370020843700207C370020A2
:1071840000E100E02DE9F04FA14AA2491378097803
:10719400A14D994285B03CD00133DBB2022B08BF2C
:1071A400002313709D4912789D4B0F6853F82200F9
:1071B4003B1823F07F4300220B602B6816461446CD
:1071C400944613B942B12B6006E0196881420ED986
:1071D40002B12B60091A196001272B68DFF848A255
:1071E40001934FF00008BEB9DFF844B260E0401AE2
:1071F4000C44D968D3F81CE0C3F800C031B13A1983
:1072040022F07F42C3E90121DE611E46734601225A
:10721400D7E700263746E0E73446F6697F4B6068D7
:107224001B68DFF810C2A168C21A22F07F426245CF
:1072340000F2A6800A442260012222742A680023F4
:10724400C4E90133E361002A40F0A3802C60CAE75B
:107254009BF802105A1CD2B291428BF8002004BF52
:1072640000228BF80020182202FB03B32A68197944
:107274009C68022975D003297FD0012918D1207C6C
:10728400B0B9D3E90312A2605A69E2609A69654B06
:10729400A2611A78002A18BF01466160BEE78C42D9
:1072A40000F094808946C9690029F8D10023237429
:1072B4009BF800309BF801209A42C9D12B68B8F1A1
:1072C400000F04D1019A9A4201D1002F43D0002B20
:1072D40079D0D3F800A0544D504BD5F804751C68F0
:1072E400DFF854813E1B98F8003026F07F460336C1
:1072F4009BB94FF48033C5F84433C5F804334B4B82
:107304004FF400324FF00109C3F880211A60C5F828
:107314000090FFF7BFFE88F80090B2452CBF54449C
:10732400A41924F07F44C5F84045D5F80435DB1B87
:1073340023F07F43E41B033324F07F44A3420AD9A0
:10734400D5F80435C5F84035FFF7A4FE374B4FF4A4
:107354000032C3F80021334B00221A7005B0BDE897
:10736400F08F114691469FE71174D2690123002AD8
:10737400FAD1002B9CD02A609AE700231946F6E73D
:107384001B1A23F07F438B4234BFCB1A00232360A4
:1073940052E721681368994213D85B1A1360E261BB
:1073A40054E7091AD8691A4638B10346186888425E
:1073B400F7D3401A1860184613462160E061DC6177
:1073C40011E71346F2E7FFF76DFEC4E74C4511D110
:1073D400D3692B6073B9DFF844E00120CDE90212D0
:1073E400CAF80800CEF800300E4B1870FFF752FEB2
:1073F400DDE902120B68C969C9F81C1011B10868EB
:1074040003440B602B68934218BF4FF001084DE70B
:1074140084370020853700208C37002088370020EF
:107424007C370020783700200010014000E100E0A4
:107434006C360020FEFF7F007937002008B5FFF787
:1074440031FE104B00200B2218809A700E4B1860EE
:107454000E4B18700E4B18700E4B4FF48012C02157
:10746400C3F8802183F814131A6002F18042A2F554
:107474006F22C2F8080583F81113074BD2F80425CC
:107484001A6008BD6C3600208C3700208437002039
:107494008537002000E100E088370020074B9B7807
:1074A4004BB132B128B10368187C20B959745A61C0
:1074B4007047072070470820704700BF6C360020D3
:1074C4002DE9F743DFF8848098F8023005460E462C
:1074D4001746ABB3A0B3042930D9436983B3437CC3
:1074E4000024012B0DF107000CBF8946A1468DF83D
:1074F400074000F049F90DF10600FFF78DFDD8B102
:10750400012303700F4B4560D3F80435C0E9049799
:10751400C0E902369DF8063088F801309DF807006E
:1075240000F056F924B9084B4FF48012C3F8002137
:10753400204603B0BDE8F0830424EFE70724F7E70F
:107544000824F5E70010014000E100E06C3600205B
:10755400064A92783AB130B1426922B100220274EB
:107564000221FFF76FBD0820704700BF6C36002072
:107574000648074A03780749D35C012213B1043053
:1075840001F0F8BE0C3001F0D3BC00BF083000207D
:10759400F4370020B83700200648074A0378074923
:1075A400D35C012213B1043001F09CBE0C3001F015
:1075B40071BC00BF08300020F4370020B937002028
:1075C40037B50578012D0DD0022D2ED005BB1E49EF
:1075D4001E48FFF710FD002832D103B0BDE830404B
:1075E400FFF7DABF43681A4C19782046FFF7F1FC1D
:1075F40080B18DF800500190164B68461B6898477F
:10760400A168E368A2885B1A9A420AD3FFF7B0FF25
:1076140003B030BDA268E3689A42F1D08DF800004F
:10762400EAE70D4B01221A70F2E7C3688DF80050A7
:107634000193FFF79DFF074B68461B689847E7E7F0
:1076440003238DF80030F6E7B9370020A83700206F
:107654009437002090370020A4370020F0B51F464F
:10766400234B89B004461A600D4600293DD08A8810
:1076740020480968FFF79EFC002834D1AA89A9682C
:107684001D48FFF797FC00282DD11C4E0FCE6D46E8
:107694000FC596E80F0085E80F0063690693237C05
:1076A400174A18488DF81C70003B18BF01238DF849
:1076B4001430637C002B14BF0E2300238DF8153087
:1076C400E3680293A368039323680193694663689C
:1076D400009300F071FF30B90B4B1870236801332D
:1076E40001D0FFF745FF09B0F0BD0720FBE700BF5D
:1076F4009037002094370020A8370020F8C30200F8
:10770400C575020008300020A437002070B5084D6C
:10771400014608482E78FFF76EFC044636B1002374
:107724002B70FFF725FF08B1FFF700FC204670BD62
:10773400A43700209437002010B501460E48FFF707
:1077440048FC0446A8B90D480D4A0378D35C63B1DC
:10775400043001F0BBFD60B90A490748FFF74BFC50
:1077640038B9BDE81040FFF717BF0C3001F086FBB5
:10777400F1E7204610BD00BFA837002008300020E4
:10778400F4370020B937002070B5EFF3108672B6D5
:107794000C4A946801239CB993600B4B0B4DD3F8AE
:1077A400801029401160C3F88050D3F884105160D0
:1077B4004FF0FF32C3F88420047006B962B670BD7E
:1077C4000370FAE7BC37002000E100E0FC06FFBDCF
:1077D400084B9A6810B55AB150B9EFF3108172B6DC
:1077E400054A1C6814605C685460986001B962B60C
:1077F40010BD00BFBC37002000E100E001F01F0213
:107804004B090121914000EB830000F01EB801F008
:107814001F0301229A404B0900EB8300D14300F07F
:107824002CB84B0901F01F0150F82300C84000F0A8
:107834000100704710B5034653E8000F0A4643E8B9
:10784400002494F0000FF7D110BD10B5034653E89F
:10785400002F42EA010043E8000494F0000FF6D13F
:1078640010BD10B5034653E8000F00EA010243E8D7
:10787400002494F0000FF6D110BD10B5034653E870
:10788400002F02EA010043E8000494F0000FF6D14F
:1078940010BD10B5034653E8002F02EB010043E886
:1078A400000494F0000FF6D110BD10B5034653E860
:1078B400002FA2EB010043E8000494F0000FF6D17E
:1078C40010BD0121FFF7C1BF0021FFF7CABF10B5EA
:1078D40090B1D0E9012301689B1ADBB20A60013B35
:1078E400DBB2FF2B026802D10020107110BD1168B9
:1078F4004C1C14600B70F2E70E20F7E737B5054611
:1079040000240DF107008DF80740FFF73DFF2A68BA
:107914006B68116899420ED9481E106011F8013C39
:10792400EC68298A01FB0344AB6811791B1ADBB2AA
:10793400994238BF13719DF80700FFF749FF2046AD
:1079440003B030BD37B5054600230DF107000C46E2
:107954008DF80730FFF718FF2A681368591C116067
:10796400E968641A298AB4FBF1F41C709DF80700D5
:10797400FFF72EFF03B030BD826810B504462AB16C
:1079840043690168006998470023A36010BD0EB4E1
:1079940003B5039921B104AB01AA019300F06EF879
:1079A40002B05DF804EB03B07047826830B4046839
:1079B400551C8560A154D0E901329A4202D330BCEF
:1079C400FFF7DABF30BC70472DE9F84F9846DDE980
:1079D4000A43154682460F460A464FF00109AA4259
:1079E4000FD2C14538BFC14613F0010B01D16CB9A8
:1079F40000240126B8F1010F1BD908F1FF386E43AA
:107A0400F8E709F10109B2FBF5F2E8E79B070ED5A7
:107A1400B8F1000F0CBF30262026A145E9D2013C65
:107A240031465046FFF7C1FF002CF6D1E0E720268F
:107A3400F3E7B7FBF6F39D42E1D9DFF83C80B7FBEF
:107A4400F6F3504618F8031006FB1377FFF7ADFF63
:107A54003346AB42B6FBF5F6F1D2BBF1000F02D0D0
:107A64000CB1A14501D3BDE8F88F20215046013C5B
:107A7400FFF79BFFF4E700BF18C402002DE9F74F9E
:107A8400054617468846002900F03E8118F8011B78
:107A940049B92B7B002B00F03781284603B0BDE8A1
:107AA400F04FFFF769BF252940F0B780002698F80A
:107AB40000302D2B424608F1010823D0302B24D06E
:107AC4002B2B25D000242A2B02F1010123D13B6862
:107AD4001A1D1B683A601C440A4613782E2B26D1C3
:107AE40001324FF0000A104610F8011BA1F1300CCE
:107AF400BCF1090F1DD80A2303FB0A13A3F1300AB2
:107B04000246F0E746F00106D1E746F00206CEE76A
:107B140046F00406CBE711F8013CA3F13000092834
:107B2400DBD80A2202FB0434303C0A46CBE74FF090
:107B3400000A12F8011B01F0FB0068289046F8D0F7
:107B4400782909D86F290CD8632962D022D825292D
:107B540063D0582900F0888098F80030002B95D124
:107B640097E770390829F7D801A353F821F000BF2B
:107B7400E77C02005D7B02005D7B02007D7C0200ED
:107B84005D7B02005B7C02005D7B02005D7B02008A
:107B94006D7C0200642901D06929DDD13A68D2F8EC
:107BA4000090111D89EAE9723960A2EBE9724FF085
:107BB400010B092A35DCD34538BFD3462CB1B9F1C2
:107BC400000F01DB720700D5013CB30702D5BAF1FF
:107BD400000F03D0F00701D44CBB0024B9F1000F0F
:107BE4002DDAC9F100092D212846FFF7DEFE06F043
:107BF4000302022A04D1BAF1000F01D11CBB0024F4
:107C0400CDE9004653460A2249462846FFF7DCFEE2
:107C1400A2E73B681A1D19783A602846FFF7C5FEAB
:107C24009AE70A230BF1010BB2FBF3F2C1E7A34578
:107C3400D4D220212846013CFFF7B7FECCE77107D8
:107C4400D5D52B21D0E7A345DAD230212846013CF3
:107C5400FFF7ABFED2E73968CDE900460A1D3A606A
:107C640053460A220968D0E739680A1D3A60CDE90B
:107C7400004653461022F5E73B681A1D3A6016F099
:107C84000106D3F8009024D1B9F1000F03D048467F
:107C940004F058FA0646B4421DD809F1FF3919F820
:107CA400011F00293FF458AF2846FFF77EFEF6E790
:107CB40028460136FFF779FE19F806100029F7D196
:107CC400A642BFF449AF20212846013CFFF76DFED0
:107CD400F6E70026F0E720212846013CFFF765FE81
:107CE400D9E73B681A1D3A60302128461C68FFF723
:107CF4005CFE78212846FFF758FE00220823CDE9D0
:107D040000322146102280E703B0BDE8F08F00BFA7
:107D14002DE9F84FB0F806A04579D2F800B09DF8E7
:107D240028900AFB05F5043D88460BEB0301A942A4
:107D340003F1040488BFA5EB030BB4FBFAF6074672
:107D44000AFB1644C2F800B04EB9AAEB04055D451F
:107D540028BF5D46BBF1000F04D1BDE8F88F3F6832
:107D6400013EF1E7043408EB06003C442A46B9F12D
:107D7400000F0DD02146ABEB050B04F065F9DA4595
:107D84002E443F6855464FF0000428BF5D46E1E7A6
:107D940001462046EFE7FFF79ABDF8B5467901465C
:107DA400721E0546002393422D6803D30024A64285
:107DB40002D8F8BD0133F6E70F682846FFF7C2FD85
:107DC40001343946F3E72DE9F843068ACD1C07460A
:107DD400FFF794FD043E35440446B5FBF6F5F0B1D7
:107DE4004FF48073EDB28380C680013D0760814605
:107DF4004FF00008A84512D23846FFF77FFD06462B
:107E040048B163790133637108F10108C9F80000CE
:107E140007608146EEE72046FFF7BFFF3446204661
:107E2400BDE8F88301210430FFF733BD10B501210B
:107E340004460430FFF739FDC0B220B92046BDE83E
:107E44001040FFF7AABF10BD1FB503920022009295
:107E540003AAFFF75DFF05B05DF804FB1FB50392AD
:107E64000122009203AAFFF753FF05B05DF804FB5B
:107E740033DF704741DF7047064B10B500241C7098
:107E8400054B1C60BFF35F8F0449054800F091F86F
:107E9400204610BDD1370020D437002034C402005E
:107EA400C837002007B500230DF107008DF807300F
:107EB400FFF76AFCF1EE103A23F09F03E1EE103A6B
:107EC400BFF35F8F0A4B4022C3F884219DF807005B
:107ED400FFF77EFC03F01AFC20B103B05DF804EB5D
:107EE400FFF7C8BF20BF40BF20BF03B05DF804FB4D
:107EF40000E100E070B5244D044601212846FFF757
:107F040099FCBFF35F8F38B9042C0AD01F4B1A7841
:107F14001AB1BFF35F8F286070BD1D4A147001222F
:107F24001A701C4C1A4E6368BBB9FEF7AFFDFEF71E
:107F340011FC0028FBD1164B1B78023B012B15D8F2
:107F4400BFF34F8F1449154BCA6802F4E062134320
:107F5400CB60BFF34F8F00BFFDE71B6830789847B5
:107F64000028D6D0204600F02EF8DCE703F0CEFB44
:107F740008B1FFF77DFF4FF080430122C3F80025CD
:107F8400BFF34F8F20BFFDE7D4370020D137002047
:107F9400D0370020C837002000ED00E00400FA05C7
:107FA400836800225A60C3E904229A60DA601A6086
:107FB40070470B684A684360934208BF002301601E
:107FC40008BF43607047436843B1026891685268D0
:107FD4000B449342436004BF002343607047000096
:107FE40010B50D49A1F59472914201D800200FE01B
:107FF4008C1AE30F03EBE4035B1002EBC30452F8A7
:108004003330834205D802D204F10802ECE76068F9
:1080140010BD2146E8E700BF38C9020008B5FFF7E4
:10802400DFFF024B002808BF184608BDFAC702004C
:1080340010B50446C0B2FFF77FFB204610BD4FF0D9
:10804400704393F8E02F062A10D1D3F8E42F1207D7
:108054000CD1D3F8E80F00F0F003302B08D000F077
:10806400E000A0F140035842584170470020704797
:10807400012070474FF0704393F8E02F062A0CD18B
:10808400D3F8E42F120708D1D3F8E80F00F0F0007A
:10809400A0F1300358425841704700207047000057
:1080A40008B5FFF7CCFF40B14FF08053884AD3F8AE
:1080B4002433C3F30423C2F84035FFF7DBFF10B1C8
:1080C400844B854A5A67FFF7BAFF48B14FF0805393
:1080D4004FF08042D3F84432C3F34233C2F83C3504
:1080E400FFF7C8FF30B17D4AD2F8FC3023F080732B
:1080F400C2F8FC30FFF7A3FF40B14FF080430022E9
:10810400C3F80C21C3F81021C3F83825FFF7B2FFD8
:1081140020B14FF080430322C3F8A025FFF7AAFF44
:1081240060B16F4B0522C3F810260122C3F88826DC
:108134000022C3F818263F22C3F814264FF07043D8
:1081440093F8E02F062A50D1D3F8E42F11074CD12D
:10815400D3F8E83F03F0F003502B46D14FF08052A0
:10816400604BD2F80414C3F82015D2F80814C3F8ED
:108174002415D2F80C14C3F82815D2F81014C3F837
:108184002C15D2F81414C3F83015D2F81814C3F807
:108194003415D2F81C14C3F84015D2F82014C3F8CF
:1081A4004415D2F82414C3F84815D2F82814C3F897
:1081B4004C15D2F82C14C3F85015D2F83014C3F867
:1081C4005415D2F83414C3F86015D2F83814C3F82F
:1081D4006415D2F83C14C3F86815D2F84014C3F8F7
:1081E4006C15D2F84424C3F87025FFF728FF48B172
:1081F4004FF080534FF08042D3F8583203F04F03CE
:10820400C2F8E43EFFF71BFF48B14FF08043D3F8B8
:108214000024D20744BF6FF00102C3F800244FF0DA
:108224008053D3F83021062A0AD1D3F83431062BEF
:1082340001BF2D4AD2F83C3743F48063C2F83C377F
:10824400264AD2F8883043F47003C2F88830BFF36A
:108254004F8FBFF36F8F4FF01023D3F80022002A03
:1082640003DBD3F80432002B2EDA204B0122C3F8AF
:108274000425D3F80024002AFBD04FF01022152146
:10828400C2F80012D3F80024002AFBD04FF01023C8
:108294001522C3F80422154BD3F80024002AFBD07E
:1082A4000022C3F80425D3F80024002AFBD0BFF32E
:1082B4004F8F0A490E4BCA6802F4E0621343CB6045
:1082C400BFF34F8F00BFFDE70A4B0B4A1A6008BD8E
:1082D4000030014000C007400DF0ADBA00ED00E0F1
:1082E4000050004000C000400010004000E0014089
:1082F4000400FA051C3000200090D003054A4FF01A
:10830400A043105CD3F8043523FA00F0C04300F016
:10831400010070473CC90200044B1A5C01239340DE
:108324004FF0A042C2F80C35704700BF3CC90200B0
:10833400044B1A5C012393404FF0A042C2F8083565
:10834400704700BF3CC9020008B50020FFF7F0FFEA
:108354000120FFF7EDFF0220FFF7EAFFBDE8084028
:108364000320FFF7E5BF08B50020FFF7D5FF012084
:10837400FFF7D2FF0220FFF7CFFFBDE8084003203C
:10838400FFF7CABF074A4FF0A041105CD1F804358B
:108394000122824022EA03001340C1F80805C1F813
:1083A4000C3570473CC90200054A4FF0A043105CED
:1083B400D3F8103523FA00F0C04300F001007047F1
:1083C40038C902000D2809D00E2809D00F2809D079
:1083D40010280CBF03204FF0FF3070470020704777
:1083E4000120704702207047014B185C704700BFA2
:1083F40038C90200C20708B501460CD54FF0A043A6
:108404000322C3F84427C3F84827C3F84C27C3F80A
:108414005027FFF799FF8B070AD54FF0A0430C2292
:10842400C3F83427C3F83827C3F83C27C3F84027D8
:1084340008BD000038B5074C051E04F1080318BF39
:108444001C4623682BB11A6822605B68284698474B
:10845400F7E738BDE037002020B9054B01225A70F8
:10846400FFF7E8BF012802D1014A9070F8E770478E
:10847400D837002020B9034B01225A70FFF7DABF26
:10848400704700BFD837002038B50B4C237883B928
:108494000A486360A3602361E36000F0D5F80546F1
:1084A40003F034F908B900F0DBF8012323702846FF
:1084B40038BD8525FBE700BFD83700205D84020066
:1084C40037B50B4C00230DF107008DF80730FFF78B
:1084D4005BF9E368013BE360E56815B900F0D4F8A3
:1084E400A5709DF80700FFF773F903B030BD00BF16
:1084F400D8370020012813B508D003281CD018B998
:10850400114B0122C3F8802002B010BD0F4C002390
:108514000DF107008DF80730FFF736F923780BB912
:10852400FFF7B2FFE3689DF807000133E36001231E
:10853400A370FFF74DF9E7E700F092F802B0BDE849
:108544001040FFF7BDBF00BF00E100E0D8370020B6
:108554001FB503788DF8003043680193037A8DF8D2
:108564000830C368054A0393054B684653F8213025
:1085740052F82110984705B05DF804FBEC37002051
:10858400F03700201FB503788DF80030436801935D
:1085940083688DF80830C368054A0393054B684621
:1085A40053F8213052F82110984705B05DF804FBC8
:1085B400EC370020F0370020F0B5194B90F800C0DC
:1085C40091F81DE043F82C20164B16460A6943F82F
:1085D4002C20154B03F80CE00C4607460FCC89B051
:1085E4006D460FC594E80F0085E80F00CDF810C064
:1085F400BEF1000F09D0002E0C4A694608BF32466E
:10860400381D00F09DFD09B0F0BD002E084A6946F2
:1086140008BF324607F10C0000F072FBF3E700BF1D
:10862400F0370020EC370020F43700205585020095
:108634008985020000F18040002382B00360036852
:108644000193019B02B07047044A137923B90121B5
:10865400106091801846704785207047F8370020D5
:10866400084B1A68D20706D4C02283F800230122DB
:10867400C3F880211A604FF080430122C3F8182503
:10868400704700BF00E100E04FF080430122DA6050
:10869400D3F81824D203FBD4704700004FF0804174
:1086A40010B5D1F8003163B14FF48070FFF7C2FF09
:1086B4000D4B58790122C1F8082310B95A711B686F
:1086C40098474FF08042D2F8043163B14FF482707E
:1086D400FFF7B0FF0223C2F80833034BBDE8104094
:1086E4001B680120184710BDF837002000F18040B6
:1086F40000F5C040002382B0036003680193019B2E
:1087040002B07047800000F1A040D0F8002722F4A6
:108714004032C0F80027D0F8003743EA0141C0F8DE
:1087240000177047C208012300F0070003FA00F0A5
:108734008B5C184388547047054B4FF0FF32072871
:1087440043F8202084BFC01880F84820704700BF39
:108754000038002038B5154D95F858401CBB202230
:10876400FF2105F1300003F098FCE0B20134FFF77B
:10877400E3FF0C2CF9D10E4B0022C0216A6583F86B
:1087840006134021C3F880114FF4BE701960FFF73F
:10879400ADFF084B4FF00041C3F80413012385F8E3
:1087A4005830104638BD0820FCE700BF00380020D0
:1087B40000E100E000600040034B93F858000038EB
:1087C40018BF0120704700BF003800202DE9F04198
:1087D400DFF8E48008EB0003054693F93030002B02
:1087E4000F4664DA8B78C3F34003002B0BBF0824D5
:1087F40000240C2108218C4202D10420BDE8F08120
:1088040058F8240001303DD108EB050166B248F860
:10881400242081F830601BB908EB040383F8485026
:10882400BB785A070ED4D9072ED5AB0003F1A04369
:10883400D3F8002722F00202C3F800271D49284676
:10884400FFF770FFBB783A7813F0020325D0A40039
:1088540004F1804404F5C0442D02D4F8103523F407
:10886400473323F44073C4F810351204D4F8103598
:1088740005F4F85502F4403215431D43C4F810556D
:108884000020BBE70134B6E77A7805F5E0734FF0D2
:10889400A041920041F82320D0E7083E48FA86F62A
:1088A40096F8505045EA821286F85020E8E70820EE
:1088B400A4E700BF543800200038002038B5204C0D
:1088C400251895F93020072A18DD083A44FA82F46D
:1088D40094F850309B09032B0BD14FF0A043D3F8ED
:1088E4001015C14001F001010231BDE83840FFF725
:1088F40009BF012B0CBF02210321F6E7D3B2072BDA
:108904001DD8930003F1804303F5C043D3F8100549
:1089140040F00100C3F8100502F1400040B28000AD
:1089240080B2FFF7E3FE51B195F9303054F82330AB
:108934002BB1012303FA02F2024BC3F8042338BD1E
:1089440000380020006000404FF0A043D3F81035F9
:1089540023FA00F000F00100704700002DE9F04F09
:1089640087B00024584D03944FF48072012102F122
:10897400804303F5C04390B21B68012B06D1D5F8A0
:1089840004330B4202D0FFF7B1FE0C430432B2F5BC
:10899400907F4FEA4101EAD14B4BD3F87C31012B54
:1089A4000AD14FF4BE70FFF7A1FE4FF0A04344F08C
:1089B4000044D3F810350393E3B2D3B1434F0025F9
:1089C4000126344210D0AB0003F1804303F5C043C9
:1089D400D3F81005D3F8101557F8253023B1C1F397
:1089E4000141C0F3042098470135082D4FEA46069B
:1089F400E7D1002C61DA00224FF0FF33CDE90423E4
:108A0400DFF8C880DFF8C89000273E464FF0A04B3F
:108A140019F9014B631C45D0C4F3C20318336B44EA
:108A24000122E5B204F03F0004F0070402FA04F462
:108A340013F8042C224235D008EB0002AD0992F958
:108A4400302058F822A0BAF1000F09D1032D29D102
:108A540004A901930090FFF765FEDDE9000301E03E
:108A6400032DF5D000F5E07113F80C3C5BF82110F0
:108A74002342C1F3014105D0022913D1032D0CD1A6
:108A8400294604E003290DD1032D06D102210090CB
:108A94000136FFF737FE0098F6B2BAF1000F01D0A5
:108AA4002946D0470137042FB2D136B14FF0A04345
:108AB400039AD3F81035934202D107B0BDE8F08F82
:108AC4000393049B05939DE7006000400038002059
:108AD40050380020014B1B68184700BF5C38002049
:108AE4000E4B984237B50C4602D0002003B030BD7F
:108AF40000230DF107008DF80730FEF745FE084B03
:108B04001D7915B901221C601A719DF80700FEF742
:108B14005FFE002DE9D01120E8E700BF00200040EF
:108B24005C3800200023435082B043580193019BDA
:108B340002B070470A4610B54FF48E71FFF7F2FF8A
:108B4400136A9168C95C136A01331362C0F81C1577
:108B540010BD024608B500684FF49271FFF7E2FFBA
:108B640010684FF48471FFF7DDFF136801221A6067
:108B740008BD8B690A4610B54FF4847123B9FFF719
:108B8400D1FFD0F8183510BDFFF7CCFF536AD16878
:108B9400D0F81805C854536A01335362F3E7000050
:108BA4001FB501238DF80030044BCDE90110D3E942
:108BB40000126846904705B05DF804FB6438002055
:108BC40030B54D4DD5F804339A0585B051D5D5F857
:108BD4002431002B4DD04FF492712846FFF7A2FFA9
:108BE4004FF40173C5F80833444B93F829200AB9AC
:108BF40001226A60404902228DF80020D1F88024C5
:108C0400C1F8802403929A690292DA6801920022E0
:108C1400C3E906226846D3E9001290473648D0F8E3
:108C24001C315BB1354A116A536999424DD292F8AD
:108C34002830002B49D11146FFF77CFF2E48D0F88D
:108C44004431002B55D04FF4A271FFF76BFF2B4B2F
:108C540093F829200AB1012202609A69002A48D0B7
:108C6400586AD96800229A6105B0BDE83040FFF720
:108C740097BFD5F804335B07D0D5D5F80831002B5E
:108C8400CCD01E4C1C482146FFF773FF636AA269CF
:108C94009A42C3D1E369E1684BB1A3612369E360FC
:108CA4000023606AE3616362FFF77AFFB6E794F832
:108CB40029300BB901236B600F4B4FF40172C3F8D9
:108CC40008230023606AA361EEE74FF48E710A481B
:108CD400FFF728FF51690029B0D000230291916861
:108CE4008DF80030019153616846D2E9001398472A
:108CF400A4E705B030BD00BF002000406438002068
:108D04002DE9F843594D90F804802C2303FB0853B4
:108D1400064693F82A300C469146002B40F0A28078
:108D240053490068FFF7DCFE0746002840F09C80AA
:108D340022683068511C0BD04FF0A04101239340AE
:108D4400C1F8083502F5E0734FF0030C41F823C075
:108D540061684B1C1FBF01F5E0734FF0A04C4FF04E
:108D6400000E4CF823E0A369C0F8243594F814C02D
:108D7400637DBCF1010F4CEA0303C0F86C35C0F805
:108D84001415C0F80C251DD1A268531C1FBF02F591
:108D9400E0734FF0A0414FF0000C41F823C0E368AA
:108DA400591C0BD04FF0A04C01219940CCF8081568
:108DB40003F5E0714FF0030E4CF821E0C0F80835DC
:108DC400C0F810252C2202FB08F2AB18C3F804905B
:108DD4002369AB50B9F1000F31D04FF48E71227F6B
:108DE400FFF7A0FE30684FF4A271FFF79BFE3368D3
:108DF4002049C3F80413190B43F30733002BA8BF0E
:108E040003F160404FEA5313BCBF01F00F041A484A
:108E14004FEA4212A8BF00F561404FEA8303D2B281
:108E240003F16043B4BF025580F8002303F56143A6
:108E340001F01F0101228A40C3F880211A603368BF
:108E44000422C3F800252C2303FB08530022C3E9A2
:108E5400062283F829205A61012283F82A20384601
:108E6400BDE8F8830827FAE71127F8E764380020FB
:108E7400C58B02008000020014ED00E00279044B6F
:108E84002C2101FB02335869003818BF01207047B8
:108E9400643800202DE9F84F064689469246FFF7CC
:108EA400EDFF044600283DD196F804801F4F2C2581
:108EB40008FB057B4FF48E71CBF82000CBF814A08F
:108EC4008BF82800CBF808903068FFF72BFE306849
:108ED400012383605946FFF72DFEDBF804305D461D
:108EE40013BB30682A6A6B699A4211D33368D3F88A
:108EF4001C21002AFBD00122DA6000202C2303FB72
:108F0400087700237B61BDE8F88F95F828303BB9DA
:108F1400D0F81C31002BF8D05946FFF70BFEE1E7DF
:108F24000F20EBE71120EEE72046ECE76438002041
:108F34002DE9F0473A4D07792C2303FB07530646E6
:108F44005C6824B103684FF40170C3F808032C2350
:108F540003FB0753986950B1D869002841D024B164
:108F640033684FF40172C3F80423112436E09A6184
:108F7400D9605862D8612C2303FB075393F8293036
:108F84001BB910B93046FFF7E4FD4FF02C0808FB7D
:108F9400075A3068DAF80430002B37D14FF4A27145
:108FA400D046FFF7BFFD3068D0F82491D0F80831DF
:108FB400D0F84441CBB914B9B9F1000FF3D02C2344
:108FC40003FB07550023AB61B9F1000F24D12CBB7F
:108FD40095F8291033680122B1B11A602046BDE822
:108FE400F0871961DA610120C5E7B9F1000FE6D114
:108FF400002CE4D14146FFF7BCFDDAF82430DAF85E
:1090040018209A42CFD8DAE75A60E7E74FF40173A1
:10901400C0F804330024E1E70324DFE70F24DDE78D
:10902400643800200023435082B043580193019BCD
:1090340002B070471FB501238DF80030054B8DF841
:10904400080001916846D3E90012904705B05DF825
:1090540004FB00BF903800207FB5374AD2F8246162
:10906400002E47D010464FF49271FFF7DBFF022326
:109074008DF80030D2F88034C2F880340393D2F8EB
:109084003C358DF808302D4BDA6801920022C3E993
:1090940006226846D3E9001290472748D0F84431A5
:1090A4006BB14FF4A271FFF7BDFF244B9A6932B143
:1090B40000229A61D0F83C05D968FFF7BBFF1E482F
:1090C400D0F82031A3B14FF49071FFF7ABFF1B4BE5
:1090D4005A696AB1D0F84C158DF8081000229968C5
:1090E4008DF8002001915A616846D3E90012904737
:1090F40004B070BDD2F81031002BCED04FF488717B
:109104001046FFF78FFF0D4BD2F83C059969884252
:10911400C3D1DC69D96864B1D2F8005225F02005C6
:10912400C2F800521A699C61DA60DE61FFF782FFBF
:10913400B3E79C61FAE700BF0020004090380020AC
:109144002DE9F8435D4E90F80480242303FB086363
:10915400054693F820300C469146002B40F0AA8037
:1091640057490068FFF7BCFC0746002840F0A4807C
:1091740022682868511C0BD04FF0A0410123934072
:10918400C1F8083502F5E0734FF0030C41F823C031
:1091940061684B1C1FBF01F5E0734FF0A04C4FF00A
:1091A400000E4CF823E0A369C0F8243594F814C0E9
:1091B400637DBCF1010F4CEA0303C0F86C35C0F8C1
:1091C4000C25C0F814151DD1A268531C1FBF02F54D
:1091D400E0734FF0A0414FF0000C41F823C0E36866
:1091E400591C0BD04FF0A04C01219940CCF8081524
:1091F40003F5E0714FF0030E4CF821E0C0F8083598
:10920400C0F81025242202FB08F2B318C3F8049016
:109214002369B350B9F1000F3BD04FF48871227F1A
:10922400FFF700FF28684FF49071FFF7FBFE2868F2
:109234004FF49271FFF7F6FE28684FF4A271FFF71E
:10924400F1FE2B681F49C3F80413190B43F30733CA
:10925400002BA8BF03F160404FEA5313BCBF01F0D9
:109264000F0419484FEA4212A8BF00F561404FEAC3
:109274008303D2B203F16043B4BF025580F80023E4
:1092840003F5614301F01F0101228A40C3F88021E4
:109294001A602B680822C3F80025242303FB086600
:1092A4000023C6E906337361012386F8203038466B
:1092B400BDE8F8830827FAE71127F8E7903800207B
:1092C4005D9002001003020014ED00E00279044BEB
:1092D400242101FB02335869003818BF012070476C
:1092E400903800202DE9F84301F06043B3F1005FAA
:1092F40006468846914634D1FFF7E8FF044690BB02
:1093040032791B4F3068242505FB02754FF49071A8
:10931400C5F81490C5F80880FFF784FE30684FF450
:10932400AC71FFF77FFE33686969A868C3F8440528
:10933400C3F84815012199606968B1B9D3F82011BF
:10934400D3F8580149B90028F8D00F20242303FB8F
:10935400027700237B61BDE8F883002818BF0F2043
:10936400F4E71020F7E71120F5E72046F3E700BF04
:1093740090380020F8B501F06043B3F1005F044673
:109384000F465ED10379304D242101FB0351496816
:1093940021B100684FF40476C0F80863242000FB70
:1093A40003539E6956B1D869002839D021B1236886
:1093B4004FF40472C3F80423112030E09A61DF6093
:1093C400DE6120684FF48871FFF72CFE20684FF4AB
:1093D400A271FFF727FE2368C3F83475C3F8382554
:1093E40016BB01221A602479242202FB045252681B
:1093F4000ABBD3F81011D3F84421D3F82401114344
:1094040002D10028F5D00A46242303FB0455002387
:10941400984218BF03209A42AB6118BF0F20F8BDD1
:109424001F61DA610126CCE7D3F8002242F0200262
:10943400C3F80022D7E74FF40472C3F804230020D2
:10944400EDE71020EBE700BF903800200220FEF784
:1094540099BF00002DE9F04780460D46FEF7B2FFA4
:109464000328044610D8012D10D0022D30D05DB948
:109474001A48FEF76DF81A4B04EB440213449D7826
:10948400184B1B5DAB4219D0BDE8F087144E00EBBE
:109494004003F218F55C5378470053B1DFF84C9061
:1094A4000E484A464FF40041FEF70AF808B989F815
:1094B400008027443E440B4BB2781A55002DE3D06C
:1094C400094B1B68002BDFD02846BDE8F04718473E
:1094D40000EB4004024804446578EFE7D8380020E4
:1094E40018390020313900202C390020B4380020EC
:1094F40000780221FFF7AEBF08B5094B1B7853B1C2
:109504000020FEF715FF0120FEF712FFBDE808401A
:109514000320FEF70DBFBDE80840FEF715BF00BFEE
:10952400B5380020F8B57A4C237805461BB10023E2
:109534002370FFF7E1FF172D00F28780DFE805F0C5
:109544000C1717425364757F878C878C949999996B
:109554009999C3C8D0D8E3E3FFF7CEFF6D48FDF770
:10956400F7FF6D4B002204461A702046F8BD002018
:10957400FEF7C4FEF0B10020FEF7DAFE022D0CBFA8
:109584004FF4E1644FF47A64634B1D7000254FF48B
:1095940000464FF4FA7029464FF47A720023E4FB34
:1095A400060102F079FC2A460146BDE8F840594814
:1095B400FDF786BFFEF7B0FE022D0CBFC8244FF4A2
:1095C400C874E1E70020FEF799FE40B10020FEF7E1
:1095D400AFFE4FF44874504B03221A70D6E7FEF7DF
:1095E4009BFEC824F7E70020FEF788FE38B1002070
:1095F400FEF79EFE4FF47A64474B0422EDE7FEF734
:109604008BFE4FF4C874F7E70020FEF777FE48B1ED
:109614000020FEF78DFE404B05221A7041F69A1188
:109624000022C2E7FEF778FEF5E70020FEF7AAFE67
:10963400394B06221A70002240F6CD41B5E70020CE
:10964400FEF76AFE344B07221A7000248DE70120CE
:109654002070FEF797FEEEE701202070FEF792FEE1
:1096640000224FF48041A0E7FEF77DFE2A4B0C2236
:10967400EAE72A482A4EFDF76BFFD5F111050446A7
:109684001CD0D8B9012D13D0C820454321464FF42E
:1096940000474FF4FA704FF47A720023C5FB0701B8
:1096A40002F0FAFB224601461C48FDF709FF044676
:1096B4000220FEF731FE0123337056E70220FEF745
:1096C40037FE0023F8E7FFF717FF134B1222BBE71F
:1096D400FFF712FF0020FEF71FFE0F4B1322B3E724
:1096E400FFF70AFF0120FEF717FE0B4B1422ABE72E
:1096F400FFF702FF0020FEF70FFE0120FEF70CFE2D
:10970400054B1522A0E7FEF72EFE034B1D709CE7C8
:1097140028390020F838002030390020B8380020DB
:10972400B5380020044B1B68DB0703D5034B1878BE
:10973400FFF7F8BE704700BF2439002030390020FD
:1097440010B5002914BF03240024FEF74DFE800049
:1097540000F1A040D0F8002722F44032C0F80027DE
:10976400D0F8003743EA0443C0F80037002010BDA6
:10977400032801D8FEF718BE00207047044B1B686D
:1097840013F0010301D0FFF7CDBE1846704700BFA8
:109794002439002038B51C4B18601C4B10F002040F
:1097A400054619601AD01A4B1A480E221A700F2255
:1097B400DA7010229A7111225A72042140F2666200
:1097C400FDF748FB044648B9FDF79AFB044628B95F
:1097D4000146114A1148FDF761FE0446EB0711D515
:1097E4000120FEF707FE6CB921460D4A0D48FDF72E
:1097F40055FE044630B9BDE838400B4A0B480121F8
:10980400FDF74CBE204638BD243900202C390020F9
:109814001839002060C90200F594020084C90200CE
:109824002997020088C902005194020080C90200ED
:10983400032811D8012A0AD101290FD100F10E02FF
:10984400D2B20D4B00EB40001A540020704701299E
:10985400F7D0022904D049B1072070470022F8E765
:10986400054B00EB400018444270EEE7024B00EB5E
:10987400400018448270E8E718390020032802D811
:109884000121FFF75DBF0620704708B501220221C0
:109894000020FFF7CDFF08B1072810D107220221CD
:1098A4000120FFF7C5FF08B1072808D100210A22CB
:1098B4000846FFF7BDFF10B1072808BF002008BD08
:1098C4000388102B10B502D0112B1ED010BD1A4CDA
:1098D4002168B1B901220846FFF7AAFF08B1072899
:1098E40024D1072202210120FFF7A2FF08B1072893
:1098F4001CD1042202210020FFF79AFF08B1072897
:1099040014D1236801332360E0E70B4A1368013B59
:109914001360002BDAD1FFF7B8FF0028D6D0074B2D
:109924001B68002BD2D0BDE810401847034B1B68BE
:10993400002BE6D09847E4E73C3900203839002072
:1099440008B50020FFF79AFF08B1062806D10120C8
:10995400FFF794FF10B1062808BF002008BD0000DF
:109964000D4B10B518600C4629B10120FFF700FF1C
:1099740040B102232370094B1B6853B9BDE8104062
:10998400FFF783BFFFF7F4FE08B10B23F2E7207063
:10999400F1E7002010BD00BF383900203C39002019
:1099A40076DF70477ADF70477CDF70477FDF704770
:1099B4008FDF7047B1DF704733DF704713B5132172
:1099C4000190FFF7EDFF019A034660B10748084C88
:1099D4000849241AE408240444F0020002B0BDE853
:1099E4001040FDF726B802B010BD00BF3CC2020013
:1099F40064C202008CC90200FDF798BA08B50020C1
:109A0400FFF7BCFE08B1FDF791FAFFF799FF08B123
:109A1400FDF78CFAFFF7D0FF18B1BDE80840FDF759
:109A240085BA08BD0388212B13B504463FD007D857
:109A3400112B2DD0132B48D0102B0CD002B010BDFD
:109A4400522B4AD0562B01D03B2BF7D1A08813219F
:109A5400FFF7A6FF15E0254B25482649C01AC00884
:109A6400000440F00300FCF7D7FF0720FFF786FE51
:109A740008B1FDF75BFA204BA1882048198001F05A
:109A84001FFC0028DAD002B0BDE81040FDF74EBA42
:109A9400164B17481A49C01AC008000440F00300C6
:109AA400FCF7BAFF144B4FF6FF721A80C6E7002387
:109AB40080888DF8043001A98DF80530FFF778FF10
:109AC4000028BBD0FDF732FAB8E70B4800231A464A
:109AD40085210088FFF76AFFD3E7074800231A4669
:109AE40019460088FFF766FFCBE700BF3CC20200BF
:109AF40064C20200CDC9020026300020A83C002028
:109B0400D7C9020010B5204B204A9B1ADB088CB041
:109B14001B04032835D8DFE800F002262E3243F078
:109B2400030420461A49FCF777FF2C22002101A8E0
:109B340002F0B3FA44F2506240210123CDE9051248
:109B440014488DF8083001A98DF8043000F060FF46
:109B54000021114801F058F9104902462046FCF74B
:109B64005FFF0CB010BD0E4943F003000CB0BDE81C
:109B74001040FCF751BF0B4943F00100F6E70A49D6
:109B8400FAE70A49F8E700BF64C202003CC20200D7
:109B9400E4C90200383A0020C199020012CA020046
:109BA40029CA02004CCA020085CA0200B2CA0200D5
:109BB40008B503784BB9054B3B211888FFF7F0FE35
:109BC40018B1BDE80840FDF7B1B908BD2630002042
:109BD400072808B513D00A280DD0042819D10D4B35
:109BE40013211888FFF7DCFE30F0080311D0BDE81C
:109BF4000840FDF79BB9BDE80840FFF7FFBE054BE1
:109C04001A884FF6FF739A4203D1034800F0E2FE2C
:109C1400EAE708BD26300020383A002008B548B1EC
:109C240003280BD10220FFF7A9FD38B1BDE8084095
:109C3400FDF77CB9BDE80840FFF7E0BE08BD0000B1
:109C4400F7B50378012B33D0022B31D073BB1B4CF7
:109C54001B4D20782844FDF759FD23780133DBB2EE
:109C64001D44237015F8012C0A2A05D00D2A03D0AF
:109C7400144A12889A4219D8012B15D9124D104E44
:109C8400124F2378ADF806300DF106022B883146C9
:109C9400384601F081FC082806D01328F1D00528A5
:109CA40002D008B1FDF742F90023237003B0F0BDE0
:109CB400406803B0BDE8F040FDF738B9343A0020FD
:109CC4004039002024300020263000202830002095
:109CD4002DE9F0410578064645BB154C154BDFF8D8
:109CE4005880E41AE408240444F00104B28A95423A
:109CF4000AD33369134413F8013C0D2B16D10A20FF
:109D0400FDF71AFD1128F9E73369585DFDF714FDD5
:109D1400074648B11128F7D0024641462046FCF7D1
:109D24007FFE3846FDF702F90135DFE7BDE8F08133
:109D340064C202003CC20200D9CA02000D4B4A8828
:109D44001B889A4214D10A8840F677239A420FD18D
:109D54008B88094A09480A49033B9BB21380094A84
:109D6400801AC00800041A4640F00300FCF761BEE4
:109D7400704700BF263000202430002064C2020057
:109D840004CB02003CC20200FDF7D0B808B5084974
:109D9400084801F075F908B1FDF7C8F80548F7213E
:109DA40001F082F918B1BDE80840FDF7BFB808BD5D
:109DB400419D0200903C002030B54FF40041B1B009
:109DC4000020FCF76DFC08B1FDF7B0F8FCF79CFB34
:109DD40001F0C2FF08B1FDF7A9F86B4D0FCD05AC3A
:109DE4000FC495E80300694B694A01934FF48073EB
:109DF40084E80300CDE903230293664A072301A9FB
:109E040005A8FDF72BFC08B1FDF790F8FDF716FB4C
:109E140008B1FDF78BF860490320FFF7BBFC08B1DC
:109E2400FDF784F805A90020FFF79AFD08B1FDF7B6
:109E34007DF8FEF721F808B1FDF778F801F028FC69
:109E440008B1FDF773F8002305A90120059301F07B
:109E5400B1FC08B1FDF76AF805A801F06BFD08B183
:109E6400FDF764F811234D498DF804300B2201A845
:109E7400FFF79AFD08B1FDF759F81023ADF8143037
:109E84003C230024ADF8163005A84FF4C873ADF890
:109E94001840ADF81A30FFF785FD08B1FDF746F814
:109EA400FFF774FF3E4B3F48059401A9019301F06D
:109EB400F5F908B1FDF73AF83B4B3C480093694685
:109EC40001F0F0FA08B1FDF731F8394B059305A814
:109ED40001F0C6FE08B1FDF729F8AC22002105A85F
:109EE40002F0DBF802238DF8143005238DF81730C7
:109EF40001234021ADF860308DF8903044F2506376
:109F0400CDE927132B4A2C4B2C48199205A92E93E3
:109F140000F0A1FB08B1FDF709F82848012100F081
:109F240097FB14220DEB0200002102F0B6F84FF467
:109F340070234FF42032CDE9062303238DF820301B
:109F44001F4B0A9305A81F4B0B9300F06DFE08B13D
:109F5400FCF7ECFF1C4802F05DF81C4B1C481D4943
:109F6400C01AC008000440F00300FCF755FD134874
:109F7400032100F0EDFB08B1FCF7D8FFFCF7EAFB86
:109F8400FDF790FFFAE700BF68CB0200B43C002065
:109F9400B43D0020459C0200D59B020020CB02006A
:109FA400FD990200A83C0020D59C02002830002026
:109FB400099B020020300020219C0200383A002036
:109FC400B59B02008D9D02002CCB02003CC2020016
:109FD40064C202003DCB02000369C26893429CBF85
:109FE40080681B18013B981A70472DE9F843D0E9A3
:109FF40002940546A9EB04084068904520440F46A6
:10A00400144404D902F020F8EC60BDE8F883424619
:10A01400A4EB090402F018F86868224607EB08016B
:10A02400F0E72DE9F843C5680646894617464FF020
:10A0340000083469B3687068A54228BFE418013C7D
:10A04400621B5C1BBC4228BF3C46944228BF14469A
:10A0540049462844224601F0F7FFB3682544AB4241
:10A0640008BF00253F1BA044A144F560E1D1404650
:10A07400BDE8F88310B5114C114AA2610223C4E96A
:10A084000433104BE361A2644FF400730E4A0F498A
:10A094002362E26400231022E01DA3626362E36290
:10A0A400A3656365E365226502F02AF80849204642
:10A0B40002F026F82023A37110BD00BFB43E002097
:10A0C40080CB02003C3F00202C3F002089CB0200C3
:10A0D4008DCB020070B5164B182400FB04451D44BB
:10A0E40004FB00331646DC6A012C0ED0022C18D077
:10A0F400E4B92846FFF770FF864204D83246284662
:10A10400FFF773FF3446204670BD2846FFF764FF0F
:10A114008642344628BF044622462846FFF765FF98
:10A12400F1E72846BDE87040FFF77BBF0024EAE76B
:10A13400B43E0020FFF79EBF6DDF704779DF7047A4
:10A144007DDF704764DF70472DE9F04F85B000254F
:10A154000E9CBDF83CB0B4F800A0019107469046AF
:10A164001E46A9463A884A450DDC45B12388013B81
:10A17400A3EB0A039BB2FF2B3AD806F80A3000205F
:10A1840005B0BDE8F08F7A6852F8290003900022E8
:10A194000DF10B0103A8FFF7D5FF0028F0D19DF8BE
:10A1A4000B20424521D12288002D14BF002002201B
:10A1B40002EB0801014459451ADC3DB9013292B25F
:10A1C400019B2280B35422880132228022880DF11F
:10A1D4000B01324403A8FFF7B5FF0028D0D1218832
:10A1E4009DF80B200A442280012509F10109B9E7F1
:10A1F4000C20C5E72DE9F341089FBDF824801546DE
:10A20400CDE90078022204461E46FFF79DFF50B9AF
:10A214003346102229462046CDE9087802B0BDE82D
:10A22400F041FFF791BF02B0BDE8F0812DE9F04F96
:10A2340000231788138090F82D3085B006460D460C
:10A2440014465BB3082F01D80C2028E102A8FFF7BD
:10A2540073FF002840F023812388DDF809100822C9
:10A26400EA54238801339BB21B222380EA542388B7
:10A2740001339BB2EA182380E950BDF80D30938076
:10A2840023889DF8082006339BB212F0FE0218BF03
:10A2940001222380EA54238801332380B378FBB15D
:10A2A40023880433BB42CFD802A8FFF747FF002816
:10A2B40040F0F58023880322EA54238801339BB2BB
:10A2C40019222380EA542388BDF8082001339BB265
:10A2D400E9182380EA54120A4A702388023323803F
:10A2E400F2789AB12388D91CB942ADD80221E95435
:10A2F400238801339BB201212380E95423880B4432
:10A304009BB22380EA5423880B4423807268AAB149
:10A314002388D91CB94297D8022192F90020E95424
:10A32400238801339BB20A212380E9542388013313
:10A334009BB22380EA542388013323803389002B82
:10A3440040F0A180338A5BB1CDE900472B46072258
:10A35400032106F11000FFF74DFF002840F09F8015
:10A36400338B5BB1CDE900472B461522142106F14E
:10A374001800FFF73FFF002840F09180326A002A5E
:10A3840040F09080D6F82480B8F1000F30D0B8F8AF
:10A3940004302188981C8A1C0244BA423FF654AF08
:10A3A400FE283FF651AF03336B54238801339BB22D
:10A3B400FF222380EA54238801339BB22380B8F818
:10A3C4000020EA54E918120A4A702088023080B248
:10A3D4002080B8F804205AB1D8F8081000296BD0AE
:10A3E400284401F031FE2388B8F804201344238064
:10A3F40096F82C30002B40F09880307800284ED00E
:10A404003388012B58D0228802F1020CBC453FF658
:10A414001BAF012805D17378023313449F42FFF424
:10A4240013AF023FBF1ABFB202A905EB0C00ADF88F
:10A434000870FFF785FE90BB3178BDF8083002291B
:10A4440000F0B98072789A4202D39F4280F0B180C2
:10A45400012940F0B280974293B2C0F0AE80ADF8CB
:10A4640008300821BDF80830FE2B3FF6EDAE2288F7
:10A474000133AB542288013292B22280A95422883B
:10A48400134423800BE0CDE900472B46062202212A
:10A4940006F10800FFF7AEFE00283FF453AF05B005
:10A4A400BDE8F08FB4F800C00CF10603BB423FF6E0
:10A4B400CBAE1188052901D80720F0E76FF4486E68
:10A4C40001EB0E039BB24FF27D3E7345F4D95388E2
:10A4D400052BF1D96FF44860181880B27045EBD998
:10A4E4004FF6FF70814201D09942E5D8052305F863
:10A4F4000C30238801339BB212212380E954238832
:10A5040001339BB223801188E954E818090A417089
:10A51400238802339BB223805288EA54E918120A32
:10A524004A702388023323802CE7B36A002BC3D0FC
:10A534004FF000084FF00C0A4FF0160BB16A5FFAA7
:10A5440088F20AFB02F201EB0209B9F80430981C04
:10A55400FE283FF679AE208803332B542388013339
:10A564009BB2238005F803B0238801339BB2238078
:10A574008A5AEA54E918120A4A702088023080B2D2
:10A584002080B9F804205AB1D9F80810002993D0D2
:10A59400284401F059FD2388B9F80420134423808A
:10A5A40096F82C2008F101085FFA88F39A42C5D87E
:10A5B40023E7092156E79F42FBD2ADF8087050E724
:10A5C40070B5C0B14AB116880024B44203D305194A
:10A5D4006D789D4208D0A14201D800200BE0055DB2
:10A5E40001352C44A4B2F0E7A142F6D9A31C138090
:10A5F400005D013880B270BD13B513460022ADF87A
:10A6040006200DF106020446FFF7DAFF10B1BDF88B
:10A614000630E01802B010BD72DF704773DF704778
:10A6240074DF704738B5012204460D46B0F838127D
:10A63400D0F83402FFF7E0FF00B1057004F13C02EA
:10A6440004F50D7104F15400BDE83840FFF7E4BF90
:10A6540080F830107047F8B504460F46002973D0CF
:10A66400002871D091F87A301BB191F89830002B02
:10A674006CD1D7F8A030042B68D0D7F89C30042BC9
:10A6840064D04FF0000C84F802C007F178060FCEB6
:10A69400251D0FC50FCE0FC596E8070085E80700F6
:10A6A40084F830C0D7F8A4306363D7F8A830A36324
:10A6B40004F50D724FF6FF73C4F84AC2A4F8483289
:10A6C400C4F84422C4F84DC222780AB984F854303C
:10A6D40094F82430002B14BFEE231F2304F15501FA
:10A6E400C4F83412A4F8383204F50E723846FFF771
:10A6F4009DFD40BB94F82430002B14BFEE231F2390
:10A7040004F24311C4F83C12A4F8403204F5107268
:10A7140007F13C00FFF78AFDA8B9A369A4F8483003
:10A724004FF480730125A4F8503063692064014616
:10A7340084F83C50636404F13C0204F15400FFF7D4
:10A744006BFF00B92570F8BD0E20FCE70720FAE77F
:10A75400F8B5067804460D46002E00F00381002368
:10A76400C0F84A32C0F84D32C388817000F24A27DB
:10A774000BB1012903D0E37943B1022D06D1636BF8
:10A78400A3B1012284F851220820984704F24B22F5
:10A7940004F2512112F8013B5BB99142FAD16A1ECD
:10A7A400032A4FD8DFE802F0070D111484F8513260
:10A7B400ECE73346F3E7A2791AB194F8242002B9FE
:10A7C4005BB9E2790AB1002B3ED1237A002B3DD14B
:10A7D400637A002B0CBF00250425636BA570002B46
:10A7E40036D0033D012D33D862798AB394F85222CE
:10A7F40072BB84F85422012284F85322072098471C
:10A8040004F13C0518220021284601F046FCE26AC6
:10A814000123511E994284F83C3098BFD3B284F886
:10A82400513094F8243088BF00261BB1A6B1A26A27
:10A8340084F85220A278042A1ED8DFE802F07A0FA6
:10A8440025385C000025C8E70225C6E70325C4E7D0
:10A85400002384F85332D3E70122E9E7012384F883
:10A8640031300023C4E91073C4F84432022384F85D
:10A874003C308023A4F84830A378002B5DD1636B6F
:10A88400002B6BD1002068E0002B14BF07230323A7
:10A8940084F83C302369A4F8483000230222C4F829
:10A8A4004432E36884F8312027646364E4E762692E
:10A8B4006264A269A4F8482013B1062384F83C30EA
:10A8C4006379B3B194F852329BB994F8543283B19A
:10A8D400022384F8503004212046FFF7A3FE002809
:10A8E400CAD1052384F8313004F50D73C4F8443219
:10A8F400C2E70323F6E7E2696264226AA4F8482007
:10A9040013B1062384F83C30637983B194F852324E
:10A914006BB994F8543253B1022384F850300421B3
:10A924002046FFF77FFE0028A6D10623DAE704239A
:10A93400D8E7002384F831309EE7D4F844122A463D
:10A9440004F15400FFF768FE38B994F8301094F815
:10A954005400FFF763FE002891D0F8BD94F831004D
:10A9640098478FE70820F8E70388112B10B50C46A9
:10A974000AD0262B1FD0102B05D1C37B012B02D16B
:10A984008388A1F8483210BD0022838881F85222BE
:10A99400B1F848229A42F6D10B79002BF3D1012168
:10A9A4002046FFF7D5FE0028EDD0A36B002BEAD09C
:10A9B400BDE810401847037A013B012BE3D889789E
:10A9C40005230131B1FBF3F303EB8303C91AC9B2C5
:10A9D400E6E7704738B5044690F85400FFF720FEC8
:10A9E400012384F85232002384F8543284F850301E
:10A9F40006212046FFF716FE054638B9A178204601
:10AA0400FFF7A6FE10B1A36B03B19847284638BDE3
:10AA140030B50D46041D0FCD0FC40FCD0FC495E8FE
:10AA2400070084E8070030BD75DF704776DF7047A4
:10AA34007ADF70477BDF7047034B1A8882420CBF72
:10AA440018460020704700BF58410020024B9B6904
:10AA540003B11847704700BF3C41002073B585B26D
:10AA64002846FFF7E9FF044638B3174E027A337BD2
:10AA74009A420CD200F10A012846FFF7D5FFF0B143
:10AA840011281AD002B0BDE87040FFF7DFBF0023E1
:10AA94000372337C43B13B212846FFF7C7FF30F0F4
:10AAA400080301D0FFF7D2FF736933B100228DF898
:10AAB4000420ADF8065001A8984702B070BD237A6F
:10AAC40001332372F9E700BF3C41002037B50B4640
:10AAD400497A0F4A79B9D2E901141D7A0246002D48
:10AAE40018BF21465868FCF7EBFC78B103B0BDE809
:10AAF4003040FFF7ABBF00211972536933B1012213
:10AB0400ADF806008DF8042001A8984703B030BDC5
:10AB14003C4100204B8802889A4212D842889A42CB
:10AB24000FD380888B8840F2F311884294BF021AB5
:10AB3400421A9A4205D80844984234BF00200120A2
:10AB440070470020704700000388122B70B501463F
:10AB540059D004D8102B1ED0112B44D070BD502BCB
:10AB6400FCD12F4BC288DB899A42F7D1038A022B8E
:10AB7400F4D186883046FFF75FFF05460028EDD004
:10AB840001F1120000F088F938BB6868FCF7E0FCBA
:10AB94000028E3D009E0C37B012BDFD14FF6FF701F
:10ABA400FFF74AFF054620B90420BDE87040FFF7CF
:10ABB4004DBF1C4A8E880680002303721368C0F8B8
:10ABC4000A305368C0F80E3010310A30FFF7A2FF84
:10ABD400134B6872DB89002BC0D129463046BDE88F
:10ABE4007040FFF773BF8088FFF726FF04460028F4
:10ABF400B4D04068FCF7ACFC08B1FFF727FF4FF670
:10AC0400FF732380AAE786883046FFF715FF0546C1
:10AC14000028A3D008310A30FFF77CFF6872DCE714
:10AC24003C4100206C410020F8B5064648B3054677
:10AC34000FCD154F3C460FC495E8070084E8070084
:10AC44003068124C3C60B0B1FFF7F2FEC0B9326814
:10AC540013682360536863600D480E4A4FF6FF7310
:10AC640003800D4B40F8043F0021FCF717FC00283B
:10AC740018BF032004E02046FFF7DCFE0028EBD0D9
:10AC8400F8BD0E20FCE700BF3C4100206C410020D1
:10AC94005841002061AA020074410020F7B517460C
:10ACA40001900E4691B1019C6CB100252C462946B9
:10ACB40001A8FCF7B6FD18B13946A8B2B047013473
:10ACC4000135142DF3D1204603B0F0BD0C46FAE74C
:10ACD40073B50191019C06466CB100252C462946AA
:10ACE40001A8FCF79EFD18B106EB440301349D80D6
:10ACF4000135142DF3D13046346002B070BD00002C
:10AD04002DE9F04703888488112B8CB005463DD08B
:10AD14001A2B42D0102B19D1DFF8C080D8F8083094
:10AD2400DB430093D8F804106846FCF7A6FD0099AD
:10AD340001A8FFF7CDFF0DF108090027019B9F42F1
:10AD440007D3132C12D90420FCF7F0F80CB0BDE89B
:10AD5400F08739F802AB00260136514608EB86002D
:10AD6400FCF755FD1D2EF7D10137E7E716482146BC
:10AD7400FCF744FD15482146FCF740FDEB7B012B15
:10AD8400E4D013482146FCF739FDDFE70E4821469D
:10AD94000CB0BDE8F047FCF73ABD037A0D481F2B11
:10ADA4004FEA131521460AD9FCF728FD022D0A485B
:10ADB4002146EDD00CB0BDE8F047FCF71FBDFCF711
:10ADC40026FD05482146E3E79C41002098410020E8
:10ADD400A0410020A4410020A8410020944100206B
:10ADE4001328014602D80248FCF71BBD0020704717
:10ADF4009841002010B50446FFF7F2FF002814BF65
:10AE04002046142010BD0000034B9B680A460146EF
:10AE14001846FFF743BF00BF9441002070B50546B4
:10AE2400164608460AB90E2070BD00231360002D93
:10AE3400F9D02B68002BF6D0EB8813F003040ED165
:10AE4400FFF7D8FFC0B214280BD02B7983420AD95C
:10AE5400EA882B6800FB023030602046E4E70720D4
:10AE6400E2E70520E0E70420DEE7AADF70470023DD
:10AE740001380B70042806D8DFE800F00306080A3E
:10AE84000C0011230B7070472123FBE73123F9E7F2
:10AE94001223F7E72223F5E7008800F0010070474A
:10AEA4000088C0F340007047F0B58B7891B00C4631
:10AEB400012B38BF012300278DF80E3005460B887F
:10AEC400607CADF80C306946ADF800708DF8027006
:10AED400FFF7CDFFA07C0DF10101FFF7C8FF164677
:10AEE400237BE27B217D43EAC203227C43EA0213F3
:10AEF4009DF80220B94222F0190203F0190314BF8D
:10AF040002210121134361F342031C22394609A89B
:10AF14008DF8023001F0C1F8637B13F0300F14D0C8
:10AF24000DF10901E07CADF808708DF80A70FFF7A7
:10AF34009EFF11238DF808309DF80A30012102AAE2
:10AF440061F342038DF80A300E92637B8DF824304E
:10AF5400A37B8DF825300023CDE90633089303AB9A
:10AF64000493A388ADF81C30A368CDF814D01BB1AA
:10AF7400E288ADF818200893A36973B301A90022ED
:10AF8400ADF804208A701A88ADF82C205A88ADF8E0
:10AF94002E205A680D91187B0A92FFF768FFA36967
:10AFA4000DF10501587BFFF762FFA3699A7A197ABC
:10AFB40041EAC201DA7A9B7B41EA02119DF806203C
:10AFC400002B01F0190122F0190214BF02230123FE
:10AFD400114363F342018DF80610E36903B10C9346
:10AFE400334604AA09A92846FFF73FFF11B0F0BD74
:10AFF40090DF7047A5DF7047B5DF70477FB500234A
:10B00400ADF80810ADF80A106A4602A90646ADF874
:10B014000C30ADF80E300093ADF80430FFF7E8FFC4
:10B02400054600B3114B124CE41AE408FCF7F6FF92
:10B03400240444F0010403460E4932462046FBF73B
:10B04400F8FCBDF80020BDF8023052EA030103D039
:10B0540009492046FBF7EDFCBDF804201AB1074965
:10B064002046FBF7DDFC284604B070BD3CC202005C
:10B074007CC2020094CB0200DECB02001DCC020095
:10B0840080B14FF0F7130360FB230371F723C380F0
:10B094001723038141F6FB3200230161438182813E
:10B0A400184670470E20704730B1A1F11703E02B0A
:10B0B40004D80180002070470E2070470720704795
:10B0C40013B5034680880C46B8B91A88242A00F0C0
:10B0D4009C8014D8112A74D0232A00F0A780102A47
:10B0E4003ED0A37A4BB1E1880020FFF783FF00280C
:10B0F40040F0A2804FF48073638102B010BD3A2AFD
:10B1040068D0552AEDD1DB88C988A072172B38BFC7
:10B1140017238B4228BF0B462381FFF76DFF60B1D5
:10B12400FCF77CFF4E4B4F4902464F481B1ADB0885
:10B134001B0443F00100FBF773FCE27A002AD0D130
:10B144002369002BCDD040F67721ADF80220228967
:10B15400ADF80010ADF80420694620469847C0E7D2
:10B16400DB7B0A790A73012B13D0022B14D0E188FC
:10B1740023898B4205D20020FFF73CFF70B90123DD
:10B18400E372217B637B8B42ABD20020FFF736FF57
:10B19400A7E70B88E380EAE74B88FBE7112802D195
:10B1A4000123A372EDE7FCF739FF2D4B2F4902462B
:10B1B4002D481B1ADB081B0443F00100FBF730FC8D
:10B1C400DFE7F723CB8017230B8141F6FB3348815C
:10B1D4008B8186E75B89CA88934228BF1346172B65
:10B1E4000A6938BF17230B8162B1C97A51B140F69D
:10B1F4007721ADF80010ADF80200ADF804306946CF
:10B2040020469047002363816BE71A7A0B694A73DF
:10B21400002B3FF466AF4DF67A218DF80500ADF8AA
:10B224000010ADF802008DF8042095E7197A237B0D
:10B23400994228BF1946A9E711283FF45EAFFCF7ED
:10B24400EDFE074B0949024607481B1ADB081B049D
:10B2540043F0010002B0BDE81040FBF7E1BB00BFC2
:10B264007CC20200A4CC02003CC2020073CC0200E7
:10B27400B0DF704766DF704710B500210446408890
:10B28400FFF7F8FF034608B9237210BD112801D156
:10B294000123F9E76368BDE81040184760B159B16C
:10B2A4000378DE2B0AD00B684360DE2303704FF66D
:10B2B400FF734380002070470E20704708207047BA
:10B2C40028B10378DE2B04D14180002070470E2082
:10B2D400704708207047F0B5054685B00C46002934
:10B2E40042D0002840D00B78DE2B3DD182884B8899
:10B2F4009A4204D10B7A13B10846FFF7BDFF2B889D
:10B30400112B33D0512B0FD0012B2DD12B7A012BA4
:10B314002AD1A9886288914226D12046237205B099
:10B32400BDE8F040FFF7A8BFAE886388B3421BD1E5
:10B33400AF79022F18D1AD7B2B1F022B14D800211B
:10B344001022684600F0A9FE052D18BF4FF4C07303
:10B354006946304618BFADF804308DF80070FFF729
:10B3640087FF08B16368984705B0F0BD6388AA8871
:10B374009A4204BF4FF6FF736380F5E7A8DF704776
:10B38400ADDF7047AEDF704762DF704770B50546CA
:10B394008AB00C4600295ED000285CD00388502B6C
:10B3A40033D0572B6BD0102B55D181886069002680
:10B3B40001AA0196FFF732FD0223218AA888ADF87D
:10B3C4000A6002AACDF80CD0ADF80830FFF7D8FF18
:10B3D400002840D1A369002B3DD00398FFF75CFD02
:10B3E400002838D0019E0EB10123337018220021A9
:10B3F40004A800F052FE02238DF81030AB88ADF89B
:10B4040018300594A369079623E08188606902AA2D
:10B41400FFF704FD1822002104A800F03EFEAB88CB
:10B424002189ADF81830EB88029A05949942079265
:10B4340018D12E8A022E15D16AB105F11200FFF738
:10B444002BFD029B48B101221A708DF81060A3698C
:10B454000BB104A898470AB070BD187003238DF887
:10B464001030F4E7A2899A42F5D1A369002BF2D0F7
:10B4740005F1120208922A8AADF82420E9E78188AE
:10B48400606902AAFFF7CAFC01460028E3D1029EC4
:10B494003378002BDFD0182204A800F0FEFD01232E
:10B4A400AAE70000F0B53A4B8FB002AD04460A4655
:10B4B40003F1100C2F46186859682E4603C608334A
:10B4C40063453546F7D1002C5FD0002A5DD0136860
:10B4D400A36121463846FFF757FF002853D122467F
:10B4E400012512F8023B8DF8063001A92846ADF873
:10B4F4000450FFF743FF002845D10146202206A847
:10B5040000F0CBFD22460223ADF8183012F80C3BB4
:10B514008DF81A30BDF824301E4E6088079623F447
:10B524004F6323F00F0343F440632B4306A9ADF8A4
:10B5340024308DF829508DF82A50FFF7B5FC10BB44
:10B544000146202206A800F0A8FD22460323ADF8F8
:10B55400183012F8043B8DF81A30BDF82430608896
:10B56400079623F4875323F01F0343F480532B439C
:10B57400ADF8243006A940F201138DF82950ADF836
:10B584002A30FFF791FC0FB0F0BD0E20FBE700BF9F
:10B59400E8CC0200F4000100F0B50F4687B016466F
:10B5A4001C46054610B3406901AA1946FFF736FC4C
:10B5B400D0B94FF6FF739C421AD0019BC3B11B78DC
:10B5C400C3B13388F42B17D8AB88CDF80B008DF8B2
:10B5D4000F00ADF8083002A901232046CDE9046725
:10B5E4008DF80A30FFF7CEFE07B0F0BD0E20FBE762
:10B5F4000520F9E70820F7E70720F5E710DF704793
:10B6040013B5044609496846FCF7D3FC019808B908
:10B6140002B010BDD0E900212046904718B1684619
:10B62400FCF7D1FCF2E71120F2E700BF04CD0200E1
:10B6340013B5044607496846FCF7BBFC019B0BB9EC
:10B6440002B010BD2046D3E9002190476846FCF7BC
:10B65400BAFCF3E71CCD02000B4991F816335A09E2
:10B66400EC231341DB0706D5084B9A683AB94FF42B
:10B6740080030B60704742F20200FBF757BC1A6864
:10B6840042F480021A60704700E100E0BC370020F9
:10B69400F7B5194F3C7864BB184E01252046357028
:10B6A400FFF7AEFF112821D02046FFF7C1FF144B4E
:10B6B4008DF80340186801900DF10300FCF764F85D
:10B6C400104901A8FFF79AFF0446B0FA80F0400938
:10B6D40038709DF80300FCF77BF83CB90A4B3470D2
:10B6E4001C70FFF7B9FF2846FFF7A2FF204603B0FE
:10B6F400F0BD0824FAE700BF0D4200200C420020F0
:10B7040000CD02004D6F02000E420020014B18785C
:10B71400704700BF0D42002007B508496846FCF792
:10B7240048FC019B13B903B05DF804FBD3E9002086
:10B7340090476846FCF747FCF3E700BF10CD0200D2
:10B74400FFF7EABF60DF704769DF704761DF70476A
:10B7540030B5134DADF5017D4FF4FA740DF10201CE
:10B7640003A8ADF80240FFF7F1FF70B9294601A81C
:10B77400FCF71FFC029B002BF0D003A8D3E90021A7
:10B78400904701A8FCF71FFCF4E7052805D00DF548
:10B79400017DBDE83040FBF7C9BB0DF5017D30BD2F
:10B7A400A4CF0200024B1B780BB1FFF7D1BF704747
:10B7B4000F42002030B5054685B00C46002900F044
:10B7C400A5800023CDE90133514A039301230A6084
:10B7D4008DF804008DF8063001A906232020ADF869
:10B7E4000830FFF7B1FF60B1FCF718FC494B4A4938
:10B7F40002464A481B1ADB081B0443F00100FBF70E
:10B804000FF90023CDE9013303932268012301A931
:10B8140040208DF80530FFF797FF60B1FCF7FEFB81
:10B824003C4B3F4902463D481B1ADB081B0443F0CE
:10B834000100FBF7F5F80023CDE9013303932268F7
:10B844008DF80450F72301A92320ADF80630FFF743
:10B854007BFF60B1FCF7E2FB2E4B324902462F48D6
:10B864001B1ADB081B0443F00100FBF7D9F8002383
:10B87400CDE9013303932268022301A901208DF845
:10B884000430FFF761FF60B1FCF7C8FB214B264988
:10B89400024622481B1ADB081B0443F00100FBF795
:10B8A400BFF80023CDE9023322684FF4B06301A945
:10B8B400A1200193FFF748FF60B1FCF7AFFB154BE4
:10B8C4001A49024615481B1ADB081B0443F0010001
:10B8D400FBF7A6F800252268039501A9A020CDE96D
:10B8E4000155FFF731FF034668B1FCF797FB094B9D
:10B8F4000F49024609481B1ADB081B0443F00100E8
:10B90400FBF78EF82B46184605B030BD0E23FAE738
:10B91400003000208CC2020028CD02003CC202008C
:10B924006ECD0200BACD020001CE02004DCE02005F
:10B934009ECE020073B505460668FFF703FF2B6829
:10B94400B34204461DD91A481A4B1B491B1ADB087B
:10B954001B0443F002000190FBF75EF82B681749C3
:10B9640001983246FBF765F84FF080532A68D3F804
:10B974000C31134901989B0203F100539A1AFBF707
:10B984004FF82CB90F4B01221A70204602B070BD3B
:10B994002046FCF743FB074B0B49024604481B1A9D
:10B9A400DB081B0443F00100FBF73AF8EDE700BFA6
:10B9B4003CC202008CC20200F1CE020020CF020081
:10B9C40051CF02000F4200207BCF02004BDF7047B3
:10B9D4001FB50E4C01A8FFF7F9FF70B9214602A864
:10B9E400FCF7E7FA039B002BF4D00198D3E900217C
:10B9F400904702A8FCF7E7FAF4E7052804D004B05E
:10BA0400BDE81040FBF792BA04B010BDBCCF0200F1
:10BA140013DF704738B54FF01025114C114A6B698C
:10BA2400A41AE40801334FEA044411D06A690E49A8
:10BA340044F00300FAF7F4FF6869FFF7E9FF0546ED
:10BA440020B10A4944F00100FAF7E6FF284638BD60
:10BA5400074944F00100FAF7DFFF0425F6E700BFC9
:10BA640064C202003CC20200C8CF0200F3CF02004D
:10BA740026D0020038B50B4B0B4C0C4A0C49E41A87
:10BA8400E408240444F00300FAF7CAFF0748FFF768
:10BA9400BFFF054620B1074944F00100FAF7BCFF97
:10BAA400284638BD3CC2020064C2020000600200A5
:10BAB4003ED00200F3CF0200A8DF7047AEDF70472C
:10BAC400B0DF704762DF70473CDF70473DDF70478F
