:0200000270008C
:10800000000001205D8307004583070047830700C8
:10801000498307004B8307004D83070000000000E1
:10802000000000000000000000000000FDCC070080
:1080300051830700000000005383070055830700A9
:1080400057830700578307005783070057830700AC
:10805000578307005783070057830700578307009C
:10806000578307005783070057830700578307008C
:10807000578307005783070057830700578307007C
:10808000F1B20700578307005783070057830700A3
:108090005783070057830700FDCE0700578307006B
:1080A000578307005783070057830700578307004C
:1080B00057830700578307000000000000000000FE
:1080C000578307005783070057830700578307002C
:1080D000D9AF07005783070057830700000000004F
:1080E0000000000000000000000000000000000090
:1080F0000000000000000000000000000000000080
:10810000000000000000000000000000000000006F
:10811000000000000000000000000000000000005F
:10812000000000000000000000000000000000004F
:10813000000000000000000000000000000000003F
:10814000000000000000000000000000000000002F
:10815000000000000000000000000000000000001F
:10816000000000000000000000000000000000000F
:1081700000000000000000000000000000000000FF
:1081800000000000000000000000000000000000EF
:1081900000000000000000000000000000000000DF
:1081A00000000000000000000000000000000000CF
:1081B00000000000000000000000000000000000BF
:1081C00000000000000000000000000000000000AF
:1081D000000000000000000000000000000000009F
:1081E000000000000000000000000000000000008F
:1081F000000000000000000000000000000000007F
:10820000314932480A1A02D0072291438D4630493B
:1082100030480A1A06D00722914381F309880222C6
:1082200082F314882C482D492D4A00F03CF82D4843
:108230002D492E4A00F037F82D482E492E4A00F0DD
:1082400032F82E482E492F4A00F02DF82E482F499B
:108250002F4A00F028F82F482F49304A00F023F821
:108260002F483049304A00F01EF83048304900228B
:1082700000F024F82F483049002200F01FF82F4A60
:1082800090471F481F49884205D00268043003B454
:10829000904703BCF7E700208646EC46002000210B
:1082A000274A9047FEE7884207D0521A05D0037844
:1082B00001300B700131013AF9D17047884202D088
:1082C00002700130FAE770470000012000F800203A
:1082D000000001200000012030D60700CC5700200C
:1082E00004580020BC830700BC830700ACD1070002
:1082F00030D60700CC570020CC57002018D20700FA
:1083000018D2070018D2070018D2070018D20700A9
:1083100018D2070018D2070018D2070030D607007D
:1083200068D6070004580020045800200458002094
:1083300030770020307700203077002085830700D9
:10834000399C0700FEE7FEE7FEE7FEE7FEE7FEE7F3
:10835000FEE7FEE7FEE7FEE7704700BF10488047F4
:1083600010484FF00701884385460F4880470F4863
:10837000016841F470010160BFF34F8FBFF36F8F4D
:10838000FFF73EBF0A480B490B4A884207D0521AF2
:1083900005D0037801300B700131013AF9D17047F3
:1083A0005983070000000120CDB3070088ED00E0ED
:0C83B00004D20700B8570020CC57002072
:1083BC004B1C30B5DB00044612F003009BB20DD110
:1083CC00074D2A601A44074B1A60074B1870074B6D
:1083DC001870074B1C80074B198030BD0720FCE739
:1083EC000C58002008580020045800201458002075
:1083FC0010580020125800202DE9F743DFF8BC80FC
:10840C00B8F800308B4206460D46174647D3002479
:10841C000DF107008DF8074000F080F8224B234A3D
:10842C0023481B78008892F800C084455FFA8CF1D1
:10843C0038BF4C1CDBB238BFE4B2A34228D014784E
:10844C001178CBB2884286BF0133DBB200231370A4
:10845C009DF8070000F086F84FF6FF739C4220D081
:10846C00144B1B6843F8347003EBC4099EB195B1EF
:10847C00114BB8F800001B682A46314604FB00304B
:10848C0004F032FEA9F80450002003B0BDE8F083DC
:10849C004FF6FF74DCE70020A9F80400F5E709208B
:1084AC00F3E70420F1E700BF145800200458002023
:1084BC00125800200C58002008580020105800209A
:1084CC0070B5104C104D22782B789A4200D170BDAB
:1084DC000E480F4A2378126806880E4802EBC30137
:1084EC00006852F83320898803FB060090470A493C
:1084FC0022780988D3B2914286BF0133DBB20023C4
:10850C002370E0E714580020045800201058002075
:10851C000C580020085800201258002070B5EFF3BA
:10852C00108672B60C4A946801239CB993600B4B6D
:10853C000B4DD3F8801029401160C3F88050D3F84C
:10854C00841051604FF0FF32C3F88420047006B9D8
:10855C0062B670BD0370FAE71858002000E100E025
:10856C00FC06FFBD084B9A6810B55AB150B9EFF331
:10857C00108172B6054A1C6814605C68546098607F
:10858C0001B962B610BD00BF1858002000E100E030
:10859C0030B53AB11368DB430A4D0144814204D132
:1085AC00D84330BD4FF0FF33F6E710F8012B5340A2
:1085BC00082213F0010418BF2C46013A84EA530335
:1085CC00F7D1EBE72083B8ED10B561B1B2FBF3F452
:1085DC0003FB1424A4B244B9C0E900148460828162
:1085EC00C381204610BD0E20FCE70920FAE782B0BB
:1085FC0050E8022FC188B2EB324F4FF0000317BF87
:10860C0092B241EA014142EA014104E04268B2EB14
:10861C00324F08BF012340E80212002AE8D18DF83E
:10862C0007309DF80730002B0CBF1120002002B042
:10863C00704737B550E8013F9DB2C4892544848901
:10864C00A54228BF2D1B0489A54202BFBFF32F8F63
:10865C00002207E0C5EA030540E80154002CE9D1EB
:10866C004FF001028DF803200193019A0A609DF8E6
:10867C00031001F0FF0321B1006810FA82F003B07F
:10868C0030BD1846FBE70A884B889A4209D150E85E
:10869C00012FC2EA024240E80123002BF7D101204E
:1086AC0070470020704737B550E8023F1FFAA3F51A
:1086BC00C488A54202BFBFF32F8F00220DE0C489EE
:1086CC0025448489A54228BF2D1BC3EA054540E8F3
:1086DC000254002CE8D14FF001028DF803200193D5
:1086EC00019A0A609DF8031001F0FF0321B10068A4
:1086FC0000EB124003B030BD1846FBE70A884B88EC
:10870C009A4209D150E8022FC2EA224240E80223E1
:10871C00002BF7D1012070470020704710B503469D
:10872C0053E8000F40EA010243E8002494F0000FE4
:10873C00F6D110BD10B5034653E8002F02EA010034
:10874C0043E8000494F0000FF6D110BD0121FFF7AF
:10875C00E5BF0021FFF7EEBF10B590B1D0E90123C2
:10876C0001689B1ADBB20A60013BDBB2FF2B02688B
:10877C0002D10020107110BD11684C1C14600B70DC
:10878C00F2E70E20F7E737B5054600240DF1070098
:10879C008DF80740FFF7C2FE2A686B681168994292
:1087AC000ED9481E106011F8013CEC68298A01FBB7
:1087BC000344AB6811791B1ADBB2994238BF1371B1
:1087CC009DF80700FFF7CEFE204603B030BD37B54D
:1087DC00054600230DF107000C468DF80730FFF716
:1087EC009DFE2A681368591C1160E968641A298A6D
:1087FC00B4FBF1F41C709DF80700FFF7B3FE03B057
:10880C0030BD0B6801601146184710B40468E46869
:10881C00A4465DF8044B604710B404682469A44670
:10882C005DF8044B6047000070B550B90E4D0F4C0D
:10883C000026641B1423B4FBF3F4B44208D10020CB
:10884C0010E00368002BF1D0BDE87040DB691847DD
:10885C002B6813B901361435EFE7DB6928469847C6
:10886C000028F7D070BD00BFB8570020CC570020AF
:10887C00014B43600020704718D207000846704730
:10888C0000207047024B1868003818BF0120704751
:10889C002458002008B50248FFF75BFF002008BDF4
:1088AC002458002008B510461A4604F01DFC002080
:1088BC0008BD00002DE9F041804686B011480F46F6
:1088CC0016461D46FFF742FF0446C8B9AA083146B2
:1088DC00384601F05DF80B48FFF73BFFD8F808303D
:1088EC0053B101228DF800200C9A0592CDE9014775
:1088FC00CDE9036568469847204606B0BDE8F0818F
:10890C001124F9E7245800202DE9F043814687B063
:10891C0014480E4615469846FFF718FF0446F0B962
:10892C000746BD4215D10F48FFF713FFD9F80830A1
:10893C005BB102228DF800200022CDE90126CDE9A1
:10894C000325CDF8148068469847204607B0BDE84B
:10895C00F08306EB073001F003F80137E1E711244F
:10896C00F3E700BF2458002029DF704728DF704749
:10897C0070B503689E6886B004460D466EB114222D
:10898C000021684604F0D9FBA3680593237901956F
:10899C002BB1012B0DD06846B04706B070BD01233A
:1089AC008DF8003023690293E368039363690493A1
:1089BC00F1E702238DF80030E3681B030293F5E71F
:1089CC000846704700207047024B187A003818BFD1
:1089DC0001207047145A0020034B187A0122B0FA78
:1089EC0080F05A7440097047145A002008B510469C
:1089FC001A4604F079FB002008BD000008B51422CB
:108A0C000021044804F099FB0348FFF7F0FD002017
:108A1C0008BD00BF145A0020045A002010B5094CA0
:108A2C00094B43602046FFF791FE48B904F046FA23
:108A3C00064920741C2306484FF4EE72FFF7C4FD60
:108A4C00002010BD145A002044D2070028580020E2
:108A5C00045A002038B5224D224C2B7A3BB92249BE
:108A6C002248FFF720FE206008B9686038BD022359
:108A7C0024682B72237973B1012B22D02046032159
:108A8C00FFF776FF00232B726B6017491748BDE880
:108A9C003840FFF733BED4E90523D21A142AD4E99F
:108AAC00031028BF14229208012A38BF012219444E
:108ABC001844FFF759FF50B11128DFD101232B7255
:108ACC00D4E7D4E903031844FFF750FFF3E72B7CFA
:108ADC00002BCBD1BDE83840022000F009B800BF14
:108AEC00145A00202C5A0020285A0020045A002026
:108AFC0038B5224C237A002B3FD0022B09D1032806
:108B0C002ED01F4B00221B68E2601A793AB1012A61
:108B1C0020D0637C6BBBBDE83840FFF79BBFD3E92B
:108B2C0005128D1A142D94BF521914329A61914268
:108B3C00EFD102284FF0000308BF19462372104BE7
:108B4C0018BF0D211868FFF713FF0E490E48FFF7E9
:108B5C00D5FDDEE71A6901321A615B699A42E7E7D3
:108B6C00E3680133082B01D8E360D2E70023E3600C
:108B7C00DFE7BDE8384004F091B938BD145A002045
:108B8C002C5A0020285A0020045A0020831E012B46
:108B9C0001D8FFF7ADBF704700F0FD03012B08D1E2
:108BAC00044B00225A74421E504250411874FFF775
:108BBC0051BF7047145A002010B5064C201DFFF70A
:108BCC00C5FD28B9637C1BB9BDE81040FFF742BF57
:108BDC0010BD00BF145A00202DE9F34180460D460C
:108BEC00104801A916461F46FFF723FD0446B0B1F5
:108BFC0018220021043004F0A0FA2D0B012323715C
:108C0C0001A90848C4F80080A760E5606661FFF719
:108C1C003AFDFFF7D1FF002002B0BDE8F08104203F
:108C2C00FAE700BF045A00202DE9F34180460F46B5
:108C3C000F4801A916461D46FFF7FBFC0446A8B1D8
:108C4C0018220021043004F078FA089BA36001A9D3
:108C5C00C4E903670648C4F800806561FFF713FD9B
:108C6C00FFF7AAFF002002B0BDE8F0810420FAE76C
:108C7C00045A00200B684A684360934208BF0023E3
:108C8C00016008BF43607047436843B10268916854
:108C9C0052680B449342436004BF00234360704707
:108CAC002DE9F04FC9B008AA01F1400514464B78E4
:108CBC000E781B0443EA0663CE7833438E78043176
:108CCC0043EA06238D4244F8043BF0D11024916B07
:108CDC0016464FEAF14383EA714383EA9123716AA2
:108CEC00366852F8045F31440B444FEAB54181EACF
:108CFC00F51181EAD50101340B44402CD363E6D144
:108D0C00D0E914E30093836D0193C36D0293036E5A
:108D1C000393436E0493836E0593C36E0693DDE950
:108D2C00057BDDE9031CDDE901592B4B009E079304
:108D3C0074464FF00008079B53F8042B07934FEA37
:108D4C00F12383EAB11383EA716A08AB53F8283034
:108D5C001A440AEB020327EA010A01EA0C028AEA26
:108D6C0002021A444FEA743A86EA05035A44234035
:108D7C008AEAB40A06EA050B83EA0B0B8AEAB45AB0
:108D8C0008F10108DA44B8F1400F02EB0903BB46C5
:108D9C005244A94619D172440265009A2244426594
:108DAC00019A32448265029A2A44C265039A1A4493
:108DBC00049B02660B444366059B63448366069BD7
:108DCC003B44C36649B0BDE8F08F674635468C46D8
:108DDC00264619461446AEE770D2070030B5E0B10E
:108DEC000F4A104900240025C0E91245C0E91412AD
:108DFC000D4C0E4A0E4DC0E916420E4AC0E91852EF
:108E0C000D4A826602F17452A2F523020023A2F6E7
:108E1C0092420364C266184630BD0E20FCE700BFC8
:108E2C0085AE67BB67E6096A72F36E3C3AF54FA5EF
:108E3C007F520E518C68059BABD9831F70B5F0B176
:108E4C00DAB900201CE00C468D180026AC42F8D094
:108E5C00036C14F8012BC2540133402B0364F5D17D
:108E6C000146FFF71DFFD0E9123213F5007342F1F2
:108E7C000002C0E912320664E8E70029E3D10E20B3
:108E8C0070BD70B50D4616460446002876D00029F4
:108E9C0074D0036C8022591C372BE25408443FD801
:108EAC00C3F13702002104F048F9D4E91223216CF4
:108EBC000820E1FB0023C4E9122312BAE26323FA6F
:108ECC0000F284F83B3084F83A201A0C1B0E214631
:108EDC0084F8392084F838302046FFF7E1FE691E0B
:108EEC006EB30023E26EDA4001F8012FA26EDA4075
:108EFC000A71626EDA400A72226EDA400A73E26D0F
:108F0C00DA400A74A26DDA400A75626DDA400A76AC
:108F1C00226DDA400833202B0A77E3D1002070BD94
:108F2C004029C3F13F024FF0000188BF002204F03A
:108F3C0004F921462046FFF7B3FE3822B2E7182386
:108F4C00226DDA4001F8012F626DDA400A71A26DD0
:108F5C00DA400A72E26DDA400A73226EDA400A7461
:108F6C00626EDA400A75A26EDA400A76E26EDA4078
:108F7C00083B13F1080F0A77E2D1CFE70E20CEE7BA
:108F8C0043689B68184708B5436808305A7900F065
:108F9C001CFE002008BD2DE9F0410C469CB0084693
:108FAC001F460392FFF7ECFFD4F80480039998F85E
:108FBC000550BD4228BF3D4606462A4604A800F08F
:108FCC00F9FD98F8052022990CA800F0FEFD0096FA
:108FDC000CAB2A4604A904F1080001F0ADFC0028F2
:108FEC0048F2425018BF00201CB0BDE8F0810023AD
:108FFC00C0E90232C0E900118B781A44026191F980
:10900C0003301A4442610878003818BF01207047B9
:10901C0038B5426811780346002938D002F10C01AA
:10902C004160147B2CB9C2680168FFF7E0FF204651
:10903C0038BD5078117900F03005302D14D1547BA7
:10904C0004F03004302C1CD190781969091A19617C
:10905C000021907B084419690144196192F90F2091
:10906C00114459610120E3E700F0F004202C08D1F1
:10907C00507910FB01F1002DEBD19868013098600C
:10908C00E7E700F0C000802808BF0421F3E708469A
:10909C00CEE770B5466804460D4663681A78AA4256
:1090AC0004D15B7803F00F03082B07D12046FFF7A0
:1090BC00AFFF6368B342F0D1002070BD0120FCE724
:1090CC0043681A44426011B101399A4201D101201E
:1090DC00704713F8010B01F8010FF6E770B54568FE
:1090EC006A7802F00F06082E86B003461FD103697A
:1090FC001C6800260CB906B070BD236862689D68B8
:10910C00267329466846FFF772FF6368049304F1DF
:10911C000C0305936B7803F0C003802B08BF231D51
:10912C00684608BF0493FFF7D9FFA468E2E712F082
:10913C00C00122D102F0300010280CD15A691170F4
:10914C00072EAC6818690BD10146204606B0BDE865
:10915C00704000F01AB89006F2D55B691970CAE736
:10916C002A79214624B106B0BDE8704003F0BCBF9B
:10917C0006B0BDE8704003F0E0BF8029BBD10069A8
:10918C00002192060160B6D5E7E77FB50A46014695
:10919C006846FFF72CFF30B16846FFF79FFF684623
:1091AC00FFF736FFF7E707B05DF804FB836810B5EF
:1091BC0004460BB9002010BD036801229847002813
:1091CC00F8D0A368013BA360F5E72DE9F3410F4606
:1091DC000DF107018046FFF7E9FF054620B9002590
:1091EC00284602B0BDE8F0819DF907309DF8074094
:1091FC00002B13DA04F07F0407260DF1070140461B
:10920C00FFF7D4FF0028EAD09DF8072002F07F0377
:10921C00B3401C43130606F1070601D43C60DFE79C
:10922C00232EEAD1DBE7000030B5044685B01546A5
:10923C00A9B90268114B9A4211D0102D06D82A46B2
:10924C0069462046FFF7F0FF05B030BD1022694695
:10925C002046FFF7E9FF0028F6D0103DEDE7A368A4
:10926C00AB4201D20020EFE723682A4620469847FC
:10927C000028F7D0A268521BA260E5E7CD9007004A
:10928C00F7B50E4601A907461546FFF79EFFA0B19C
:10929C00019A511C4FF0000404D2737803F0C00300
:1092AC00802B01D1204608E033798B42FAD3294632
:1092BC003846FFF7B9FF019BEC5403B0F0BD73B512
:1092CC000D4601A906461446FFF77FFF90B1019A9F
:1092DC00FF2A11D86B7803F0C003802B02F1010137
:1092EC000AD02B798B4207D32146304601F8012B4B
:1092FC00FFF79AFF02B070BD0020FBE710B5034CDE
:10930C0082600022C0E90041C26010BDCD90070010
:10931C002DE9F341002580460E462F462C460DF1D3
:10932C0007014046FFF742FFC0B19DF807C0A4F10A
:10933C0020030CF07F02C4F1200102FA03F322FA9D
:10934C0001F10B43A2401CF0800F45EA020547EAED
:10935C00030704F1070404D1C6E9005702B0BDE8C5
:10936C00F081462CDBD10020F8E737B50D46694675
:10937C001446FFF7CDFF70B12B79082B0DD1DDE929
:10938C000032C4E90032DDE90001914208BF984285
:10939C000CBF0120002003B030BD042B03D1009B77
:1093AC0023600022EFE7022B03D1009B23809BB2AA
:1093BC00F7E7012B04D1009B237003F0FF03F0E7C8
:1093CC000020E8E737B50D4669461446FFF7A0FFC5
:1093DC0030B12B79082BDDE9001203D1C4E900125E
:1093EC0003B030BD042B4FEAE17009D121600B466C
:1093FC000246824208BF8B420CBF01200020EFE7DF
:10940C00022B03D10BB22380DA17F2E7012B02D126
:10941C004BB22370F8E70020E2E7F7B51F460023B4
:10942C003B700D460B70136001A904461646FFF7FE
:10943C00CCFE30B9A36813B901233B70002003B0F4
:10944C00F0BD019C002CF7D0E30804F00704336056
:10945C002C70F4E713B50446052925D8DFE801F094
:10946C00030F17242422012201A92046FFF7DCFE5A
:10947C0018B19DF90430002BF5DB02B010BD0822A9
:10948C000021204602B0BDE81040FFF7CDBE01A977
:10949C00FFF79BFE0028F0D0019A00212046FFF731
:1094AC00C3FEEAE70422EBE70020E6E773B50D46BE
:1094BC0001A90446FFF789FE064618B90026304676
:1094CC0002B070BD94E80F0085E80F0001998A4244
:1094DC00F4D3A960A3685B1AA360F0E72DE9F0430D
:1094EC0057687B7813F0C00489B006468C46154645
:1094FC0003D0402C69D000240CE003F00F0260492B
:10950C0003F03003202B51F8228025D006D8E3B18C
:10951C00102B17D0204609B0BDE8F083302BF9D1C1
:10952C006B6939781970072A0AD16B6828691A791E
:10953C00214603F002FE6B6829699868FFF725FE47
:10954C002A693FE06B6901221A702A693946434641
:10955C0009B0BDE8F0431847BCF1020FD5F81490E0
:10956C0024D1042A22D804A9FFF7A0FF044600281E
:10957C00C1D0069B2BB1696899F800304A799A42A0
:10958C0005D8059B7360069B002BC3D0B3E7087905
:10959C002A6900FB032204A8C04728B199F80030BF
:1095AC00013389F80030E4E70446EAE799F8003023
:1095BC007A799A429FD92A693979581C89F800001E
:1095CC0001FB032269683046C1E7D2F81080474698
:1095DC0057F8043B23B909B0BDE8F043FFF73ABF95
:1095EC00022914D104A9FFF761FF002883D0D8F811
:1095FC00003069683A4604A89847044600283FF4AE
:10960C007AAF069B002BF2D1059B736082E7012990
:10961C0026D005292CD000297FF46DAF0C460DF116
:10962C00040901340B2C3FF466AF01224946304645
:10963C00FFF7FAFD00283FF45EAF19F9013B002B50
:10964C00EFDB104B049301ABCDE9053400230793FA
:10965C006968D8F800303A4604A89847044659E798
:10966C00082201A9FFF7E0FD08240028E9D142E710
:10967C0004220DEB0201FFF7D7FD0424F5E700BF30
:10968C007CD30700CD9007002DE9F04F91B0044634
:10969C00002604A8CDE90266FFF7A9FCA3683BBB32
:1096AC00DDE9053404A85D78FFF7B2FC0028F7D19A
:1096BC0015F0300F03D1059B1B7803B10134002C3E
:1096CC0000F0A980630902A90022934240F09C801B
:1096DC0010AA02EB830304F01F0453F8383CC4F1C6
:1096EC0020044FF0FF30E040C31A584258410DE0BF
:1096FC000DF1030301AA0DF102012046FFF78DFEC7
:10970C0038B99DF80330002BCAD1002011B0BDE848
:10971C00F08F019904A8FFF7BCFC002850D1019BE5
:10972C00B3427DD3059D059A537803F00F03082BA4
:10973C007FD004A8FFF76CFC059B9D42F3D14FF042
:10974C00FF36019FB7426BD3089B9DF802A0D4F85B
:10975C0008801D684FF00109A368002D5DD0984565
:10976C009CD12B68D3F800B0BBF1000F08D0534646
:10977C003A4629462046D8470028C6D0AD68EBE7C4
:10978C00D3F808B09BF800309F42F7D16A6859466D
:10979C000AA8FFF72CFC6B680E9305F10C030F93D2
:1097AC009BF8013003F0C003802B04BF2B1D0E93DC
:1097BC000AAA85F80C9051462046FFF78FFEDBE78E
:1097CC00059B5B7813F0300F0FD1069A3F2A0CD80B
:1097DC00510910AB03EB810102F01F0201239340EE
:1097EC0051F8382C134341F8383CE5682DB19DF8FD
:1097FC000220019904AB2046A8479DF8021004AA48
:10980C002046FFF76BFE10E051F8045B01357FF446
:10981C007DAF013259E7012078E798457FF43EAFE0
:10982C009DF802102046FFF715FE00287FF436AF96
:10983C006BE7167885E737B50C460546114620468A
:10984C000192FFF7A2FC019A2146284603B0BDE81D
:10985C003040FFF719BF70B586B08E6801920C4688
:10986C0002A90546FFF722FE68B1A06858B16378DB
:10987C00019A03F03003202B314602A805D1FFF7E3
:10988C00DAFF039B6B6006B070BDFFF7FDFEF8E7D7
:10989C0013B50C466946FFF73BFD60B1DDE90013DB
:1098AC004A0842EAC372C9074FEA530344BFD24382
:1098BC00DB43C4E9002302B010BD37B50D46694641
:1098CC001446FFF7E5FF70B12B79082B0DD1DDE9BC
:1098DC000032C4E90032DDE90001914208BF984230
:1098EC000CBF0120002003B030BD042B03D1009B22
:1098FC002360DA17EFE7022B03D1BDF90030238088
:10990C00F7E7012B03D19DF900302370F1E700201C
:10991C00E9E713B504220C460DEB0201FFF784FCBA
:10992C0008B1019B236002B010BD1146FFF7F1BFD7
:10993C0013B508220C466946FFF776FC18B1DDE931
:10994C000023C4E9002302B010BD1146FFF7F0BF9D
:10995C00024AD2F80034002BFBD0704700E00140E3
:10996C000A4908B50223C1F80435BFF36F8FBFF362
:10997C004F8FC1F80805FFF7EBFF0023C1F8043542
:10998C00BFF36F8FBFF34F8F08BD00BF00E00140E6
:10999C0070B50E4E01231546C6F80435BFF36F8F14
:1099AC00BFF34F8F0024AC4207D10023C6F8043517
:1099BC00BFF36F8FBFF34F8F70BD51F8243040F859
:1099CC002430FFF7C5FF0134EDE700BF00E0014094
:1099DC0028B139B10023C1E900301846704748F26C
:1099EC001050704748F21350704730B1036848F27A
:1099FC0040508B4208BF0020704748F2105070470F
:109A0C0028B148F21150914208BF0020704748F22B
:109A1C001050704770B506460C461D46FFF7D8FF30
:109A2C0050B9B3794AB1AB420AD111462046FFF77F
:109A3C00AAFA08B9044B236070BD48F21050FBE73A
:109A4C0048F21150F8E700BF7052464D2DE9F0472F
:109A5C000C4606460F492046DDE9088915461F4687
:109A6C00FFF7C3FFA0B963685A79494652004046D4
:109A7C00FFF7C6FF60B94DB1CDF820803B462A46B2
:109A8C0021463046BDE8F047FFF785BA48F2105042
:109A9C00BDE8F0877052464D10B5044638B149B157
:109AAC000B684160984708B9044B236010BD48F21D
:109ABC000150FBE748F21050F8E700BF6E524648E1
:109ACC00F0B4134648B10768094EB7420AD161B1E8
:109ADC002AB14368F0BC5B68184748F2015318463A
:109AEC00F0BC704748F20253F9E748F21053F6E71E
:109AFC006E524648F0B460B107680C4EB7420CD1B8
:109B0C0071B143681568DC68A5420CD3F0BC9B6846
:109B1C00184748F20150F0BC704748F20250FAE77F
:109B2C0048F21350F7E748F21450F4E76E524648E7
:109B3C00F7B50446DDE9086715460193FFF7ACFF5E
:109B4C0068B9019A29462046FFF7BAFF38B93A4658
:109B5C003146204603B0BDE8F040FFF7CBBF03B061
:109B6C00F0BD0000F8B50A4F0A4C0B4EE41B012364
:109B7C00E40833700025A54203D102233370002082
:109B8C00F8BD57F8353098470028F9D10135F2E780
:109B9C00ACD10700ACD10700305A00200139014488
:109BAC00814200D2704703780A7800F8012B01F843
:109BBC000139F5E7013A02440139824200D270477B
:109BCC0011F8013F02F80139F7E770B516460D465A
:109BDC00FFF7F0FF3246A9193044BDE87040FFF79B
:109BEC00E9BF38B50D460446FFF7D8FF2946601982
:109BFC00BDE83840FFF7D2BFBFF34F8F0549064B86
:109C0C00CA6802F4E0621343CB60BFF34F8F00BF0E
:109C1C00FDE700BF00ED00E00400FA05704708B551
:109C2C00FFF7EAFF08B5FFF7E7FF00000022104638
:109C3C0010B54FF4805101F0E7F8024608B1FFF778
:109C4C00DBFF0848C0F5FC2101F0DEF80028F6D156
:109C5C00054801F033F804460028F0D101F0C2F8B1
:109C6C00204610BD00800700299C07008B18024479
:109C7C008B4200D1704713F8010D02F8010DF7E784
:109C8C0000000000C3F10803DB0070B501330024B1
:109C9C0003A500BF5B1920C940CAAD1920C01847E5
:109CAC0020C940CA754120C020C940CA754120C096
:109CBC0020C940CA754120C020C940CA754120C086
:109CCC0020C940CA754120C020C940CA754120C076
:109CDC0020C940CA754120C06441204670BD00BFF8
:109CEC0000000000C3F10803DB0070B50133002451
:109CFC0003A500BF5B1920C940CAAD1B20C0184783
:109D0C0020C940CAB54120C020C940CAB54120C0B5
:109D1C0020C940CAB54120C020C940CAB54120C0A5
:109D2C0020C940CAB54120C020C940CAB54120C095
:109D3C0020C940CAB54120C06441B4FA84F040093E
:109D4C0070BD00BF2DE9F04F08B4F8CA04B451F847
:109D5C00042BA3FB028940F8048B4FF0000AE4FBB0
:109D6C00629A4FF0000BE5FB62AB4FF0000CE6FB88
:109D7C0062BC4FF0000EE7FB62CE51F8042B4FF0A3
:109D8C000008E3FB628940F8048BE4FB629AE5FB74
:109D9C0062ABE6FB62BCE7FB62CE51F8042B4FF0E2
:109DAC000008E3FB628940F8048BE4FB629AE5FB54
:109DBC0062ABE6FB62BCE7FB62CE51F8042B4FF0C2
:109DCC000008E3FB628940F8048BE4FB629AE5FB34
:109DDC0062ABE6FB62BCE7FB62CE51F8042B4FF0A2
:109DEC000008E3FB628940F8048BE4FB629AE5FB14
:109DFC0062ABE6FB62BCE7FB62CE40F8049B40F82A
:109E0C0004AB40F804BB40F804CB40F804EB0CBCAA
:109E1C00052B00F01E810C68A0F11400A1F11401B7
:109E2C00A2F1140252F804EB4FF0000550F8046B49
:109E3C00E4FB6E5652F804EB50F8047BE4FB6E67BF
:109E4C0052F804EB50F8048BE4FB6E7852F804EBF8
:109E5C0050F8049BE4FB6E8952F804EB50F804AB09
:109E6C00E4FB6E9AA0F1140052F8044B51F804EB89
:109E7C004FF0000CE4FB6EC540F804CB51F804EB3A
:109E8C00E4FB6E5640F8045B51F804EBE4FB6E67A0
:109E9C0040F8046B51F804EBE4FB6E7840F8047B5B
:109EAC0051F804EBE4FB6E8940F8048B51F804EB99
:109EBC00E4FB6E9AA0E80006062B00F0CA800C6842
:109ECC00A0F11800A1F11801A2F1180252F804EB4C
:109EDC004FF0000550F8046BE4FB6E5652F804EB9F
:109EEC0050F8047BE4FB6E6752F804EB50F8048BDB
:109EFC00E4FB6E7852F804EB50F8049BE4FB6E899B
:109F0C0052F804EB50F804ABE4FB6E9A52F804EBF5
:109F1C0050F804BBE4FB6EABA0F1180052F8044BF4
:109F2C0051F804EB4FF0000CE4FB6EC540F804CB89
:109F3C0051F804EBE4FB6E5640F8045B51F804EB6B
:109F4C00E4FB6E6740F8046B51F804EBE4FB6E78AD
:109F5C0040F8047B51F804EBE4FB6E8940F8048B69
:109F6C0051F804EBE4FB6E9A40F8049B51F804EBB7
:109F7C00E4FB6EABA0E8000C072B6AD008B40C68AD
:109F8C00A0F11C00A1F11C01A2F11C0252F804EB7F
:109F9C004FF0000550F8046BE4FB6E5652F804EBDE
:109FAC0050F8047BE4FB6E6752F804EB50F8048B1A
:109FBC00E4FB6E7852F804EB50F8049BE4FB6E89DA
:109FCC0052F804EB50F804ABE4FB6E9A52F804EB35
:109FDC0050F804BBE4FB6EAB52F804EB50F804CB26
:109FEC00E4FB6EBCA0F11C0052F8044B51F804EBDE
:109FFC004FF00003E4FB6E3540F8043B51F804EBE2
:10A00C00E4FB6E5640F8045B51F804EBE4FB6E671E
:10A01C0040F8046B51F804EBE4FB6E7840F8047BD9
:10A02C0051F804EBE4FB6E8940F8048B51F804EB17
:10A03C00E4FB6E9A40F8049B51F804EBE4FB6EAB26
:10A04C0040F804AB51F804EBE4FB6EBCA0E800183C
:10A05C0008BCBDE8F08F002310B51C465AB29142E3
:10A06C0000DC10BD40F823400133F7E710B50023A6
:10A07C001A465CB2A14203DCB2FA82F0400910BD70
:10A08C0050F8234001332243F3E74A11012350F8DF
:10A09C00220001F01F0103FA01F108407047013959
:10A0AC0049B2002904DA013149B231B90846704786
:10A0BC0050F82130002BF2D0F5E701F18043013B41
:10A0CC0050F82330002023B9013900EB411108B2BC
:10A0DC0070475B080130F6E710B500235CB2A24272
:10A0EC0000DC10BD51F8234040F823400133F5E764
:10A0FC0010B5013A52B2002A01DA002010BD13B299
:10A10C0050F8234051F823309C4203D8F1D24FF041
:10A11C00FF3010BD012010BD00EB810100238842EF
:10A12C0000D3704751F8042C43EA520341F8043D24
:10A13C00D307F4E770B59DF910401E46234605463B
:10A14C00FFF7A0FD30B9224629463046FFF7D0FF75
:10A15C00012807D02346324629462846BDE87040E0
:10A16C00FFF7C0BD70BD70B59DF910401E4623466B
:10A17C000546FFF7B7FD38B1234632462946284637
:10A18C00BDE87040FFF77EBD70BD2DE9F04FB5B056
:10A19C0004AD9DF9F8401F46804623462846FFF73C
:10A1AC00D1FD24AB2146384602930395FFF777FF88
:10A1BC00C0EB841005B26B4203F01F034FF0200676
:10A1CC0095FBF6F676B205F01F0914A858BFC3F13B
:10A1DC0000093146FFF73FFFB9F1000F30B22BDD1C
:10A1EC0014AB002203EB8000C9F1200E1346A342EE
:10A1FC0017D327B27B00019314AB03EB870704F151
:10A20C00FF3934AB012603EB8909002D55DB34AB48
:10A21C000022C6F10100964603EB860A03EB800090
:10A22C002DE057F8236006FA09F10A4340F8232081
:10A23C0026FA0EF20133DAE714AB2246394603EB69
:10A24C008000FFF749FFD4E70FFA81FC5AF8C83CAD
:10A25C0053F82CB034AB03EB810151F8803CABEBE1
:10A26C000303A3EB0E039B4504D034BF4FF0010E48
:10A27C004FF0000E50F8C81C41F82C300132019BF5
:10A28C0051B29942E0DBA6EB0E035E42214614A8C4
:10A29C005E41FFF741FF34AB03EB8403214653F8D7
:10A2AC00802C59F8803C384643EAC273013D49F88A
:10A2BC00803C2DB2FFF730FFA7E734AB03EB8606EB
:10A2CC00224656F8C81C4046FFF706FF35B0BDE8DD
:10A2DC00F08F30B51C4691B0054693F900306846B6
:10A2EC00FFF730FDD4F8AC3069462846984711B0DA
:10A2FC0030BD13460A46FFF7ECBF2DE9F04793F942
:10A30C00006092B004468946104631461546984680
:10A31C00FFF7ACFE002840F093804246494602A865
:10A32C00FFF7E7FF434602AA21460AA8FFF7D1FF31
:10A33C0002A908464246FFF7DCFF43462A46494637
:10A34C004846FFF7C6FF08F104074246294628464F
:10A35C00FFF7CFFF3B462A46214620460096FFF7E3
:10A36C00E9FE3B462A46294628460096FFF7E2FEC0
:10A37C003B462A46214628460096FFF7F4FE434604
:10A38C002A4621462046FFF7A4FF3B46224621469B
:10A39C0028460096FFF7CEFE3B4600962A462146FD
:10A3AC002046FFF7C7FE2368DB074CD533463A46F9
:10A3BC0021462046FFF766FC314682462046FFF7D1
:10A3CC00ABFE06F18043013B54F8230040EACA700F
:10A3DC0044F82300424621462846FFF78AFF3B46B5
:10A3EC000AAA294628460096FFF7BDFE3B460AAA54
:10A3FC00294628460096FFF7B6FE0AA908463B46B2
:10A40C002A460096FFF7AFFE43460AAA214620468D
:10A41C00FFF75FFF02AA3B46104621460096FFF766
:10A42C00A2FE324629462046FFF756FE32464946E2
:10A43C002846FFF751FE324602A94846FFF74CFE6C
:10A44C0012B0BDE8F08731462046FFF765FEC1E744
:10A45C002DE9F04115468AB0044688462022002199
:10A46C0002A802F06AFE2E1D95F9007003232A46FD
:10A47C00414620460293FFF73CFF334602AA214691
:10A48C0020460097FFF76FFE2B464246214620469A
:10A49C00FFF71FFF0097334605F184022146204643
:10A4AC00FFF748FE0AB0BDE8F0810000F0B50822C5
:10A4BC0089B00C460646FFF70FFECB6A03930B6B75
:10A4CC0004934B6B05938B6B0693CB6B0793002715
:10A4DC0008236A4669466846029701970097FFF77A
:10A4EC00D1FB082305466A4631463046FFF7CAFBC6
:10A4FC00236B0393636B0493A36B0593E36B06933A
:10A50C00054408236A46694668460797FFF7BAFB75
:10A51C00082305446A4631463046FFF7B3FB236AED
:10A52C000093636A0193A36A0293A36B0693E36B94
:10A53C000793054408236A4631463046059704972D
:10A54C000397FFF79FFB636A0093A36A0193E36A87
:10A55C00A26B0293636B039304920693E26B236AE0
:10A56C000592054407936A46082331463046FFF7A7
:10A57C0089FBE36A0093236B0193636B0293236A59
:10A58C000693A36A0793054408236A46314630466E
:10A59C00059704970397FFF7A5FB236B0093636B59
:10A5AC000193A36B0293E36B0393636A0693E36AD1
:10A5BC0007932D1A08236A463146304605970497AF
:10A5CC00FFF790FB636B0093A36B0193E36B029318
:10A5DC00236A0393636A0493A36A0593236B07931B
:10A5EC002D1A08236A46314630460697FFF77AFB48
:10A5FC00A36B0093E36B0193636A0393A36A0493C5
:10A60C00E36A0593636B07932D1A08236A46314658
:10A61C00304602970697FFF765FB2D1A0D4C0FD4A9
:10A62C0035B9082231462046FFF762FD01280FD0CC
:10A63C000823224631463046FFF754FB2D1AEFE72C
:10A64C000823224631463046FFF71CFB2D18F7D461
:10A65C0009B0F0BDE4D30700F0B5154689B01C462F
:10A66C0007460E461A4629466846FFF742FE234621
:10A67C006A4639463846FFF72CFE23462A46694679
:10A68C006846FFF726FE23466A4631463046FFF7FA
:10A69C0020FE09B0F0BD2DE9F0438BB01446129D9D
:10A6AC0015F9046B00961F46804689462B460246D8
:10A6BC00214602A8FFF757FD02A9129A0846FFF798
:10A6CC0018FE129B02AA41464046FFF702FE129B5F
:10A6DC0002AA21462046FFF7FCFD2B464A46394686
:10A6EC0038460096FFF73FFD129A394602A8FFF74D
:10A6FC0000FE02A92B46424608460096FFF733FDA2
:10A70C0002A92B46224608460096FFF72CFD2B4645
:10A71C004246214620460096FFF725FD129B224615
:10A72C0049464846FFF7D5FD2B4602AA414620462E
:10A73C000096FFF718FD129B224639463846FFF764
:10A74C00C8FD2B464A46394638460096FFF70BFDA6
:10A75C00324602A92046FFF7BFFC0BB0BDE8F083E0
:10A76C002DE9F047B3F9024088461E4604F11F015B
:10A77C002023073491FBF3F708234FFA87F994FB56
:10A78C00F3F4944228BF144649460546FFF763FC90
:10A79C0022464146FFF76AFAB6F90230E4009C42C1
:10A7AC0021D9E41A05EB87010022C4F120078D4260
:10A7BC000FD324364A4629463046FFF799FC012828
:10A7CC0011D04B46324629462846BDE8F047FFF7E4
:10A7DC0089BA51F8040C20FA04F3134341F8043DF0
:10A7EC0000FA07F2E3E7BDE8F08770B5036813F0F1
:10A7FC0001050646144605D013460A460146FFF7E6
:10A80C0041FA054621463046FFF786FC45B104F176
:10A81C008042013A56F8223043F0004346F8223089
:10A82C0070BDF0B50F46A1B0064619463846154620
:10A83C001C46FFF71BFC28B121463046FFF70BFCEA
:10A84C0021B0F0BD224639466846FFF745FC22464A
:10A85C00294608A8FFF740FC214610A8FFF7FBFB90
:10A86C000123214618A81093FFF7F5FB224608A9EF
:10A87C006846FFF73DFC28B9224610A93046FFF781
:10A88C002BFCDDE7009BDA0709D421466846FFF76D
:10A89C0043FC2246294610A8FFF7A7FFE6E7089BD2
:10A8AC00DB0707D4214608A8FFF736FC22462946C9
:10A8BC0018A8F1E7002823461CDD08AA694668465B
:10A8CC00FFF710FA21466846FFF726FC224618A926
:10A8DC0010A8FFF70DFC002805DA10A923462A461C
:10A8EC000846FFF7CFF910A9234618AA0846FFF728
:10A8FC00F9F9CEE708A96A460846FFF7F3F92146AD
:10A90C0008A8FFF709FC224610A918A8FFF7F0FBCE
:10A91C00002805DA18A923462A460846FFF7B2F99B
:10A92C0018A9234610AA0846FFF7DCF9BEE7000079
:10A93C0000487047E0D307002DE9F04FEDB01F46FB
:10A94C00DDF8D8810590B8F9026098F90040202311
:10A95C001F3696FBF3F676B206F1FF3924AB0025D1
:10A96C0043F829506CAB03EB89034CA88A469346F9
:10A97C00394698F9012043F8805C43F8605CFFF796
:10A98C0075F998F9012054A8B918FFF76FF9214609
:10A99C004CA8FFF76BFB0746002840F03981214695
:10A9AC0054A8FFF763FB0290002840F0338108F1B4
:10A9BC00240332464CA918460393FFF799FB012850
:10A9CC0040F02A81324654A90398FFF791FB0128E5
:10A9DC00069040F021811CAD0CAF3346039A54A96C
:10A9EC002846FFF71EFF029B47F829305A4651466E
:10A9FC0038464346FFF7B4FE39463846039B00966B
:10AA0C002A46FFF7C2FB0DF5B879039B00962A4640
:10AA1C004CA914A8FFF7B9FB484622460599FFF745
:10AA2C005BFBA30009EB030A0793059BA1005918D4
:10AA3C0008F1440B50462246FFF74EFB594622467E
:10AA4C0034A8FFF749FBA3000BEB030122463CA8FB
:10AA5C00FFF742FB08F10403494634AA2846009448
:10AA6C000493FFF780FB53464A463CA934A8CDF823
:10AA7C000080FFF710FE2346049A29462846FFF76C
:10AA8C00D0FE2A46514648464346FFF7E5FD029B59
:10AA9C0008933146059B0A933846CDF824B0CDF87F
:10AAAC002C90FFF7FCFA3146814614A8FFF7F7FA11
:10AABC008145B8BF81461FFA89F909F1FF3B0FFAAE
:10AACC008BFB59463846FFF7E0FA5946071C14A889
:10AADC0018BF0127FFF7D9FA002814BF022300235F
:10AAEC001F430DF1200A22465AF8277024A8394634
:10AAFC00FFF7F2FA0DF1B00BA300F91822465846F5
:10AB0C00FFF7EAFA21462846FFF7A5FAA9F1020950
:10AB1C00069B2B600FFA89F90DF1900AB9F1000F21
:10AB2C0023DA2346049A29462846FFF77AFE434641
:10AB3C002A4659465046FFF78FFD32465146039838
:10AB4C00FFF7D6FA012805D03346039A51465046F2
:10AB5C00FFF7C8F8013C64B2002C4CDA029BB3FA44
:10AB6C0083F040096DB0BDE8F08F43462A46D8F813
:10AB7C00A47059465046B84749460CA8FFF785FAC9
:10AB8C004946071C14A818BF0127FFF77EFA0028B6
:10AB9C0014BF02200020384308AB53F820702FB3A9
:10ABAC002246394634A8FFF797FA079B2246F91834
:10ABBC003CA8FFF791FA43462A463CA934A8FFF774
:10ABCC004BFD049B009434AA514644A8FFF7CBFAE2
:10ABDC005B4652463CA934A8CDF80080FFF75BFDDC
:10ABEC00434644AA29462846FFF773FB09F1FF396F
:10ABFC000FFA89F992E723B26CAA02EB83025AF896
:10AC0C00233052F8802C5340029A1A430292A1E747
:10AC1C002846A7E73846A5E70298A3E7008800F086
:10AC2C000100704741DF7047014B01221A707047D9
:10AC3C00545E0020BFF34F8F0549064BCA6802F4DF
:10AC4C00E0621343CB60BFF34F8F00BFFDE700BF43
:10AC5C0000ED00E00400FA05042810B5044607D8FE
:10AC6C00022808D90B494FF4701000F0F3F902E0F8
:10AC7C00831F012B06D9084B1B6853B12046BDE836
:10AC8C0010401847054B064800221A7001F00AFCC8
:10AC9C00F1E710BDB1AC0700585E0020545E0020F7
:10ACAC0041AC0700024B034800221A7001F0FABBBA
:10ACBC00545E002041AC070000207047414B424AD3
:10ACCC0010B518604FF0A0430020C3F8402701F0E6
:10ACDC007FFB0446002842D100F092FA012839D0BB
:10ACEC0002283ED000283AD14FF08042D2F80034EE
:10ACFC0013F480331FD04FF48033C2F8003401F0CA
:10AD0C00A1FC00285AD04FF0A043D3F81035DB0338
:10AD1C0054D54FF08043D3F81C3513F0B10F4DD1FF
:10AD2C0001F014FCD8B9294B1870294801F0BAFB72
:10AD3C0000F058F813E0D2F8201511F0A90F1FBF3E
:10AD4C00D2F8201501F05601C2F82015184608BF9C
:10AD5C000120D4E71D4B1F481C7001F0A3FB0320FE
:10AD6C0010BD4FF4A02400F0CBFA1B4A2021182070
:10AD7C00FDF71EFB08B1FEF755FF4FF08043D3F8EB
:10AD8C001C2512F0B10F1EBFD3F81C2502F04E0289
:10AD9C00C3F81C25FFF790FF0028E0D120460F498F
:10ADAC0000F058F90E4800F061FC0028D7D100F0F3
:10ADBC00CDFAFDF785FBFFF735FFF8E74FF470147C
:10ADCC00D1E700BF585E00200C000300545E002049
:10ADDC0035AC070041AC0700345A0020B1AC070079
:10ADEC0065AC070008B5074B4FF0FF32C3F8802065
:10ADFC00C3F8802101F090F8BDE808404FF4805072
:10AE0C0000F030B800E100E070B5C1F30B0434BBC6
:10AE1C00B0F5FE2F23D84B1E1B0B020B03EB10318E
:10AE2C0001264FF08040914201D2204670BD02F0C5
:10AE3C001F03550906FA03F3032D05D8DFE805F0C7
:10AE4C000206090CC0F800360132ECE7C0F80436F3
:10AE5C00FAE7C0F81036F7E7C0F81436F4E7072421
:10AE6C00E3E7000070B50446204888B00022C0F526
:10AE7C00FE21FFF7C9FFEFF305810023D4E9002081
:10AE8C0083F3148883F3108883F3118883F3138876
:10AE9C00C1F3080139B982F308884FF0FF339E469D
:10AEAC00004708B070BDCDE90033CDE902330493FF
:10AEBC004FF0FF33CDE905304FF080730793A2F1CB
:10AECC0020036D461C4608AE2A4603CAB2422060D7
:10AEDC006160154604F10804F6D183F308884FF03D
:10AEEC00FF339E466FF006031847DAE70080070031
:10AEFC001FB51948037863BB4FF08043A024D3F8E7
:10AF0C001824D2035CBF01229A60144B0022C3F8B0
:10AF1C000021D3F8001103910399C3F84021D3F811
:10AF2C00401102910299C3F84421D3F844110191C4
:10AF3C0001990B4981F824431024C1F884414C60D9
:10AF4C00C3F80825022101229A601A60C3F8041381
:10AF5C00027004B010BD00BF605E002000400240D3
:10AF6C0000E100E037B56FF07F42154C057BD4F85B
:10AF7C0004358A4228BF0A46891A13444A1E942A69
:10AF8C0023F07F4305F5A8729BBF963B9631416039
:10AF9C00416044F822300B4B4FF4F86043F001034E
:10AFAC009847094BAA00134400221A601B680193AE
:10AFBC00019B4FF48033AB40C4F8043303B030BD75
:10AFCC000040024090D40700404102401C4BD3F893
:10AFDC0004212DE9F34152B11A490A6801320A6081
:10AFEC000022C3F80421D3F804310093009B164CC3
:10AFFC00164DDFF84C80164E00272B6873B12F606E
:10B00C002B68227B0193019B4FF480339340C8F84B
:10B01C000833616851B12046FFF7A4FF0435B542EF
:10B02C0004F11004E9D102B0BDE8F081A16811B1BE
:10B03C002046FFF797FF2368002BEFD09847EDE7EA
:10B04C00004002405C5E0020CC5700204041024092
:10B05C004841024070B50B4B1D682A7B4FF480337E
:10B06C009340094A0E46C2F80833044640B1FFF734
:10B07C003FFF2E6021462846BDE87040FFF772BFA7
:10B08C0070BD00BFEC5700200040024070B5074B6C
:10B09C001D6804460E46A860FFF72AFF2E60214665
:10B0AC002846BDE87040FFF75DBF00BFF057002099
:10B0BC00014B01221A707047615E00202DE9F74F99
:10B0CC0006468846A8EB06052D0B02F6FF771446BC
:10B0DC0000F016F9082D28BF08252B03DFF868B0FF
:10B0EC0001933F0B0CB9234629E0BD422CBFBA4655
:10B0FC00AA464FF000025146304634BFDDF80490AA
:10B10C00A14600F0D3FE0346C8B909F1030222F0B0
:10B11C0003024146304600F0BBFE034678B9DBF82B
:10B12C0030304B44CBF8303001F0C2F9A7EB0A07B2
:10B13C00A4EB09044E44C84403460028D2D0184658
:10B14C0003B0BDE8F08F00BF9472002010B501F081
:10B15C0075FA124A916C01F500535C68104B9C42D5
:10B16C0018D1D2E90C32934216D0884204D1BDE8F2
:10B17C001040002001F09CB9D21A02F6FF7222F4A2
:10B18C007F6222F00F0219441844FFF797FF002842
:10B19C00EDD010BD0320FCE70020FAE794720020EC
:10B1AC00DBE5B15170B5144EF36A756AB46CAC2B17
:10B1BC001AD1736B1C44ED1AF36AAC2B06D10F48F1
:10B1CC002A46A4F5804101F055FF98B10B482A4658
:10B1DC00214601F04FFF68B100F0B8F8294620462F
:10B1EC00BDE8704000F07ABE002CE5D101F014FAF5
:10B1FC000446E1E770BD00BF947200200080070098
:10B20C0070B5264CE36AAA2B33D005D8012B0BD092
:10B21C00A52B2AD0002070BDAC2BFBD1FFF796FFDD
:10B22C0028BBFFF7BFFF22E0A66C656A01F0E0F9CE
:10B23C0086422AD101F0DCF900222946FDF7A8F953
:10B24C00A36A984202BF0123C4E90703A561002445
:10B25C00134801F0C3F9134B134800221A7001F084
:10B26C0027F980B944B90120D5E7FFF76FFF012416
:10B27C00EEE7FFF797FFEAE7012001F0E3F900287A
:10B28C00F1D00220C7E70320C5E7236BEA1AF118B7
:10B29C001844FFF713FF0028D9D1CBE79472002094
:10B2AC00B8720020615E0020BDB007000A4AD2F8D7
:10B2BC0000347BB109480023D2F80815D940C907DE
:10B2CC0048BF03F5C07103F1010348BF42F82100E8
:10B2DC00072BF1D1704700BF000001403546526E7C
:10B2EC00FFF7E4BF054B002282B0C3F80021D3F86E
:10B2FC0000310193019B02B0704700BF0000014078
:10B30C0038B50E4D2B78BBB90D4BD3F800248AB150
:10B31C00D3F80445FFF7CAFF40F61650A042B8BF59
:10B32C0020460849A0F54860FFF7B0FE064B4FF4E5
:10B33C0080321A6001232B7038BD00BF625E002082
:10B34C0000000140EDB2070000E100E0034BD3F830
:10B35C0000340BB1FFF7AABF704700BF00000140DB
:10B36C004FF0704393F8E02F062A10D1D3F8E42F56
:10B37C0012070CD1D3F8E80F00F0F003302B08D0F3
:10B38C0000F0E000A0F14003584258417047002003
:10B39C007047012070474FF0704393F8E02F062A56
:10B3AC000CD1D3F8E42F120708D1D3F8E80F00F032
:10B3BC00F000A0F13003584258417047002070470C
:10B3CC0008B5FFF7CDFF40B14FF08053884AD3F852
:10B3DC002433C3F30423C2F84035FFF7DCFF10B16C
:10B3EC00844B854A5A67FFF7BBFF48B14FF0805337
:10B3FC004FF08042D3F84432C3F34233C2F83C35A9
:10B40C00FFF7C9FF30B17D4AD2F8FC3023F08073CE
:10B41C00C2F8FC30FFF7A4FF40B14FF0804300228C
:10B42C00C3F80C21C3F81021C3F83825FFF7B3FF7C
:10B43C0020B14FF080430322C3F8A025FFF7ABFFE8
:10B44C0060B16F4B0522C3F810260122C3F8882681
:10B45C000022C3F818263F22C3F814264FF070437D
:10B46C0093F8E02F062A50D1D3F8E42F11074CD1D2
:10B47C00D3F8E83F03F0F003502B46D14FF0805245
:10B48C00604BD2F80414C3F82015D2F80814C3F892
:10B49C002415D2F80C14C3F82815D2F81014C3F8DC
:10B4AC002C15D2F81414C3F83015D2F81814C3F8AC
:10B4BC003415D2F81C14C3F84015D2F82014C3F874
:10B4CC004415D2F82414C3F84815D2F82814C3F83C
:10B4DC004C15D2F82C14C3F85015D2F83014C3F80C
:10B4EC005415D2F83414C3F86015D2F83814C3F8D4
:10B4FC006415D2F83C14C3F86815D2F84014C3F89C
:10B50C006C15D2F84424C3F87025FFF729FF48B115
:10B51C004FF080534FF08042D3F8583203F04F0372
:10B52C00C2F8E43EFFF71CFF48B14FF08043D3F85C
:10B53C000024D20744BF6FF00102C3F800244FF07F
:10B54C008053D3F83021062A0AD1D3F83431062B94
:10B55C0001BF2D4AD2F83C3743F48063C2F83C3724
:10B56C00264AD2F8883043F47003C2F88830BFF30F
:10B57C004F8FBFF36F8F4FF01023D3F80022002AA8
:10B58C0003DBD3F80432002B2EDA204B0122C3F854
:10B59C000425D3F80024002AFBD04FF010221521EB
:10B5AC00C2F80012D3F80024002AFBD04FF010236D
:10B5BC001522C3F80422154BD3F80024002AFBD023
:10B5CC000022C3F80425D3F80024002AFBD0BFF3D3
:10B5DC004F8F0A490E4BCA6802F4E0621343CB60EA
:10B5EC00BFF34F8F00BFFDE70A4B0B4A1A6008BD33
:10B5FC000030014000C007400DF0ADBA00ED00E096
:10B60C000050004000C000400010004000E001402D
:10B61C000400FA05F45700200090D00313681F2B88
:10B62C0010B5144607D900220830FDF72AFC08B9DA
:10B63C002023236010BD48F21450FBE70830FDF7BF
:10B64C00FDBB0830FDF7CABB062810B5044602D175
:10B65C00002000F0ABFF044B1B681BB12046BDE87B
:10B66C001040184710BD00BF645E002008B5074BA2
:10B67C0018600020FFF7E8FF054800F07FFF20B9B5
:10B68C00BDE80840024800F03FBE08BD645E0020E3
:10B69C0055B607006CDF70476DDF704772DF70477F
:10B6AC0073DF704774DF704775DF704776DF704764
:10B6BC007ADF70477CDF70477DDF70477FDF704734
:10B6CC0086DF70478FDF704790DF7047A8DF7047C9
:10B6DC00AADF7047ADDF7047AEDF7047B0DF704751
:10B6EC00B1DF7047B5DF704762DF704766DF7047C8
:10B6FC0013DF704701460148FDF769B8C0D1070058
:10B70C0070B518228CB000210DEB020001F015FD74
:10B71C002823089316231E4CADF806300023CDE9E0
:10B72C000333059302230622237023715923012529
:10B73C000926A27063710322FE236570E270A37167
:10B74C000DF10601A0198DF818508DF82D500294AA
:10B75C00ADF80C60FFF7B0FFB8B9BDF80630267233
:10B76C005A19E271BDF80C200A4C134402A906AA1E
:10B77C002046ADF80C30FFF791FF30B92078FFF779
:10B78C0091FF20782946FFF78BFF0CB070BD00BFEE
:10B79C00E66E0020F8570020154938B50B680246B4
:10B7AC0013F0010022D0134882421ED0124A108896
:10B7BC004FF6FF72904213D043F004030B60132139
:10B7CC00FFF774FF90B90D4DC82445F001054FF4F7
:10B7DC007A40A847013CFAD1BDE8384001F02EBBB5
:10B7EC00074B1878FFF75EFFF6E7002038BD00BF67
:10B7FC00086F0020ACD10700FA570020E0D50700F5
:10B80C00F8570020F0B50388232B8BB0044635D8AD
:10B81C000F2B04D8012B00F0F9800BB0F0BD103BBE
:10B82C00132BFAD801A252F823F000BFB9B80700C5
:10B83C00D7B8070027B80700B9B90700F9BA07004D
:10B84C0027B8070027B8070027B8070027B8070054
:10B85C0027B8070007BB070027B8070027B8070061
:10B86C0027B8070027B80700E3B9070027B8070077
:10B87C00F1B9070027B807009FB90700503B9AB2EF
:10B88C00062ACAD8062BC8D801A252F823F000BF4A
:10B89C0003B9070025BA070007BB070027B8070044
:10B8AC0027B807005BB9070005BA0700964D8388D7
:10B8BC002B80964B1B680BB1012098479449288824
:10B8CC000BB0BDE8F040FFF7EFBE8F4B4FF6FF72A9
:10B8DC001A80904B1B685A0704D4FFF711FF08B16C
:10B8EC00FEF7A0F9894B1B68002B96D002200BB0F9
:10B8FC00BDE8F0401847884EE288B3889A428CD154
:10B90C008648FCF740FF0546002886D0228A04F1C1
:10B91C00120101F0E9FB1822002104A801F00DFC32
:10B92C0008238DF810307E4B06937E4B0596CDE99F
:10B93C00073504A8238AADF8243000F0DBFC00287E
:10B94C003FF46BAF75482946FCF741FF65E7E1888A
:10B95C00F6291CD8CB1E9B070DD0CB1F9BB2013BED
:10B96C005A4202F0030203F0030301F1FF3158BF06
:10B97C005342C91A89B2644B1888FFF7B3FE0028EA
:10B98C003FF44BAF0BB0BDE8F040FEF74BB9F721DD
:10B99C00F1E70022808804A9CDE90422FFF794FE88
:10B9AC0000283FF43AAFFEF73DF936E7564C022338
:10B9BC000493208802AB04AA42F605210593FFF7F5
:10B9CC0089FE08B1FEF72EF9002320881A4685213E
:10B9DC00FFF774FEE4E74C4B00F108011888FFF701
:10B9EC0063FECCE7002304A980888DF810308DF815
:10B9FC001130FFF767FED3E7A379002B7FF40DAF6F
:10BA0C00414B13211888FFF751FEB8E73E4B00213C
:10BA1C001888FFF76BFEB2E7A379002B3FF4FDAE5D
:10BA2C00022B7FF4FAAE3C4D2189AA8991427FF416
:10BA3C00F4AEA27B012A7FF4F0AE4FF48032059273
:10BA4C00228A314EADF81820628AADF81A2004F122
:10BA5C001402079201AF298A3088049302AA029338
:10BA6C000397FFF737FE60B93846FFF7D7F840B9B0
:10BA7C0040F2FD133088ADF8143004A9FFF72EFE08
:10BA8C00CBE6002304A93088ADF81430FFF726FE6E
:10BA9C00014600287FF4C1AE182204A801F04DFB2A
:10BAAC00237D1F4A8DF81030022B0595069216D077
:10BABC00062B0ED0012B0ED11B4800F077FD1B4B33
:10BACC001A881B4B1A80637D0893D4F8163009939F
:10BADC0001E0637D089304A800F00CFC9DE6134A7A
:10BAEC00B4F815301380124A1380F4E700231A4679
:10BAFC0019468088FFF7E4FD41E70023A0881A4629
:10BB0C001946FFF7EDFD3AE7FA5700200C6F0020BD
:10BB1C00E6D50700086F0020D26E0020C0D10700C8
:10BB2C0081BB070001B70700ACD10700106F0020E4
:10BB3C00126F00207FB50023CDF80B308DF80F303D
:10BB4C000A4BADF806109B89ADF8083001238DF82F
:10BB5C000A300DF10603CDE90430054B02A9188813
:10BB6C00FFF7BAFD07B05DF804FB00BFD26E0020F2
:10BB7C00FA57002010B5044686B000210D2202A809
:10BB8C00019101F0DAFA2378082B0BD1364A3749A8
:10BB9C0013880988013B9BB21380D9B1D3B9032315
:10BBAC0011802370627823788DF805306021012A8A
:10BBBC008DF804108DF806200ED00B2A12D100F04F
:10BBCC0083F98DF80700002000F078F9042101A812
:10BBDC00FFF7B0FF06B010BD062B05D0082B29D0FF
:10BBEC00032B27D00321F2E7E1688DF80710D4E985
:10BBFC000123080A8DF80800080C090E8DF80A10AC
:10BC0C00110A8DF80B208DF80C10110C120E8DF8FA
:10BC1C000E201A0A8DF80F308DF810201A0C1B0EFE
:10BC2C008DF80D108DF809008DF811208DF812305B
:10BC3C000F21CCE7D4E90123110A8DF807208DF8E8
:10BC4C000810110C120E8DF80A201A0A8DF80B3000
:10BC5C008DF80C201A0C1B0E8DF809108DF80D2088
:10BC6C008DF80E300B21B2E7126F0020106F002000
:10BC7C002DE9F0413E4B94B005464FF6FF721A8009
:10BC8C0001204FF659632A4602A98DF80A00ADF837
:10BC9C000830FFF71BFD0446002865D1354B04AA7C
:10BCAC0003F11007164618685968144603C4083384
:10BCBC00BB422246F7D1A91C3046FFF715FD0446BE
:10BCCC00002851D101461C220DA801F036FA9DF82E
:10BCDC0034308DF8044043F004038DF834300223E3
:10BCEC00ADF80C30AB788DF80E3003238DF80630A0
:10BCFC00F423CDE90A44ADF82C302B464FF0110853
:10BD0C0033F8040B0C9403AF01AE08AA0DA98DF8FF
:10BD1C00058008970996FFF7DBFC044620BB01461B
:10BD2C001C220DA801F009FA18238DF834300123D8
:10BD3C00ADF80C30AB788DF80E3013238DF806303F
:10BD4C001723CDE90A44ADF82C302B4608AA33F85A
:10BD5C000C0B8DF804400DA90C94CDE908768DF8E8
:10BD6C000580FFF7B5FC0446204614B0BDE8F08111
:10BD7C00FA570020D0D5070030B5314C236813F0AA
:10BD8C00010585B05AD12F4B18602F48FCF7E4FC05
:10BD9C00029500F0B4F800284ED12C48FFF7A8FC0F
:10BDAC00002849D101F00CF8002845D102A801F077
:10BDBC00D9F8002840D102A9012001F0DDF80028B3
:10BDCC003AD102A801F02AF9002835D100F0AEFBD7
:10BDDC0030B11F4800F09AFB236843F00203236044
:10BDEC00112302A88DF80430FFF756FC20BB9DF8F8
:10BDFC00093002A801338DF80930FFF74BFCD8B994
:10BE0C002568AB074BBF124912498A69072248BF04
:10BE1C00043192B201A8FFF74DFC68B90E48FFF748
:10BE2C0047FC48B90D48FFF723FF28B9FFF768FC1A
:10BE3C0010B945F00105256005B030BD0020FBE7C9
:10BE4C00086F00200C6F0020C0D107000080070095
:10BE5C00685E0020C8D50700E6D50700D26E00202A
:10BE6C0043690BB1C06818477047000010B405490E
:10BE7C00054C0022904218BF214604485DF8044B43
:10BE8C00FCF7BFBC24D2070050D20700B8570020E3
:10BE9C0007B5009313460A4601460348FCF7B5FC68
:10BEAC0003B05DF804FB00BFB857002013460A46E8
:10BEBC0001460148FCF7B0BCB8570020014B187084
:10BECC000B207047146F0020024B002218781A7058
:10BEDC00704700BF146F002018DF704730B585B075
:10BEEC00054610220C466846002101F026F9A408EC
:10BEFC00684601950294FFF7EFFF05B030BD1FB502
:10BF0C000023CDE901330393684602230093FFF726
:10BF1C00E3FF05B05DF804FB4FF000534FF4805283
:10BF2C001A60002070470000014B06201B68184760
:10BF3C00206F00200A2803D90B38C0B2FFF7BEBF10
:10BF4C007047000010B5044686B00020FCF76CFC6E
:10BF5C00014638B1174A1821204606B0BDE81040FA
:10BF6C00FCF74ABA1822684601F0E7F80423124A93
:10BF7C008DF80030114B116D1B68994212D1104B8A
:10BF8C00186800F041FD8DF80100FFF7D3FFD4E9EC
:10BF9C0001138DF80100684698470A4800F088FAAA
:10BFAC0006B010BD01238DF801306846D4E90113A9
:10BFBC009847F5E751BF070094720020186F0020D6
:10BFCC001C6F002035BF070070B5044686B01822E0
:10BFDC000021684601F0B1F823788DF80030012279
:10BFEC008DF801200C2B00F27F81DFE813F00D009F
:10BFFC0077000F00770077007D0177006E007700E7
:10C00C006C001C002F0072008DF80420D4E9011381
:10C01C00684698479DF80130012B00F05A819C4BE3
:10C02C0005201B6854E14FF08053D3F80021019296
:10C03C00D3F804210292D3F80C2192020492D3F883
:10C04C001021920203921B690593DFE74FF44053D2
:10C05C00904D586890492E6A227C884214BF012367
:10C06C000223012E08BF013352B902238DF804308C
:10C07C00EB680293894B0393C3F5FC230493C5E748
:10C08C00012A10D188420ED14FF440531A78142A49
:10C09C008CBF5B69002302934FF4805303934FF4DE
:10C0AC0040539B68EAE79A4209D201238DF8043089
:10C0BC00AB68029300F0C0FAAB690390DEE7FF2394
:10C0CC008DF80430A2E7237CFAE7238AADF804301C
:10C0DC009CE76F4B07201B68984797E7062B704A25
:10C0EC0001D0012B01D1216911701178012904D0E3
:10C0FC00022957D0002313709AE0013B072B85D8F7
:10C10C0001A252F823F000BF35C1070019C0070087
:10C11C00A5C1070075C1070019C007009FC1070022
:10C12C0019C007004DC10700594B03201B689847E5
:10C13C00606900F069FBFFF7FDFE8DF8010065E713
:10C14C00A18A206900F07CFBFFF7F4FE514B8DF8BF
:10C15C000100DA6B1B6C0293E3680192002B3FF435
:10C16C0055AF2069984751E74E494F4800F08EFB78
:10C17C00FFF7E0FE01288DF801007FF447AF0020A7
:10C18C0000F096F900283FF441AF0A238DF80130F6
:10C19C003CE74FF4807303933E4BDA6B1B6C0192BC
:10C1AC00029333E7013B072B3FF630AF01A252F865
:10C1BC0023F000BFE1C1070019C0070093C20700BC
:10C1CC00B9C2070019C00700E3C2070019C0070075
:10C1DC0041C2070000F054FB08B90823D6E7626996
:10C1EC000AB90323D2E7C2F30B0333B1294B2D4910
:10C1FC005B6D096813448B42F3D1B2F5805F01D9B2
:10C20C000423C3E7234B2749586D096815188D4241
:10C21C00E3D85A64DA6C9A6418651863224B1B686D
:10C22C00002201211844FFF741FE00283FF4EEAE36
:10C23C000523ABE700F024FB0028CED0154DA28AD5
:10C24C00D5E914315B1A696C13448B42C9D8164B6F
:10C25C002E6B1868D4E903313044FFF719FE08B18E
:10C26C00E3687EE7A18A2B6B20690B442B632B6D53
:10C27C0005F148020B442B65FCF78AF92B6DA86479
:10C28C0002900193C2E6034B9A6C02921B6DF8E785
:10C29C00206F002094720020DBE5B1510080070074
:10C2AC00FC570020186F00201C6F00200F4BD3E9A7
:10C2BC001402596C821A8A428FD19A6C58650021EB
:10C2CC0020465964DA64FFF73DFE094B1B680420D5
:10C2DC00984706B070BD054B9A6C1B6D01934FF4DB
:10C2EC0080530292039391E602234FE7947200204D
:10C2FC00206F002083681BB1024A1821FCF77CB820
:10C30C0007207047D5BF070038B50546C0B10120DE
:10C31C00FFF7ACFD044648B900F04CFA00F0B0FA57
:10C32C0030B9084B00201D60FFF7C8FD204638BD12
:10C33C000549064800F0AAFA0128F2D00324F5E7D3
:10C34C000724F3E7206F0020186F00201C6F0020DB
:10C35C002DE9F04115464FF4DC72064688461F461F
:10C36C0000F088FE28B915B90020BDE8F081A84777
:10C37C00FAE7002201213046FFF798FD70B94FF41F
:10C38C00DC724146384600F0AFFE2B464FF4DC72AF
:10C39C0039463046FFF77CFD0028E5D00320E4E762
:10C3AC0070B5084C054600225821201DFCF7F0F80A
:10C3BC002A4620602146044B0448BDE87040FFF734
:10C3CC00C7BF00BF94720020DC70002000F0070093
:10C3DC00F8B5FFF74BFD044610B103242046F8BD19
:10C3EC00264E3368013334D002465821301DFCF7F9
:10C3FC00CFF833681B1A5D425D41214F3E683368AC
:10C40C00013332D000225821301DFCF7C1F83368BB
:10C41C0083422AD13E687DB11A495422301D00F066
:10C42C0029FE194905464FF4807206F15C0000F0B4
:10C43C0021FE50EA05031AD014484FF4DC72314641
:10C44C0000F052FE0020FFF7ABFF04460028C5D0D9
:10C45C00C3E70546D1E70D4B4FF4DC72294618466D
:10C46C0000F06BFE01224260ECE7002DF3D0034993
:10C47C0006484FF4DC7200F037FEAFE700F007001F
:10C48C000058002004F007005CF0070094720020B4
:10C49C0002460248024B0068FFF75ABF00580020C2
:10C4AC00246F00200149FFF7F3BF00BF00F0070025
:10C4BC0038B505460020FFF773FF044618B9034949
:10C4CC002846FFF7E5FF204638BD00BF94720020D8
:10C4DC0029DF704738B50C4D0446D5F89C3178B13E
:10C4EC0001330FD1002218210430FCF751F82146FA
:10C4FC002060072205F5CE70BDE83840FFF7E8BF95
:10C50C000E2038BD0820FCE700F0070050B1064BA8
:10C51C0003F11C0253F8041B40F8041B9342F9D19D
:10C52C00002070470E2070479CF1070010B5064C98
:10C53C00002218212046FCF72BF854F8043C1B1A57
:10C54C005842584110BD00BFA0F1070010B50A4C6D
:10C55C00D4F85C31D4F89C211340013309D04FF44A
:10C56C00FE20FDF7FDF9572221464FF4FE20FDF782
:10C57C000FFA002010BD00BF94720020F8B5094FCF
:10C58C00094CE41B0646E4080025A54201D1002015
:10C59C00F8BD57F83530304698470028F8D10135AA
:10C5AC00F3E700BFACD10700B4D10700F8B5094ED2
:10C5BC00094CA41B0746E40800250436A54201D10A
:10C5CC000020F8BD56F83530384698470028F8D189
:10C5DC000135F3E7ACD10700B4D10700034A0023BF
:10C5EC000360436083601363704700BF9472002044
:10C5FC004FF44053074A5968914201BF986800F6BE
:10C60C00FF7020F47F6020F00F0018BF4FF48050B3
:10C61C00704700BFDBE5B15108B5FFF7E9FF054BEB
:10C62C009B69184400F6FF7020F47F6020F00F0027
:10C63C0008BD00BF94720020FFF7DABF4FF48050A2
:10C64C007047000010B50B4C236A012B0DD170B153
:10C65C00E3694BB1FFF7CCFFA1690022FBF798FF10
:10C66C00E3691B1A5842584110BD0020FCE71846DC
:10C67C00FAE700BF947200202DE9F74F284DDFF840
:10C68C00B0B001911F462B6A0093044616464FF03A
:10C69C0000094FF4405AB9F1010F5FFA89F81BD029
:10C6AC00B8F1020F24D0FFF7B7FF9EB1009B013BFE
:10C6BC005A425A411B4B181AA04201D3019BEBB1B1
:10C6CC00D2B909F10109B9F1030FE4D1A04218D292
:10C6DC00042022E03246EDE7FFF78AFF37B9DAF89B
:10C6EC000420B2EB0B0218BF0122E3E74A46E1E754
:10C6FC0001224FF48050DDE7A042E9D3B8F1000FDE
:10C70C0002D00948FFF76AFF084800210123C5E958
:10C71C000413FFF763FF6C62084603B0BDE8F08FAB
:10C72C009472002000500700AC720020B8720020F8
:10C73C00DBE5B15130B50E490E4C8A6B85B06D46B8
:10C74C0028465C31FCF7DAFD95E80F0084E80F0011
:10C75C00094B0A4AE36000231360094A0949136034
:10C76C00094A204605B0BDE83040FDF764B800BF6B
:10C77C00947200208C76002099C70700EC7400207E
:10C78C00E874002074D50700107500205B689A6867
:10C79C00054B9A4207D1D0E90123044901320A60C2
:10C7AC00034A013B13607047F8D40700EC74002077
:10C7BC00E874002010B50F4CA36B90B08BB900231C
:10C7CC000D4A1370FDF7CEF968460C492022FDF78F
:10C7DC00FCF90B490B4840236A46FDF71BF910B0D6
:10C7EC0010BDFFF7A7FF0028E9D0636A003B18BF14
:10C7FC000123E5E79472002024770020A0D30700E2
:10C80C009C76002070D3070038B5044678B1B0F59B
:10C81C00807F0ED8084D094B00211C2205F13C00ED
:10C82C001970296300F089FCAC63012038BD03202A
:10C83C00FCE70420FAE700BF947200202477002064
:10C84C0070B50E4C0646E06BA36B42189A420D462F
:10C85C0011D85C300A462044314600F045FCE36BAD
:10C86C0004F140022B4429463046E363FBF790FE6B
:10C87C002064012070BD0320FCE700BF94720020EF
:10C88C00014B1878704700BF247700202DE9F04346
:10C89C004F4CD4E90E329A4285B00746884640F098
:10C8AC009280DFF8609199F8003053B1FFF7B4FE35
:10C8BC003860636AC8F800300124204605B0BDE832
:10C8CC00F083FFF737FF002844D0424B93F89C408D
:10C8DC0014B91A78002A3DD000223A60C8F800201A
:10C8EC004CB13D4C93F83831A4F1990620220392B7
:10C8FC0024B91324E1E7394E2346F7E7002B4AD13C
:10C90C0003AB0193364B0093364A374B12681B68C6
:10C91C0036493748FDF70CF900283AD12378402BDB
:10C92C0037D1344A631C1546413453F8041B42F882
:10C93C00041BA342F9D12F482021FDF752F94023C3
:10C94C00CDE90053264A039B2B492C48FDF77EF872
:10C95C00054608B10524B0E7301D00F003F90128A5
:10C96C000446AAD196F8593089F80000ABB996F86C
:10C97C006820C2B1F56E45B30022C8F800500123FF
:10C98C0011462846FFF778FEC8B9FFF745FE386018
:10C99C0093E70A2491E716248FE7DA0703D596F874
:10C9AC005A2002B1F56D9B07E5D596F86030002B47
:10C9BC00E1D0134B726EC3F5FC239A4201D90424C7
:10C9CC007BE71544D7E7082477E70F2475E700BF0A
:10C9DC0094720020107500204976002014750020F8
:10C9EC00F0740020EC740020E874002098D4070048
:10C9FC0070740020E47600209C76002028770020BC
:10CA0C0000800700247700202DE9F0474A4BDFF81F
:10CA1C0050A193F89C20494C03F1A40508338CB029
:10CA2C00002A08BF1D462027804689463A4605F154
:10CA3C006F0104A80397FDF7BDF803AB01934049C0
:10CA4C004048CDF800A04B464246FDF771F806462B
:10CA5C0020B117253C48FFF7C1FD12E03A4604A966
:10CA6C00504600F007FB0028F3D195F85530D3B9A8
:10CA7C006A6823620121E162A260A36CC4E9099394
:10CA8C00012520220021314800F057FBF422FF2120
:10CA9C002F4800F052FB002328462363C4F848803B
:10CAAC000CB0BDE8F08703F0020ADB073ED508F5B1
:10CABC000052284B506898423BD1AF6D916807F5F6
:10CACC00FF5307F6FF771F33C7F30B07DF1BB94282
:10CADC002FD34FF440514B68834211D10B78142B58
:10CAEC0082BF4B691C49B3FBF1F3117898BF3346F5
:10CAFC00142982BF56691848B6FBF0F6B3420FD022
:10CB0C00BAF1000F15D01548FFF768FDAC23E362AE
:10CB1C00AB6D6363BAF1000FAFD06B68E360ACE749
:10CB2C00BAF1000F14BFAC23A523F0E7AA23E362EC
:10CB3C00F0E705258EE700BF1075002094720020E9
:10CB4C0098D4070070740020B8720020CC720020BA
:10CB5C00F0720020DBE5B15140420F00AC720020B6
:10CB6C004C74002090F8542070B50346002A4DD028
:10CB7C0090F85500032849D893F86D20032A43D127
:10CB8C001A7A002A42D0DA68342A41D14FF4405242
:10CB9C00204C5568197CA5421FD179B15C696CB1E8
:10CBAC00958903F11404002254F8046BAE420BD0A7
:10CBBC000132D2B29142F7D112201EE050B90129B4
:10CBCC0002D95A69002AF7D01A786AB9012818BF15
:10CBDC000F2012E00128F7D1EEE711B15A69002AB3
:10CBEC00EAD11A78002AE7D001285B680A4A05D8EE
:10CBFC00906883422CBF0120102070BDD068834206
:10CC0C008CBF01201020F8E71420F6E70F20F4E782
:10CC1C001120F2E7DBE5B1519472002038B1054BDD
:10CC2C000360054B436001230372002070470E2004
:10CC3C00704700BF6FCC070049CC070069B10B7877
:10CC4C00022B0CD1022804D0032814BF0820112079
:10CC5C00704703230B70002070470E20704708208C
:10CC6C00704710B50C4681B10B78012B06D00ED94C
:10CC7C00033B012B94BF0820112010BDFFF72AFCA9
:10CC8C000028FAD102232370F7E70E20F5E70820DD
:10CC9C00F3E7000070B5144B144A0C21D21AB2FB06
:10CCAC00F1F2816911F8025C044635B90069002182
:10CCBC00914205D1012323600EE04FF0FF30F6E7DF
:10CCCC001E68AE420CD1461C07D19D68D4E9000108
:10CCDC00D4E90223A847206070BD5E688642F4D078
:10CCEC0001310C33E4E700BFB4D10700C0D1070019
:10CCFC001EF0040F0CBFEFF30880EFF30980FFF771
:10CD0C00C9BF00BF10DF704711DF704713B5044671
:10CD1C0009496846FBF7AEFF019808B902B010BD8F
:10CD2C00D0E900212046904718B16846FBF7ACFFCC
:10CD3C00F2E71120F2E700BFF4D5070013B5044663
:10CD4C0007496846FBF796FF019B0BB902B010BD73
:10CD5C002046D3E9002190476846FBF795FFF3E79F
:10CD6C000CD60700064B9A6822B11A6822F480028E
:10CD7C001A607047034B4FF48002C3F88020704751
:10CD8C001858002000E100E00B4991F816335A09BD
:10CD9C00EC231341DB0706D5084B9A683AB94FF4DC
:10CDAC0080030B60704742F20200FCF73BBF1A682D
:10CDBC0042F480021A60704700E100E0185800202D
:10CDCC00F7B5194F3C7864BB184E012520463570D9
:10CDDC00FFF79CFF112821D02046FFF7AFFF144B23
:10CDEC008DF80340186801900DF10300FBF796FBDA
:10CDFC00104901A8FFF786FF0446B0FA80F04009FD
:10CE0C0038709DF80300FBF7ADFB3CB90A4B34704E
:10CE1C001C70FFF7B9FF2846FFF790FF204603B0C0
:10CE2C00F0BD0824FAE700BF2D7700202C770020F6
:10CE3C00EED507002B9C07002E770020F7B5154F79
:10CE4C003B781BB3144E01203070FFF75FFF1128A5
:10CE5C004FF000051CD00220FFF770FF0DF107000A
:10CE6C008DF80750FBF75AFBFFF74EFF04469DF871
:10CE7C0007003D70FBF776FB2CB903203470FFF7ED
:10CE8C0071FFFFF75BFF204603B0F0BD0824FAE703
:10CE9C002C46F8E72D7700202C770020054B1B78CB
:10CEAC0033B1054B1B780BB1FFF7C8BFFFF788BF39
:10CEBC00082070472C7700202D770020014B187824
:10CECC00704700BF2D77002007B508496846FBF76F
:10CEDC00D1FE019B13B903B05DF804FBD3E900202C
:10CEEC0090476846FBF7D0FEF3E700BF00D607007B
:10CEFC00FFF7EABF60DF704769DF704761DF70479B
:10CF0C0030B5134DADF5017D4FF4FA740DF10201FE
:10CF1C0003A8ADF80240FFF7F1FF70B9294601A84C
:10CF2C00FBF7A8FE029B002BF0D003A8D3E900214D
:10CF3C00904701A8FBF7A8FEF4E7052805D00DF5EE
:10CF4C00017DBDE83040FCF76DBE0DF5017D30BDB7
:10CF5C0018D60700024B1B780BB1FFF7D1BF7047F7
:10CF6C002F77002018B1034B0360002070470E2070
:10CF7C00704700BFB8570020F0B5074685B00D4686
:10CF8C00002947D00024244A0A60CDE90144012637
:10CF9C0006238DF8040001A92020ADF80830039475
:10CFAC008DF80660FFF7A8FF2A68039401A94020BA
:10CFBC00CDE901448DF80560FFF79EFFF7232A6841
:10CFCC00039401A92320CDE90144ADF806308DF876
:10CFDC000470FFF791FF2A68039401A93046CDE94C
:10CFEC0001448DF80460FFF787FF4FF4B0632A68A3
:10CFFC00019301A9A120CDE90244FFF77DFF2A6826
:10D00C00039401A9A020CDE90144FFF775FF204648
:10D01C0005B0F0BD0E20FBE7B857002008B5FFF7B0
:10D02C0069FF10B9014B01221A7008BD2F7700203F
:10D03C004BDF70471FB50E4C01A8FFF7F9FF70B915
:10D04C00214602A8FBF716FE039B002BF4D0019897
:10D05C00D3E90021904702A8FBF716FEF4E7052858
:10D06C0004D004B0BDE81040FCF7DCBD04B010BD2A
:10D07C0024D607006AB30F2A70B511D8013A2FD005
:10D08C00034600EB020C01E09C4524D08E461C4666
:10D09C0011F8012B13F8010B9042F5D0801A70BDDA
:10D0AC0040EA010C1CF0030F04460B4606D0013A73
:10D0BC00E6E7043A042A20461946DFD919462046E9
:10D0CC000E680568B54203F1040304F10404F0D0C2
:10D0DC00D4E71046704760789EF80120801A70BD26
:10D0EC0000780A78DAE700BF844640EA010313F0BF
:10D0FC00030F18D18446202A0BD32DE9F007B1E891
:10D10C00F807A0E8F807A2F12002202AF7D2BDE820
:10D11C00F007042A07D351F8043B40F8043BA2F172
:10D12C000402042AF7D2002A05D011F8013B00F8BA
:10D13C00013B013AF9D1604670478446002A2DD054
:10D14C0010F0030F04D000F8011B013A26D0F7E7CA
:10D15C00C9B241EA012141EA0141202A12D3A2F1CC
:10D16C0020022DE9F0030B460C460D460E460F46E9
:10D17C0088468946A0E8FA03203AFBD2BDE8F003C2
:10D18C0020320BD0042A05D340F8041B043A05D0F6
:10D19C00042AF9D200F8011B013AFBD16046704712
:08D1AC0085BD0700A5B70700CF
:0CD1B400000000000300000029CC070070
:10D1C000845E0020C06E0020D16E00208C5E0020A6
:04D1D000F400000067
:08D1D40011B807000000000083
:10D1DC0061CF07000000000041D0070000000000F4
:08D1EC00E589070000000000C6
:08D1F400A58B070000000000FC
:08D1FC00998B07000000000000
:10D2040000000000000000006DBE070000100000D8
:04D21400000008000E
:10D218000010000004000000010000007D880700E5
:10D22800A1880700B1880700C18807001589070091
:10D23800898807008D880700918807000010000082
:10D248000400000001000000298A0700098A07007D
:10D25800F9890700358C0700E58B0700CD890700A1
:10D26800D1890700D5890700982F8A4291443771E0
:10D27800CFFBC0B5A5DBB5E95BC25639F111F15951
:10D28800A4823F92D55E1CAB98AA07D8015B831293
:10D29800BE853124C37D0C55745DBE72FEB1DE803F
:10D2A800A706DC9B74F19BC1C1699BE48647BEEF6E
:10D2B800C69DC10FCCA10C246F2CE92DAA84744AF9
:10D2C800DCA9B05CDA88F97652513E986DC631A86F
:10D2D800C82703B0C77F59BFF30BE0C64791A7D54E
:10D2E8005163CA0667292914850AB72738211B2ED6
:10D2F800FC6D2C4D130D385354730A65BB0A6A76BE
:10D308002EC9C281852C7292A1E8BFA24B661AA8C9
:10D31800708B4BC2A3516CC719E892D1240699D6D9
:10D3280085350EF470A06A1016C1A419086C371E52
:10D338004C774827B5BCB034B30C1C394AAAD84E30
:10D348004FCA9C5BF36F2E68EE828F746F63A5786B
:10D358001478C8840802C78CFAFFBE90EB6C50A4FE
:10D36800F7A3F9BEF27871C64800280000204000F3
:10D378003DA90700D193070077930700C7980700D6
:10D388003799070057990700CB9207008D9207003D
:10D3980063980700000000009BFE5737835B48A591
:10D3A800E8AE63681178748C510B865083F61622A8
:10D3B8000E7A650E5500CFB59AB28625EB1B227BF7
:10D3C800E11BEB8B2794EE68087DDCF8AC2B32CBA5
:10D3D8006E78F0AA545598CE08200001FFFFFFFF91
:10D3E800FFFFFFFFFFFFFFFF00000000000000003D
:10D3F8000000000001000000FFFFFFFF512563FC53
:10D40800C2CAB9F3849E17A7ADFAE6BCFFFFFFFFB7
:10D41800FFFFFFFF00000000FFFFFFFF96C298D844
:10D428004539A1F4A033EB2D817D0377F240A46345
:10D43800E5E6BCF847422CE1F2D1176BF551BF374E
:10D448006840B6CBCE5E316B5733CE2B169E0F7C21
:10D458004AEBE78E9B7F1AFEE242E34F4B60D227EE
:10D468003E3CCE3BF6B053CCB0061D65BC869876E4
:10D4780055BDEBB3E7933AAAD835C65A07A30700B8
:10D488005DA40700B9A407000338FDD87047000061
:10D498004FB6070049B6070029B60700200000006C
:10D4A8007800000000000000011101FF01000000E9
:10D4B80000000000021702FE94000000F8D40700E4
:10D4C8000000000000000000000000000101000052
:10D4D800010000000000000002050000210000001B
:10D4E8000000000000000000000000000000000034
:10D4F800011104FC0400000000000000021104FCFB
:10D508000400000000000000032104FC04100000D7
:10D5180000000000041101FF0100000000000000ED
:10D52800051102FE0400000000000000061104FCC2
:10D538000400000000000000071104FC04000000C3
:10D5480000000000081701FF22000000D4D40700E3
:10D55800091001FF0100000070D50700000000005D
:10D56800000000000000000000000000011704FC9B
:10D5780098000000B0D40700021704FCDC0000008B
:10D5880098D507000000000000000000000000001F
:10D598000107000098000000B0D407000201000055
:10D5A8000100000000000000030500004100000029
:10D5B8000000000000000000000000000000000063
:10D5C800446675546172670050EADA308883B89F00
:10D5D800604F15F30000C98E0338FDD870470C0062
:10D5E8000C0000005802010000070000ECD1070001
:10D5F800F4D1070008000000DCD10700ECD10700D7
:10D6080008000000F4D10700FCD107000800000062
:10D61800D4D10700DCD1070008000000FCD10700C6
:08D6280004D207000800000015
:10D6300000000000000000000000000000000000EA
:10D6400000000000000000000000000001000000D9
:10D65000CC570020DC5700200090D003FF00FFFFD4
:08D660000100000000E00700DA
:020000020000FC
:020000041000EA
:041014000080070051
:0410180000E00700ED
:040000037000835DA9
:00000001FF
